S01700002E2F44656275672F6B6F6E74726F6C6C2E733139F5
S315200000004FF44040C2F20100854600F09FF9FEE71A
S3152000001080B586B000AF0120012102F04DFA1C48C0
S315200000200021082201F08EFA19480121082201F048
S3152000003089FA03233B6102233B750023BB75012309
S31520000040FB7503237B7507F110031148194600F051
S31520000050D9FC4FF40020012102F0D2FA4FF4E1330B
S315200000603B600023BB810C237B8100233B81002343
S31520000070FB800023BB803B460648194607F0A4FEBA
S315200000800448012108F0CAF81837BD4680BD00BFD4
S3152000009000000240004C004080B483B000AF78607E
S315200000A039600C37BD465DF8047B704780B584B057
S315200000B000AF03460A46FB711346BB71FB799B01D1
S315200000C0DAB2BB7903F03F03DBB21343DBB2FB7337
S315200000D0FB7B9BB20348194608F014FA1037BD463D
S315200000E080BD00BF004C004080B483B000AF002329
S315200000F07B6000237B6002E07B6801337B607B684A
S31520000100034A9342F8DD0C37BD465DF8047B704701
S315200001109F86010080B582B000AF4FF400633B603C
S3152000012000233B7103237B710023BB710223FB71E8
S315200001303B460348194600F065FC0837BD4680BD9E
S315200001400008024080B58CB000AF4FF4E06001217A
S3152000015002F08CFA0420012102F0AEF907233B605D
S3152000016003233B710023FB713B462448194600F0CC
S3152000017049FC0023BB6007F10803184609F062FE1C
S315200001804FF04073BB6100233B7700237B7700232E
S315200001903B620023BB6207F118031948194609F090
S315200001A017FD07F118031748194609F011FD07F145
S315200001B018031548194609F00BFD11480A2101229A
S315200001C000230AF0CDF80F480B21012200230AF064
S315200001D0C7F80D480C21012200230AF0C1F808486F
S315200001E0012109F029FF0748012109F025FF0648CA
S315200001F0012109F021FF3037BD4680BD00080240AD
S3152000020000200140002101400022014080B582B03B
S3152000021000AF0346FB71FB790B2B18D00C2B2BD090
S315200002200A2B3ED124480AF0E1F902E0234B0022B2
S315200002301A8021480AF000FA0346002BF6D11E4800
S315200002400AF028FB03461A461C4B1A802DE01C4850
S315200002500AF0CCF902E0194B00221A8018480AF05D
S31520000260EBF90346002BF6D115480AF013FB03469B
S315200002701A46124B1A8018E012480AF0B7F902E023
S315200002800E4B00221A800F480AF0D6F90346002B9F
S31520000290F6D10C480AF0FEFA03461A46074B1A8096
S315200002A003E0064B00221A8000BF044B1B88184629
S315200002B00837BD4680BD00BF002001401ED2002069
S315200002C0002101400022014080B582B000AF00230A
S315200002D0FB801A481A4909F00FFC184809F0F6FB6A
S315200002E00346FB80FB883C2B10D116480D2109F0D4
S315200002F0D7FB14480A2109F0D3FB10480D2109F039
S31520000300CFFB0E480A2109F0CBFB15E0FB882A2BF0
S3152000031008D10C480C4909F0EFFB08480A4909F0B6
S31520000320EBFB09E0FB880548194609F0B9FBFB8879
S315200003300448194609F0B4FBCFE700BF001001407E
S3152000034034D00020004C004040D0002080B582B040
S3152000035000AFFFF75DFEFFF7F5FEFFF7DBFE254852
S31520000360254909F0C9FB0023FB710023BB71FFF768
S31520000370BBFE2048214909F0BFFB21484FF400610C
S3152000038000F0ECFC0346012B07D003200021FFF7E9
S315200003908DFE18481B4909F0AFFB0B20FFF736FFEF
S315200003A00346FB710C20FFF731FF0346BB71FB7937
S315200003B09BB21048194609F0B5FB0E482C2109F0CE
S315200003C06FFBBB799BB20B48194609F0ABFB09487A
S315200003D00A2109F065FBFB7901201946FFF766FE25
S315200003E0FFF782FEBB7902201946FFF75FFEFFF773
S315200003F07BFEC2E70010014048D0002050D00020EC
S315200004000008024064D0002080B400AF094B0022CF
S315200004101A60084B00225A60064B00229A60054B50
S315200004200022DA60034B044A5A61BD465DF8047B1C
S31520000430704700BF003C0140FFFF7F0080B584B0BD
S3152000044000AF78600023FB607B681B79002B07D008
S315200004507B681B79042B03D04A488321FFF71CFEB7
S315200004607B685B79082B0BD07B685B790C2B07D0DC
S315200004707B685B79102B03D042488421FFF70CFE62
S315200004807B681B68DB0DDB05002B03D17B681B68B3
S31520000490002B03D13B488521FFF7FEFD7B689B7926
S315200004A0002B07D07B689B79012B03D0354886210A
S315200004B0FFF7F2FD344BFB607B689B79002B4FD016
S315200004C03149314B1A687B681B68DB4313400B604C
S315200004D02D492D4B5A687B681B68DB4313404B60C4
S315200004E07B681B791A46FB681344FB60FB68FA6835
S315200004F011687A6812680A431A602349224B9A685F
S315200005007B681B68DB4313408B601F491E4BDA68F0
S315200005107B681B68DB431340CB607B685B79102BC1
S315200005200ED11949184B9A687B681B6813438B6058
S315200005301549154BDA687B681B681343CB601DE0B1
S31520000540114BFB607B685B791A46FB681344FB60A2
S31520000550FB68FA6811687A6812680A431A600DE027
S315200005607B681B791A46FB681344FB60FB68FA68B4
S3152000057011687A681268D2430A401A601037BD465D
S3152000058080BD00BF68D00020003C014080B483B00D
S3152000059000AF78607B6800221A607B6800221A719F
S315200005A07B680C225A717B6800229A710C37BD46F3
S315200005B05DF8047B704700BF80B582B000AF7860DD
S315200005C07B68DB0DDB05002B02D17B68002B03D17A
S315200005D00648C821FFF760FD0549054B1A697B6867
S315200005E013430B610837BD4680BD00BF68D000208D
S315200005F0003C014080B584B000AF78600023FB73D7
S315200006007B68012B58D07B68022B55D07B68042B46
S3152000061052D07B68082B4FD07B68102B4CD07B6840
S31520000620202B49D07B68402B46D07B68802B43D03B
S315200006307B68B3F5807F3FD07B68B3F5007F3BD0E6
S315200006407B68B3F5806F37D07B68B3F5006F33D006
S315200006507B68B3F5805F2FD07B68B3F5005F2BD026
S315200006607B68B3F5804F27D07B68B3F5004F23D046
S315200006707B68B3F5803F1FD07B68B3F5003F1BD066
S315200006807B68B3F5802F17D07B68B3F5002F13D086
S315200006907B68B3F5801F0FD07B68B3F5001F0BD0A6
S315200006A07B68B3F5800F07D07B68B3F5000F03D0C6
S315200006B00948E721FFF7F0FC084B5A697B6813408D
S315200006C0002B02D00123FB7301E00023FB73FB7B8D
S315200006D018461037BD4680BD68D00020003C01403A
S315200006E080B582B000AF78607B68DB0DDB05002B20
S315200006F002D17B68002B03D10448FD21FFF7CCFCF7
S31520000700034A7B6853610837BD4680BD68D0002008
S31520000710003C014080B584B000AF78600023FB73B5
S315200007207B68012B59D07B68022B56D07B68042B23
S3152000073053D07B68082B50D07B68102B4DD07B681C
S31520000740202B4AD07B68402B47D07B68802B44D017
S315200007507B68B3F5807F40D07B68B3F5007F3CD0C3
S315200007607B68B3F5806F38D07B68B3F5006F34D0E3
S315200007707B68B3F5805F30D07B68B3F5005F2CD003
S315200007807B68B3F5804F28D07B68B3F5004F24D023
S315200007907B68B3F5803F20D07B68B3F5003F1CD043
S315200007A07B68B3F5802F18D07B68B3F5002F14D063
S315200007B07B68B3F5801F10D07B68B3F5001F0CD083
S315200007C07B68B3F5800F08D07B68B3F5000F04D0A3
S315200007D00A484FF48671FFF75FFC094B5A697B681C
S315200007E01340002B02D00123FB7301E00023FB738F
S315200007F0FB7B18461037BD4680BD00BF68D0002061
S31520000800003C014080B582B000AF78607B68DB0D8C
S31520000810DB05002B02D17B68002B04D1054840F272
S315200008202311FFF739FC044A7B6853610837BD461C
S3152000083080BD00BF68D00020003C014080B582B05A
S3152000084000AF78607B68634A93422BD07B68624A0C
S31520000850934227D07B68614A934223D07B68604AC3
S3152000086093421FD07B685F4A93421BD07B685E4AC7
S31520000870934217D07B685D4A934213D07B685C4ACB
S3152000088093420FD07B685B4A93420BD07B685A4ACF
S31520000890934207D07B68594A934203D05848822115
S315200008A0FFF7FAFB7B684B4A934208D101200121CE
S315200008B001F014FF0120002101F010FF86E07B6883
S315200008C0454A934208D10220012101F007FF022068
S315200008D0002101F003FF79E07B68404A934208D16A
S315200008E00420012101F0FAFE0420002101F0F6FE89
S315200008F06CE07B683A4A934208D10820012101F036
S31520000900EDFE0820002101F0E9FE5FE07B68354A14
S31520000910934208D11020012101F0E0FE1020002191
S3152000092001F0DCFE52E07B682F4A934208D120205A
S31520000930012101F0D3FE2020002101F0CFFE45E069
S315200009407B682A4A934208D14020012101F0C6FE45
S315200009504020002101F0C2FE38E07B68244A934201
S3152000096008D18020012101F0B9FE8020002101F06C
S31520000970B5FE2BE07B681F4A93420AD14FF4807064
S31520000980012101F0ABFE4FF48070002101F0A6FE9C
S315200009901CE07B68184A93420AD14FF4007001216B
S315200009A001F09CFE4FF40070002101F097FE0DE04F
S315200009B07B68124A934209D14FF48060012101F0ED
S315200009C08DFE4FF48060002101F088FE0837BD4679
S315200009D080BD00BF00000240000402400008024023
S315200009E0000C024000100240001402400018024091
S315200009F0001C024000200240002402400028024041
S31520000A00A0D0002080B586B000AF78603960002382
S31520000A107B6100233B610023FB607B687E4A934217
S31520000A202BD07B687D4A934227D07B687C4A9342B1
S31520000A3023D07B687B4A93421FD07B687A4A9342B5
S31520000A401BD07B68794A934217D07B68784A9342B9
S31520000A5013D07B68774A93420FD07B68764A9342BD
S31520000A600BD07B68754A934207D07B68744A9342C1
S31520000A7003D07448CF21FFF70FFB3B681B689BB25E
S31520000A80002B03D16F48D021FFF706FB3B681B796B
S31520000A90002B0FD03B681B79012B0BD03B681B79B1
S31520000AA0022B07D03B681B79032B03D06548D12145
S31520000AB0FFF7F2FA3B68DB79002B0BD03B68DB793A
S31520000AC0012B07D03B68DB79022B03D05D48D2216E
S31520000AD0FFF7E2FA00237B6197E07B69012202FAA5
S31520000AE003F33B613B681A683B691340FB60FA6875
S31520000AF03B699A4240F086807B681A687B695B0076
S31520000B00194603238B40DB431A407B681A607B68B7
S31520000B101A683B681B7919467B695B0001FA03F367
S31520000B201A437B681A603B681B79012B03D03B680C
S31520000B301B79022B4ED13B685B79002B0FD03B688B
S31520000B405B79012B0BD03B685B79022B07D03B6886
S31520000B505B79032B03D03B48E421FFF79DFA7B68A2
S31520000B609A687B695B00194603238B40DB431A4056
S31520000B707B689A607B689A683B685B7919467B69D3
S31520000B805B0001FA03F31A437B689A603B689B7902
S31520000B90002B07D03B689B79012B03D02948EB21FA
S31520000BA0FFF77AFA7B685A687B699BB2194601235C
S31520000BB08B40DB431A407B685A607B685B683A68E7
S31520000BC0927911467A6992B201FA02F292B21A43E6
S31520000BD07B685A607B68DA687B699BB25B0003217D
S31520000BE001FA03F3DB431A407B68DA607B68DA6834
S31520000BF03B68DB7919467B695B0001FA03F31A43EC
S31520000C007B68DA607B6901337B617B690F2B7FF61A
S31520000C1064AF1837BD4680BD000002400004024084
S31520000C2000080240000C024000100240001402405E
S31520000C3000180240001C024000200240002402400E
S31520000C4000280240A0D0002080B483B000AF786096
S31520000C507B684FF6FF721A607B6800221A717B68E8
S31520000C6000225A717B6800229A717B680022DA7111
S31520000C700C37BD465DF8047B704700BF80B584B055
S31520000C8000AF78600B467B804FF48033FB607B6837
S31520000C90264A93422CD07B68254A934228D07B68EB
S31520000CA0244A934224D07B68234A934220D07B68EF
S31520000CB0224A93421CD07B68214A934218D07B68F3
S31520000CC0204A934214D07B681F4A934210D07B68F7
S31520000CD01E4A93420CD07B681D4A934208D07B68FB
S31520000CE01C4A934204D01C484FF48D71FFF7D4F967
S31520000CF07B88002B04D1184840F21B11FFF7CCF952
S31520000D007A88FB681343FB60FA687B68DA617A8825
S31520000D107B68DA61FA687B68DA617B68DB69FB608D
S31520000D207B68DB69FB601037BD4680BD0000024052
S31520000D300004024000080240000C0240001002405D
S31520000D400014024000180240001C0240002002400D
S31520000D500024024000280240A0D0002080B584B0A4
S31520000D6000AF78600B467B800023FB737B683E4A8E
S31520000D7093422CD07B683D4A934228D07B683C4ADC
S31520000D80934224D07B683B4A934220D07B683A4AE0
S31520000D9093421CD07B68394A934218D07B68384AE4
S31520000DA0934214D07B68374A934210D07B68364AE8
S31520000DB093420CD07B68354A934208D07B68344AEC
S31520000DC0934204D033484FF4A471FFF765F97B882A
S31520000DD0012B39D07B88022B36D07B88042B33D04D
S31520000DE07B88082B30D07B88102B2DD07B88202B1E
S31520000DF02AD07B88402B27D07B88802B24D07B88C9
S31520000E00B3F5807F20D07B88B3F5007F1CD07B880C
S31520000E10B3F5806F18D07B88B3F5006F14D07B882C
S31520000E20B3F5805F10D07B88B3F5005F0CD07B884C
S31520000E30B3F5804F08D07B88B3F5004F04D0154812
S31520000E4040F24911FFF728F97B681A697B8813401D
S31520000E50002B02D00123FB7301E00023FB73FB7BF5
S31520000E6018461037BD4680BD0000024000040240EF
S31520000E7000080240000C024000100240001402400C
S31520000E8000180240001C02400020024000240240BC
S31520000E9000280240A0D0002080B582B000AF786044
S31520000EA07B681B4A93422CD07B681A4A934228D0EF
S31520000EB07B68194A934224D07B68184A934220D0F3
S31520000EC07B68174A93421CD07B68164A934218D0F7
S31520000ED07B68154A934214D07B68144A934210D0FB
S31520000EE07B68134A93420CD07B68124A934208D0FF
S31520000EF07B68114A934204D010484FF4B071FFF733
S31520000F00CBF87B681B699BB218460837BD4680BD67
S31520000F10000002400004024000080240000C02408B
S31520000F20001002400014024000180240001C02403B
S31520000F30002002400024024000280240A0D00020C9
S31520000F4080B584B000AF78600B467B800023FB73AE
S31520000F507B683E4A93422CD07B683D4A934228D0F8
S31520000F607B683C4A934224D07B683B4A934220D0FC
S31520000F707B683A4A93421CD07B68394A934218D000
S31520000F807B68384A934214D07B68374A934210D004
S31520000F907B68364A93420CD07B68354A934208D008
S31520000FA07B68344A934204D0334840F27311FFF7EA
S31520000FB073F87B88012B39D07B88022B36D07B882F
S31520000FC0042B33D07B88082B30D07B88102B2DD058
S31520000FD07B88202B2AD07B88402B27D07B88802B90
S31520000FE024D07B88B3F5807F20D07B88B3F5007F23
S31520000FF01CD07B88B3F5806F18D07B88B3F5006F43
S3152000100014D07B88B3F5805F10D07B88B3F5005F62
S315200010100CD07B88B3F5804F08D07B88B3F5004F82
S3152000102004D015484FF4BA71FFF736F87B685A6931
S315200010307B881340002B02D00123FB7301E00023A1
S31520001040FB73FB7B18461037BD4680BD000002406F
S315200010500004024000080240000C0240001002403A
S315200010600014024000180240001C024000200240EA
S315200010700024024000280240A0D0002080B582B083
S3152000108000AF78607B681B4A93422CD07B681A4A53
S31520001090934228D07B68194A934224D07B68184A09
S315200010A0934220D07B68174A93421CD07B68164A0D
S315200010B0934218D07B68154A934214D07B68144A11
S315200010C0934210D07B68134A93420CD07B68124A15
S315200010D0934208D07B68114A934204D0104840F2CC
S315200010E08B11FEF7D9FF7B685B699BB218460837E0
S315200010F0BD4680BD000002400004024000080240B8
S31520001100000C024000100240001402400018024069
S31520001110001C024000200240002402400028024019
S31520001120A0D0002080B582B000AF78600B467B80CF
S315200011307B681F4A93422CD07B681E4A934228D054
S315200011407B681D4A934224D07B681C4A934220D058
S315200011507B681B4A93421CD07B681A4A934218D05C
S315200011607B68194A934214D07B68184A934210D060
S315200011707B68174A93420CD07B68164A934208D064
S315200011807B68154A934204D0144840F29F11FEF71B
S3152000119083FF7B88002B04D110484FF4D071FEF7D3
S315200011A07BFF7B687A881A830837BD4680BD00BFDF
S315200011B0000002400004024000080240000C0240E9
S315200011C0001002400014024000180240001C024099
S315200011D0002002400024024000280240A0D0002027
S315200011E080B582B000AF78600B467B807B681F4A53
S315200011F093422CD07B681E4A934228D07B681D4A96
S31520001200934224D07B681C4A934220D07B681B4A99
S3152000121093421CD07B681A4A934218D07B68194A9D
S31520001220934214D07B68184A934210D07B68174AA1
S3152000123093420CD07B68164A934208D07B68154AA5
S31520001240934204D014484FF4DA71FEF725FF7B88C9
S31520001250002B04D1104840F2B511FEF71DFF7B6824
S315200012607A885A830837BD4680BD00BF00000240F9
S315200012700004024000080240000C02400010024018
S315200012800014024000180240001C024000200240C8
S315200012900024024000280240A0D0002080B582B061
S315200012A000AF78600B467B8013467B707B68424A92
S315200012B093422CD07B68414A934228D07B68404A8F
S315200012C0934224D07B683F4A934220D07B683E4A93
S315200012D093421CD07B683D4A934218D07B683C4A97
S315200012E0934214D07B683B4A934210D07B683A4A9B
S315200012F093420CD07B68394A934208D07B68384A9F
S31520001300934204D037484FF4E571FEF7C5FE7B883B
S31520001310012B39D07B88022B36D07B88042B33D007
S315200013207B88082B30D07B88102B2DD07B88202BD8
S315200013302AD07B88402B27D07B88802B24D07B8883
S31520001340B3F5807F20D07B88B3F5007F1CD07B88C7
S31520001350B3F5806F18D07B88B3F5006F14D07B88E7
S31520001360B3F5805F10D07B88B3F5005F0CD07B8807
S31520001370B3F5804F08D07B88B3F5004F04D01948C9
S3152000138040F2CB11FEF788FE7B78002B07D07B78C6
S31520001390012B04D013484FF4E671FEF77DFE7B78CF
S315200013A0002B03D07B687A881A8302E07B687A88D0
S315200013B05A830837BD4680BD000002400004024023
S315200013C000080240000C02400010024000140240B7
S315200013D000180240001C0240002002400024024067
S315200013E000280240A0D0002080B582B000AF7860EF
S315200013F00B467B807B681B4A93422CD07B681A4A1B
S31520001400934228D07B68194A934224D07B68184A95
S31520001410934220D07B68174A93421CD07B68164A99
S31520001420934218D07B68154A934214D07B68144A9D
S31520001430934210D07B68134A93420CD07B68124AA1
S31520001440934208D07B68114A934204D0104840F258
S31520001450E311FEF721FE7A887B685A610837BD467C
S3152000146080BD00BF00000240000402400008024088
S31520001470000C0240001002400014024000180240F6
S31520001480001C0240002002400024024000280240A6
S31520001490A0D0002080B582B000AF78600B467B805C
S315200014A07B681C4A93422CD07B681B4A934228D0E7
S315200014B07B681A4A934224D07B68194A934220D0EB
S315200014C07B68184A93421CD07B68174A934218D0EF
S315200014D07B68164A934214D07B68154A934210D0F3
S315200014E07B68144A93420CD07B68134A934208D0F7
S315200014F07B68124A934204D0114840F2F311FEF75A
S31520001500CBFD7B685A697B885A407B685A610837CD
S31520001510BD4680BD00000240000402400008024093
S31520001520000C024000100240001402400018024045
S31520001530001C0240002002400024024000280240F5
S31520001540A0D0002080B584B000AF78600B467B80A9
S3152000155013467B700023FB600023BB607B68874AB1
S3152000156093422CD07B68864A934228D07B68854A52
S31520001570934224D07B68844A934220D07B68834A56
S3152000158093421CD07B68824A934218D07B68814A5A
S31520001590934214D07B68804A934210D07B687F4A5E
S315200015A093420CD07B687E4A934208D07B687D4A62
S315200015B0934204D07C4840F24921FEF76DFD7B889A
S315200015C0002B31D07B88012B2ED07B88022B2BD071
S315200015D07B88032B28D07B88042B25D07B88052B62
S315200015E022D07B88062B1FD07B88072B1CD07B889C
S315200015F0082B19D07B88092B16D07B880A2B13D071
S315200016007B880B2B10D07B880C2B0DD07B880D2B49
S315200016100AD07B880E2B07D07B880F2B04D06248FC
S3152000162040F24A21FEF738FD7B78002B6DD07B787F
S31520001630092B6AD07B78002B67D07B78002B64D06F
S315200016407B78002B61D07B78002B5ED07B78012BBA
S315200016505BD07B78012B58D07B78022B55D07B78BA
S31520001660022B52D07B78022B4FD07B78032B4CD089
S315200016707B78042B49D07B78042B46D07B78042BAF
S3152000168043D07B78052B40D07B78052B3DD07B78CB
S31520001690092B3AD07B78062B37D07B78092B34D090
S315200016A07B78072B31D07B78072B2ED07B78072BA6
S315200016B02BD07B78082B28D07B78082B25D07B78DD
S315200016C0082B22D07B78092B1FD07B78092B1CD0A6
S315200016D07B780A2B19D07B780A2B16D07B780B2B9C
S315200016E013D07B780C2B10D07B780C2B0DD07B78ED
S315200016F00D2B0AD07B780F2B07D07B780C2B04D0B0
S31520001700294840F24B21FEF7C7FC7B787A8802F005
S31520001710070292009340FB607B88DB089BB2184649
S315200017207B88DB089BB21A467B68083253F8222056
S315200017307B8803F007039B0019460F238B40DB436E
S3152000174002EA03017B6800F1080243F822107B8835
S31520001750DB089BB21A467B68083253F82220FB68C6
S315200017601343BB607B88DB089BB21A467B68083232
S31520001770B96843F822101037BD4680BD00000240EC
S315200017800004024000080240000C02400010024003
S315200017900014024000180240001C024000200240B3
S315200017A00024024000280240A0D0002080B400AFD0
S315200017B0164A164B1B6843F001031360134B002295
S315200017C09A60124A114B1B6823F0A85323F4102366
S315200017D013600E4B0E4A5A600C4B0E4AC3F88420F7
S315200017E00A4B0D4AC3F88820084A084B1B6823F485
S315200017F080231360054B0022DA60044B0022C3F8D5
S315200018008C20BD465DF8047B704700BF003802403F
S3152000181010300024003000200030002480B582B033
S3152000182000AF0346FB71FB79002B0AD0FB79012B15
S3152000183007D0FB79052B04D0064840F21F11FEF78E
S315200018402BFC054B00221A70034AFB7913700837CC
S31520001850BD4680BDD8D000200238024080B582B077
S3152000186000AF00233B600023FB710023BB713120B6
S3152000187001F0BCF90346BB713B6801333B603B6812
S31520001880B3F5A04F02D0BB79002BF0D0312001F068
S31520001890ADF90346002B02D00123FB7101E00023A2
S315200018A0FB71FB7918460837BD4680BD80B584B0EC
S315200018B000AF0346FB710023FB60FB791F2B04D985
S315200018C00B4840F25711FEF7E7FB0A4B1B68FB60FB
S315200018D0FB6823F0F803FB60FB79DB00FA6813430F
S315200018E0FB60044AFB6813601037BD4680BD00BF0D
S315200018F0D8D000200038024080B582B000AF034621
S31520001900FB71FB79002B07D0FB79012B04D005480E
S315200019104FF4BD71FEF7C0FB034AFB79136008370D
S31520001920BD4680BDD8D000200000474280B582B099
S3152000193000AF0346FB71FB79002B0AD0FB79012B04
S3152000194007D0FB79042B04D00D4840F29311FEF703
S31520001950A3FB0C4B00221A700A4B00221A70FB794B
S31520001960012B02D0042B04D007E0064B01221A706B
S3152000197003E0044B05221A7000BF0837BD4680BD20
S31520001980D8D000207038024080B582B000AF034620
S31520001990FB71FB79002B07D0FB79012B04D005487E
S315200019A040F2BB11FEF778FB034AFB791360083738
S315200019B0BD4680BDD8D00020800E474280B584B079
S315200019C000AFF860B9607A603B60FB68002B08D0F6
S315200019D0FB68B3F5800F04D0234840F21E21FEF7A2
S315200019E05BFBBB683F2B04D91F4840F21F21FEF743
S315200019F053FB7B68312B03D97B68B3F5D87F04D999
S31520001A0019484FF40871FEF747FB3B68022B0DD0AF
S31520001A103B68042B0AD03B68062B07D03B68082B73
S31520001A2004D0114840F22121FEF736FBBB69032B77
S31520001A3002D9BB690F2B04D90B4840F22221FEF7AD
S31520001A402BFB0A497B689A01BB681A433B685B08F3
S31520001A50013B1B041A43FB681A43BB691B0613434D
S31520001A604B601037BD4680BDD8D0002000380240DC
S31520001A7080B582B000AF0346FB71FB79002B07D0FF
S31520001A80FB79012B04D0054840F23621FEF704FBF2
S31520001A90034AFB7913600837BD4680BDD8D00020A5
S31520001AA06000474280B582B000AF786039607B68BD
S31520001AB0312B03D97B68B3F5D87F04D90D484FF471
S31520001AC01571FEF7E9FA3B68012B02D93B68072B13
S31520001AD004D9084840F25521FEF7DEFA06497B680C
S31520001AE09A013B681B071343C1F884300837BD466B
S31520001AF080BD00BFD8D000200038024080B582B01B
S31520001B0000AF0346FB71FB79002B07D0FB79012B35
S31520001B1004D0054840F2DF21FEF7BEFA034AFB79DE
S31520001B2013600837BD4680BDD8D0002068004742E4
S31520001B3080B584B000AFF860B9607A60FB68312B5D
S31520001B4003D9FB68B3F5D87F04D914484FF45371F1
S31520001B50FEF7A2FA7B68012B02D97B68072B04D9F2
S31520001B600E4840F24D31FEF797FABB68012B02D999
S31520001B70BB680F2B04D9094840F24E31FEF78CFA88
S31520001B800749FB689A01BB681B061A437B681B073B
S31520001B901343C1F888301037BD4680BDD8D0002009
S31520001BA00038024080B582B000AF0346FB71FB7956
S31520001BB0002B07D0FB79012B04D005484FF4587130
S31520001BC0FEF76AFA034AFB7913600837BD4680BDE3
S31520001BD0D8D000207000474280B582B000AF0346BF
S31520001BE0FB71FB79002B07D0FB79012B04D005482C
S31520001BF040F27231FEF750FA034AFB791360083738
S31520001C00BD4680BDD8D000204C00474280B584B068
S31520001C1000AF786039600023FB607B68002B10D012
S31520001C207B68B3F5001F0CD07B68B3F5800F08D016
S31520001C307B68B3F5C00F04D0174840F28D31FEF70C
S31520001C402BFA3B68002B14D03B68B3F1806F10D081
S31520001C503B68B3F1A06F0CD03B68B3F1C06F08D0DE
S31520001C603B68B3F1E06F04D00B4840F28E31FEF7AB
S31520001C7013FA0A4B9B68FB60FB6823F0EC63FB605E
S31520001C807A683B681343FA681343FB60034AFB6890
S31520001C9093601037BD4680BDD8D000200038024062
S31520001CA080B584B000AF786039600023FB607B6824
S31520001CB0002B10D07B68B3F1804F0CD07B68B3F13A
S31520001CC0004F08D07B68B3F1404F04D0174840F24C
S31520001CD0BA31FEF7E1F93B68002B14D03B68B3F12B
S31520001CE0005F10D03B68B3F1205F0CD03B68B3F1A6
S31520001CF0405F08D03B68B3F1605F04D00B4840F2E8
S31520001D00BB31FEF7C9F90A4B9B68FB60FB6823F0E1
S31520001D107843FB607A683B681343FA681343FB6099
S31520001D20034AFB6893601037BD4680BDD8D000209B
S31520001D300038024080B584B000AF78600023FB6095
S31520001D407B68002B0AD07B68012B07D07B68022B8F
S31520001D5004D00B4840F28241FEF79EF9094B9B685E
S31520001D60FB60FB6823F00303FB60FA687B68134380
S31520001D70FB60044AFB6893601037BD4680BD00BFF8
S31520001D80D8D000200038024080B400AF054B9B68B5
S31520001D90DBB203F00C03DBB21846BD465DF8047BCC
S31520001DA0704700BF0038024080B584B000AF78602D
S31520001DB00023FB607B68002B1CD07B68802B19D00E
S31520001DC07B68902B16D07B68A02B13D07B68B02B1A
S31520001DD010D07B68C02B0DD07B68D02B0AD07B68B7
S31520001DE0E02B07D07B68F02B04D00B484FF497618B
S31520001DF0FEF752F9094B9B68FB60FB6823F0F00362
S31520001E00FB60FA687B681343FB60044AFB689360B7
S31520001E101037BD4680BD00BFD8D000200038024014
S31520001E2080B584B000AF78600023FB607B68002B10
S31520001E3014D07B68B3F5805F10D07B68B3F5A05FC4
S31520001E400CD07B68B3F5C05F08D07B68B3F5E05F44
S31520001E5004D00B4840F2D741FEF71EF9094B9B6888
S31520001E60FB60FB6823F4E053FB60FA687B6813434E
S31520001E70FB60044AFB6893601037BD4680BD00BFF7
S31520001E80D8D000200038024080B584B000AF7860FA
S31520001E900023FB607B68002B14D07B68B3F5805F42
S31520001EA010D07B68B3F5A05F0CD07B68B3F5C05F1C
S31520001EB008D07B68B3F5E05F04D00B4840F2F641CA
S31520001EC0FEF7EAF8094B9B68FB60FB6823F4604346
S31520001ED0FB607B68DB00FA681343FB60034AFB6800
S31520001EE093601037BD4680BDD8D000200038024010
S31520001EF080B489B000AF78600023BB6100237B618A
S31520001F000023FB6102233B610023FB600223BB60AD
S31520001F10484B9B6803F00C03BB61BB69042B07D0BD
S31520001F20082B09D0002B3FD17B68434A1A603FE03B
S31520001F307B68424A1A603BE03E4B5B6803F48003B1
S31520001F409B0DFB603B4B5B6803F03F03BB60FB686C
S31520001F50002B0DD0394ABB68B2FBF3F2354B5968DA
S31520001F6047F6C0730B409B0903FB02F3FB610CE0B1
S31520001F70314ABB68B2FBF3F22E4B596847F6C07361
S31520001F800B409B0903FB02F3FB612A4B5B6803F4BE
S31520001F9040331B0C01335B003B61FA693B69B2FBA2
S31520001FA0F3F27B681A6003E07B68234A1A6000BF5D
S31520001FB0204B9B6803F0F003BB61BB691B09BB6127
S31520001FC01F4ABB6913441B78DBB27B617B681A68A6
S31520001FD07B69DA407B685A60164B9B6803F4E053B2
S31520001FE0BB61BB699B0ABB61154ABB6913441B785D
S31520001FF0DBB27B617B685A687B69DA407B689A60D2
S315200020000C4B9B6803F46043BB61BB695B0BBB61F4
S315200020100B4ABB6913441B78DBB27B617B685A6829
S315200020207B69DA407B68DA602437BD465DF8047B3D
S31520002030704700BF003802400024F40040787D013C
S3152000204010D0002080B584B000AF78600023FB60FC
S315200020507B68B3F5807F00F081807B68B3F5007FD5
S315200020607CD07B684F4A934278D07B684E4A934215
S3152000207074D07B684D4A934270D07B684C4A934219
S315200020806CD07B684B4A934268D07B684A4A93421D
S3152000209064D07B68494A934260D07B68484A934221
S315200020A05CD07B68474A934258D07B68464A934225
S315200020B054D07B68454A934250D07B68444A934229
S315200020C04CD07B68434A934248D07B68424A93422D
S315200020D044D07B68414A934240D07B68404A934231
S315200020E03CD07B683F4A934238D07B683E4A934235
S315200020F034D07B683D4A934230D07B683C4A934239
S315200021002CD07B683B4A934228D07B683A4A93423C
S3152000211024D07B68394A934220D07B68384A934240
S315200021201CD07B68374A934218D07B68364A934244
S3152000213014D07B68354A934210D07B68344A934248
S315200021400CD07B68334A934208D07B68324A93424C
S3152000215004D0324840F2C351FDF79EFF7B6803F45A
S315200021604073B3F5407F11D12D4B9B68FB60FB6814
S3152000217023F4F813FB607B6823F0704323F4407349
S31520002180FA681343FB60264AFB6893602449244B74
S315200021901A6F7B68C3F30B0313430B671037BD46D7
S315200021A080BD00BF000302000003030000030400FB
S315200021B000030500000306000003070000030800D3
S315200021C00003090000030A0000030B0000030C00B3
S315200021D000030D0000030E0000030F000003100093
S315200021E00003110000031200000313000003140073
S315200021F00003150000031600000317000003180053
S315200022000003190000031A0000031B0000031C0032
S3152000221000031D0000031E0000031F00D8D000206D
S315200022200038024080B582B000AF0346FB71FB79CF
S31520002230002B07D0FB79012B04D0054840F2E15151
S31520002240FDF72AFF034AFB7913600837BD4680BD98
S31520002250D8D000203C0E474280B582B000AF03465E
S31520002260FB71FB79002B07D0FB79012B04D00548A5
S3152000227040F2F251FDF710FF034AFB79136008374D
S31520002280BD4680BDD8D00020400E474280B582B0E2
S3152000229000AF78607B68002B07D07B68012B04D0C9
S315200022A0054840F26E61FDF7F7FE044A7B6813602D
S315200022B00837BD4680BD00BFD8D000205C0147420C
S315200022C080B584B000AF78600023FB607B68B3F5EF
S315200022D0801F0BD07B68002B08D07B68B3F5001FCE
S315200022E004D00C4840F28B61FDF7D6FE0A4BD3F89A
S315200022F08C30FB60FB6823F44013FB60FA687B6834
S315200023001343FB60044AFB68C2F88C301037BD4685
S3152000231080BD00BFD8D000200038024080B584B0F0
S3152000232000AF78600023FB607B68B3F5800F0BD08D
S315200023307B68002B08D07B68B3F5000F04D00C48CF
S3152000234040F2AF61FDF7A8FE0A4BD3F88C30FB6054
S31520002350FB6823F44003FB60FA687B681343FB6049
S31520002360044AFB68C2F88C301037BD4680BD00BFDA
S31520002370D8D000200038024080B584B000AF786005
S315200023800023FB607B68002B02D07B68202B04D9BE
S315200023900C484FF4DA61FDF77FFE0B4BD3F88C30F7
S315200023A0FB60FB6823F01F03FB607B68013BFA6838
S315200023B01343FB60044AFB68C2F88C301037BD46D5
S315200023C080BD00BFD8D000200038024080B584B040
S315200023D000AF78600023FB607B68002B02D07B680F
S315200023E0202B04D90C484FF4DE61FDF755FE0B4B2C
S315200023F0D3F88C30FB60FB6823F4F853FB607B68D2
S31520002400013B1B02FA681343FB60044AFB68C2F8CF
S315200024108C301037BD4680BDD8D000200038024011
S3152000242080B584B000AF78600023FB607B68002B0A
S3152000243010D07B68B3F5803F0CD07B68B3F5003FA6
S3152000244008D07B68B3F5403F04D00C4840F21471A5
S31520002450FDF722FE0A4BD3F88C30FB60FB6823F491
S315200024604033FB60FA687B681343FB60044AFB68D1
S31520002470C2F88C301037BD4680BD00BFD8D00020B2
S315200024800038024080B582B000AF78607B68002BB0
S3152000249007D07B68012B04D0054840F27371FDF705
S315200024A0FBFD044A7B6813600837BD4680BD00BF2C
S315200024B0D8D00020E011474280B582B000AF7860C6
S315200024C00B46FB707A68154B1340002B02D17B68B4
S315200024D0002B04D1124840F29D71FDF7DDFDFB78FB
S315200024E0002B07D0FB78012B04D00D4840F29F71BA
S315200024F0FDF7D2FDFB78002B06D00A49094B1A6B53
S315200025007B6813430B6306E00649064B1A6B7B6810
S31520002510DB4313400B630837BD4680BD00E80B0143
S31520002520D8D000200038024080B582B000AF786055
S315200025300B46FB707B6823F0F103002B02D17B68EE
S31520002540002B04D1114840F2BD71FDF7A5FDFB78A3
S31520002550002B07D0FB78012B04D00C4840F2BE712B
S31520002560FDF79AFDFB78002B06D00949084B5A6BDC
S315200025707B6813434B6306E00549054B5A6B7B6822
S31520002580DB4313404B630837BD4680BDD8D00020BF
S315200025900038024080B582B000AF78600B46FB70F1
S315200025A07B6823F00103002B02D17B68002B04D12A
S315200025B0114840F2DB71FDF76FFDFB78002B07D049
S315200025C0FB78012B04D00C4840F2DC71FDF764FD4A
S315200025D0FB78002B06D00949084B9A6B7B6813437E
S315200025E08B6306E00549054B9A6B7B68DB431340FA
S315200025F08B630837BD4680BDD8D000200038024006
S3152000260080B582B000AF78600B46FB707B6803F420
S315200026105853002B02D17B68002B04D1114840F679
S315200026201401FDF739FDFB78002B07D0FB78012B31
S3152000263004D00C4840F61501FDF72EFDFB78002B43
S3152000264006D00949084B1A6C7B6813430B6406E0D5
S315200026500549054B1A6C7B68DB4313400B6408372E
S31520002660BD4680BDD8D000200038024080B582B05B
S3152000267000AF78600B46FB707A68154B1340002B31
S3152000268002D17B68002B04D1124840F64401FDF7A5
S3152000269003FDFB78002B07D0FB78012B04D00D48D7
S315200026A040F64501FDF7F8FCFB78002B06D00A49D9
S315200026B0094B5A6C7B6813434B6406E00649064B6C
S315200026C05A6C7B68DB4313404B640837BD4680BD9C
S315200026D0CC8008F2D8D000200038024080B582B0E5
S315200026E000AF78600B46FB707A68154B1340002BC1
S315200026F002D17B68002B04D1124840F66F01FDF70A
S31520002700CBFCFB78002B07D0FB78012B04D00D489F
S315200027104FF40761FDF7C0FCFB78002B06D00A4971
S31520002720094B1A697B6813430B6106E00649064B81
S315200027301A697B68DB4313400B610837BD4680BDB1
S3152000274000E81F05D8D000200038024080B582B0AE
S3152000275000AF78600B46FB707B6823F0F103002BFB
S3152000276002D17B68002B04D1114840F68C01FDF77D
S3152000277093FCFB78002B07D0FB78012B04D00C4868
S3152000278040F68D01FDF788FCFB78002B06D0094921
S31520002790084B5A697B6813434B6106E00549054B94
S315200027A05A697B68DB4313404B610837BD4680BDC1
S315200027B0D8D000200038024080B582B000AF7860C3
S315200027C00B46FB707B6823F00103002B02D17B684C
S315200027D0002B04D1114840F6A701FDF75DFCFB78DC
S315200027E0002B07D0FB78012B04D00C4840F6A8011B
S315200027F0FDF752FCFB78002B06D00949084B9A6955
S315200028007B6813438B6106E00549054B9A697B6813
S31520002810DB4313408B610837BD4680BDD8D00020EE
S315200028200038024080B582B000AF78600B46FB705E
S315200028307B6803F45853002B02D17B68002B04D10C
S31520002840114840F6DD01FDF727FCFB78002B07D069
S31520002850FB78012B04D00C4840F6DE01FDF71CFC6A
S31520002860FB78002B06D00949084B1A6A7B6813436C
S315200028700B6206E00549054B1A6A7B68DB43134069
S315200028800B620837BD4680BDD8D0002000380240F4
S3152000289080B582B000AF78600B46FB707A68154B26
S315200028A01340002B02D17B68002B04D1124840F63E
S315200028B00811FDF7F1FBFB78002B07D0FB78012BE5
S315200028C004D00D4840F60911FDF7E6FBFB78002BF6
S315200028D006D00A49094B5A6A7B6813434B6206E0C5
S315200028E00649064B5A6A7B68DB4313404B6208371E
S315200028F0BD4680BDCC8608F2D8D0002000380240E4
S3152000290080B582B000AF78600B46FB707A68154BB5
S315200029101340002B02D17B68002B04D1124840F6CD
S315200029203911FDF7B9FBFB78002B07D0FB78012B7B
S3152000293004D00D4840F63A11FDF7AEFBFB78002B8C
S3152000294006D00A49094B1A6D7B6813430B6506E0CE
S315200029500649064B1A6D7B68DB4313400B65083727
S31520002960BD4680BD00681001D8D000200038024046
S3152000297080B582B000AF78600B46FB707B6823F091
S31520002980F103002B02D17B68002B04D1114840F6BD
S315200029905911FDF781FBFB78002B07D0FB78012B23
S315200029A004D00C4840F65A11FDF776FBFB78002B35
S315200029B006D00949084B5A6D7B6813434B6506E0E0
S315200029C00549054B5A6D7B68DB4313404B65083739
S315200029D0BD4680BDD8D000200038024080B582B0E8
S315200029E000AF78600B46FB707B6823F00103002B59
S315200029F002D17B68002B04D1114840F67711FDF7F0
S31520002A004BFBFB78002B07D0FB78012B04D00C481E
S31520002A1040F67811FDF740FBFB78002B06D00949DC
S31520002A20084B9A6D7B6813438B6506E00549054B79
S31520002A309A6D7B68DB4313408B650837BD4680BDA6
S31520002A40D8D000200038024080B582B000AF786030
S31520002A500B46FB707B6803F45853002B02D17B682E
S31520002A60002B04D111484FF41B61FDF715FBFB78B1
S31520002A70002B07D0FB78012B04D00C4840F6B1116F
S31520002A80FDF70AFBFB78002B06D00949084B1A6E86
S31520002A907B6813430B6606E00549054B1A6E7B6877
S31520002AA0DB4313400B660837BD4680BDD8D00020D7
S31520002AB00038024080B582B000AF78600B46FB70CC
S31520002AC07A68154B1340002B02D17B68002B04D16A
S31520002AD0124840F6DF11FDF7DFFAFB78002B07D00E
S31520002AE0FB78012B04D00D484FF41E61FDF7D4FA74
S31520002AF0FB78002B06D00A49094B5A6E7B68134394
S31520002B004B6606E00649064B5A6E7B68DB4313404C
S31520002B104B660837BD4680BDCC8008F2D8D0002051
S31520002B200038024080B582B000AF0346FB71FB79C6
S31520002B30002B07D0FB79012B04D00C4840F6F71167
S31520002B40FDF7AAFAFB79012B06D1094A084B1B6F20
S31520002B5043F00803136705E0054A054B1B6F23F076
S31520002B60080313670837BD4680BD00BFD8D00020B4
S31520002B700038024080B582B000AF03460A46FB719A
S31520002B801346BB71FB795BB2002B02DBFB79002B72
S31520002B9004D1144840F62F31FDF77EFABB79002B7D
S31520002BA007D0BB79012B04D00E484FF43361FDF7D3
S31520002BB073FABB79002B08D00B490B4B1B78DAB282
S31520002BC0FB791343DBB20B7009E00749064B1B78F0
S31520002BD0DAB2FB79DB43DBB21340DBB20B7008378A
S31520002BE0BD4680BDD8D000200D38024080B586B0C5
S31520002BF000AF0346FB710023FB6000237B610023AB
S31520002C00FB74FB79212B2BD0FB79312B28D0FB7938
S31520002C10392B25D0FB79412B22D0FB79612B1FD074
S31520002C20FB79792B1CD0FB797A2B19D0FB797B2B5E
S31520002C3016D0FB797C2B13D0FB797D2B10D0FB791A
S31520002C407E2B0DD0FB797F2B0AD0FB793B2B07D02F
S31520002C50FB793D2B04D0184840F65831FDF71CFA75
S31520002C60FB795B09DBB2FB60FB68012B03D1134BBD
S31520002C701B687B6109E0FB68022B03D10F4B1B6F9E
S31520002C807B6102E00D4B5B6F7B61FB7903F01F03D9
S31520002C90FB60FB687A6922FA03F303F00103002B39
S31520002CA002D00123FB7401E00023FB74FB7C184651
S31520002CB01837BD4680BD00BFD8D00020003802405E
S31520002CC080B400AF044A044B5B6F43F080735367B4
S31520002CD0BD465DF8047B70470038024080B584B05D
S31520002CE000AF0346FB710023FB73FB79012B19D040
S31520002CF0FB79022B16D0FB79042B13D0FB79082BFA
S31520002D0010D0FB79102B0DD0FB79802B0AD0FB79C4
S31520002D10402B07D0FB79202B04D00A4840F6973168
S31520002D20FDF7BAF9084BDA68FB791340002B02D07D
S31520002D300123FB7301E00023FB73FB7B184610374E
S31520002D40BD4680BDD8D000200038024080B582B074
S31520002D5000AF0346FB71FB79002B04D1054840F6F2
S31520002D60B731FDF799F9044AFB7913700837BD4648
S31520002D7080BD00BFD8D000200E38024080B582B07A
S31520002D8000AF78607B687D4A934237D07B68B3F189
S31520002D90804F33D07B687A4A93422FD07B68794A1A
S31520002DA093422BD07B68784A934227D07B68774A18
S31520002DB0934223D07B68764A93421FD07B68754A1C
S31520002DC093421BD07B68744A934217D07B68734A20
S31520002DD0934213D07B68724A93420FD07B68714A24
S31520002DE093420BD07B68704A934207D07B686F4A28
S31520002DF0934203D06E48CB21FDF74EF97B685F4A9C
S31520002E00934208D101200121FFF742FD0120002134
S31520002E10FFF73EFDAFE07B68B3F1804F08D101207C
S31520002E200121FFF7FFFC01200021FFF7FBFCA2E0B8
S31520002E307B68534A934208D102200121FFF7F2FC16
S31520002E4002200021FFF7EEFC95E07B684D4A934275
S31520002E5008D104200121FFF7E5FC04200021FFF71B
S31520002E60E1FC88E07B68484A934208D1082001218A
S31520002E70FFF7D8FC08200021FFF7D4FC7BE07B6815
S31520002E80424A934208D110200121FFF7CBFC1020A3
S31520002E900021FFF7C7FC6EE07B683D4A934208D1CC
S31520002EA020200121FFF7BEFC20200021FFF7BAFCDD
S31520002EB061E07B68374A934208D102200121FFF75F
S31520002EC0E7FC02200021FFF7E3FC54E07B68324A4E
S31520002ED093420AD14FF480300121FFF7D9FC4FF4F9
S31520002EE080300021FFF7D4FC45E07B682B4A9342D3
S31520002EF00AD14FF400300121FFF7CAFC4FF400300D
S31520002F000021FFF7C5FC36E07B68254A93420AD1AB
S31520002F104FF480200121FFF7BBFC4FF480200021D5
S31520002F20FFF7B6FC27E07B681E4A934208D1402073
S31520002F300121FFF777FC40200021FFF773FC1AE000
S31520002F407B68194A934208D180200121FFF76AFC49
S31520002F5080200021FFF766FC0DE07B68134A934230
S31520002F6009D14FF480700121FFF75CFC4FF480708B
S31520002F700021FFF757FC0837BD4680BD0000014001
S31520002F800004004000080040000C004000100040F3
S31520002F90001400400004014000400140004401406C
S31520002FA00048014000180040001C0040002000405E
S31520002FB010D1002080B584B000AF7860396000233E
S31520002FC0FB817B685D4A934238D07B68B3F1804FA2
S31520002FD034D07B685A4A934230D07B68594A934210
S31520002FE02CD07B68584A934228D07B68574A934214
S31520002FF024D07B68564A934220D07B68554A934218
S315200030001CD07B68544A934218D07B68534A93421B
S3152000301014D07B68524A934210D07B68514A93421F
S315200030200CD07B68504A934208D07B684F4A934223
S3152000303004D04F4840F22511FDF72EF83B685B88F7
S31520003040002B14D03B685B88102B10D03B685B8824
S31520003050202B0CD03B685B88402B08D03B685B88D4
S31520003060602B04D042484FF49371FDF715F83B6866
S315200030701B89002B0ED03B681B89B3F5807F09D0B6
S315200030803B681B89B3F5007F04D0394840F22711ED
S31520003090FDF702F87B681B88FB817B68274A9342F1
S315200030A013D07B682B4A93420FD07B68B3F1804FB5
S315200030B00BD07B68224A934207D07B68214A9342F1
S315200030C003D07B68204A934208D1FB8923F0700302
S315200030D0FB813B685A88FB891343FB817B681B4A2B
S315200030E093420CD07B681A4A934208D0FB8923F47A
S315200030F04073FB813B681A89FB891343FB817B68FC
S31520003100FA891A803B685A687B68DA623B681A88B3
S315200031107B681A857B68094A934203D07B680D4AEF
S31520003120934204D13B689B7A9AB27B681A867B6865
S3152000313001229A821037BD4680BD00BF00000140A3
S315200031400004004000080040000C00400010004031
S3152000315000140040000401400040014000440140AA
S315200031600048014000180040001C0040002000409C
S3152000317010D1002080B483B000AF78607B684FF018
S31520003180FF325A607B6800221A807B6800221A81EF
S315200031907B6800225A807B6800229A720C37BD46D3
S315200031A05DF8047B704700BF80B582B000AF7860C1
S315200031B00B467B8013463B807B68284A934238D057
S315200031C07B68B3F1804F34D07B68254A934230D058
S315200031D07B68244A93422CD07B68234A934228D08A
S315200031E07B68224A934224D07B68214A934220D08E
S315200031F07B68204A93421CD07B681F4A934218D092
S315200032007B681E4A934214D07B681D4A934210D095
S315200032107B681C4A93420CD07B681B4A934208D099
S315200032207B681A4A934204D0194840F26B11FCF786
S3152000323033FF3B88002B07D03B88012B04D0144852
S315200032404FF4B671FCF728FF7B687A881A857B686D
S315200032503A889A820837BD4680BD00BF00000140EB
S315200032600004004000080040000C00400010004010
S315200032700014004000040140004001400044014089
S315200032800048014000180040001C0040002000407B
S3152000329010D1002080B584B000AF78600B467B80CB
S315200032A00023FB817B68204A934218D07B68B3F1C8
S315200032B0804F14D07B681D4A934210D07B681C4AED
S315200032C093420CD07B681B4A934208D07B681A4AEB
S315200032D0934204D019484FF4C271FCF7DDFE7B8877
S315200032E0002B10D07B88102B0DD07B88202B0AD06A
S315200032F07B88402B07D07B88602B04D00F4840F278
S315200033008511FCF7C9FE7B681B88FB81FB8923F0AE
S315200033107003FB81FA897B881343FB817B68FA89DA
S315200033201A801037BD4680BD0000014000040040D1
S3152000333000080040000C00400004014010D100208D
S3152000334080B582B000AF786039607B68204A9342AE
S3152000335038D07B68B3F1804F34D07B681D4A9342C6
S3152000336030D07B681C4A93422CD07B681B4A934200
S3152000337028D07B681A4A934224D07B68194A934204
S3152000338020D07B68184A93421CD07B68174A934208
S3152000339018D07B68164A934214D07B68154A93420C
S315200033A010D07B68144A93420CD07B68134A934210
S315200033B008D07B68124A934204D012484FF4CE714B
S315200033C0FCF76AFE7B683A685A620837BD4680BDBC
S315200033D0000001400004004000080040000C0040AE
S315200033E0001000400014004000040140004001404D
S315200033F0004401400048014000180040001C0040E5
S315200034000020004010D1002080B582B000AF786047
S3152000341039607B68204A934238D07B68B3F1804F6D
S3152000342034D07B681D4A934230D07B681C4A934235
S315200034302CD07B681B4A934228D07B681A4A934239
S3152000344024D07B68194A934220D07B68184A93423D
S315200034501CD07B68174A934218D07B68164A934241
S3152000346014D07B68154A934210D07B68144A934245
S315200034700CD07B68134A934208D07B68124A934249
S3152000348004D0124840F2AB11FCF706FE7B683A687E
S31520003490DA620837BD4680BD0000014000040040C6
S315200034A000080040000C00400010004000140040BE
S315200034B00004014000400140004401400048014012
S315200034C000180040001C00400020004010D10020C1
S315200034D080B582B000AF78607B68214A934238D0AD
S315200034E07B68B3F1804F34D07B681E4A934230D03C
S315200034F07B681D4A93422CD07B681C4A934228D075
S315200035007B681B4A934224D07B681A4A934220D078
S315200035107B68194A93421CD07B68184A934218D07C
S315200035207B68174A934214D07B68164A934210D080
S315200035307B68154A93420CD07B68144A934208D084
S315200035407B68134A934204D0124840F2B911FCF723
S31520003550A3FD7B685B6A18460837BD4680BD00BF61
S31520003560000001400004004000080040000C00401C
S3152000357000100040001400400004014000400140BB
S31520003580004401400048014000180040001C004053
S315200035900020004010D1002080B582B000AF7860B6
S315200035A07B68214A934238D07B68B3F1804F34D070
S315200035B07B681E4A934230D07B681D4A93422CD0AA
S315200035C07B681C4A934228D07B681B4A934224D0AE
S315200035D07B681A4A934220D07B68194A93421CD0B2
S315200035E07B68184A934218D07B68174A934214D0B6
S315200035F07B68164A934210D07B68154A93420CD0BA
S315200036007B68144A934208D07B68134A934204D0BD
S31520003610124840F2C711FCF73FFD7B681B8D9BB219
S3152000362018460837BD4680BD000001400004004012
S3152000363000080040000C004000100040001400402C
S315200036400004014000400140004401400048014080
S3152000365000180040001C00400020004010D100202F
S3152000366080B582B000AF78600B46FB707B682F4A2E
S31520003670934238D07B68B3F1804F34D07B682C4A94
S31520003680934230D07B682B4A93422CD07B682A4ABF
S31520003690934228D07B68294A934224D07B68284AC3
S315200036A0934220D07B68274A93421CD07B68264AC7
S315200036B0934218D07B68254A934214D07B68244ACB
S315200036C0934210D07B68234A93420CD07B68224ACF
S315200036D0934208D07B68214A934204D0204840F286
S315200036E0D711FCF7D9FCFB78002B07D0FB78012BF0
S315200036F004D01B484FF4EC71FCF7CEFCFB78002B72
S3152000370008D07B681B889BB243F002039AB27B6881
S315200037101A8007E07B681B889BB223F002039AB2CB
S315200037207B681A800837BD4680BD00BF0000014077
S315200037300004004000080040000C0040001000403B
S3152000374000140040000401400040014000440140B4
S315200037500048014000180040001C004000200040A6
S3152000376010D1002080B582B000AF78600B467B80F8
S315200037707B682F4A934238D07B68B3F1804F34D090
S315200037807B682C4A934230D07B682B4A93422CD0BC
S315200037907B682A4A934228D07B68294A934224D0C0
S315200037A07B68284A934220D07B68274A93421CD0C4
S315200037B07B68264A934218D07B68254A934214D0C8
S315200037C07B68244A934210D07B68234A93420CD0CC
S315200037D07B68224A934208D07B68214A934204D0D0
S315200037E020484FF4FA71FCF757FC7B88002B07D052
S315200037F07B88012B04D01B4840F2F511FCF74CFCCA
S315200038007B88002B08D07B681B889BB243F004037F
S315200038109AB27B681A8007E07B681B889BB223F0EC
S3152000382004039AB27B681A800837BD4680BD00BF64
S31520003830000001400004004000080040000C004049
S3152000384000100040001400400004014000400140E8
S31520003850004401400048014000180040001C004080
S315200038600020004010D1002080B582B000AF7860E3
S315200038700B46FB707B682F4A934238D07B68B3F1A6
S31520003880804F34D07B682C4A934230D07B682B4AB9
S3152000389093422CD07B682A4A934228D07B68294AB7
S315200038A0934224D07B68284A934220D07B68274ABB
S315200038B093421CD07B68264A934218D07B68254ABF
S315200038C0934214D07B68244A934210D07B68234AC3
S315200038D093420CD07B68224A934208D07B68214AC7
S315200038E0934204D0204840F20D21FCF7D5FBFB780B
S315200038F0002B07D0FB78012B04D01B4840F20E2169
S31520003900FCF7CAFBFB78002B08D07B681B889BB290
S3152000391043F080039AB27B681A8007E07B681B8895
S315200039209BB223F080039AB27B681A800837BD4683
S3152000393080BD00BF00000140000400400008004098
S31520003940000C00400010004000140040000401401C
S31520003950004001400044014000480140001800405A
S31520003960001C00400020004010D1002080B582B00D
S3152000397000AF78600B467B807B682D4A934238D017
S315200039807B68B3F1804F34D07B682A4A934230D08B
S315200039907B68294A93422CD07B68284A934228D0B8
S315200039A07B68274A934224D07B68264A934220D0BC
S315200039B07B68254A93421CD07B68244A934218D0C0
S315200039C07B68234A934214D07B68224A934210D0C4
S315200039D07B68214A93420CD07B68204A934208D0C8
S315200039E07B681F4A934204D01E484FF40A71FCF7A5
S315200039F053FB7B88082B07D07B88002B04D01948E3
S31520003A0040F22921FCF748FB7B681B889BB223F0F8
S31520003A1008039AB27B681A807B681B889AB27B88D7
S31520003A2013439AB27B681A800837BD4680BD00BF13
S31520003A30000001400004004000080040000C004047
S31520003A4000100040001400400004014000400140E6
S31520003A50004401400048014000180040001C00407E
S31520003A600020004010D1002080B582B000AF7860E1
S31520003A700B467B807B682B4A934230D07B68B3F120
S31520003A80804F2CD07B68284A934228D07B68274ACF
S31520003A90934224D07B68264A934220D07B68254ACD
S31520003AA093421CD07B68244A934218D07B68234AD1
S31520003AB0934214D07B68224A934210D07B68214AD5
S31520003AC093420CD07B68204A934208D07B681F4AD9
S31520003AD0934204D01E4840F23F21FCF7DDFA7B8852
S31520003AE0002B0CD07B88B3F5807F08D07B88B3F57C
S31520003AF0007F04D016484FF41071FCF7CDFA7B688E
S31520003B001B889BB223F440739AB27B681A807B6829
S31520003B101B889AB27B8813439AB27B681A8008372F
S31520003B20BD4680BD00000140000400400008004062
S31520003B30000C0040000401400040014000440140C8
S31520003B400048014000180040001C004000200040B2
S31520003B5010D1002080B582B000AF78600B46FB7094
S31520003B607B682F4A934238D07B68B3F1804F34D09C
S31520003B707B682C4A934230D07B682B4A93422CD0C8
S31520003B807B682A4A934228D07B68294A934224D0CC
S31520003B907B68284A934220D07B68274A93421CD0D0
S31520003BA07B68264A934218D07B68254A934214D0D4
S31520003BB07B68244A934210D07B68234A93420CD0D8
S31520003BC07B68224A934208D07B68214A934204D0DC
S31520003BD0204840F25321FCF75FFAFB78002B07D0F0
S31520003BE0FB78012B04D01B484FF41571FCF754FACF
S31520003BF0FB78002B08D07B681B889BB243F001031F
S31520003C009AB27B681A8007E07B681B889BB223F0F8
S31520003C1001039AB27B681A800837BD4680BD00BF73
S31520003C20000001400004004000080040000C004055
S31520003C3000100040001400400004014000400140F4
S31520003C40004401400048014000180040001C00408C
S31520003C500020004010D1002080B584B000AF7860ED
S31520003C60396000237B810023FB810023BB817B6895
S31520003C70844A934230D07B68B3F1804F2CD07B6846
S31520003C80814A934228D07B68804A934224D07B681D
S31520003C907F4A934220D07B687E4A93421CD07B6821
S31520003CA07D4A934218D07B687C4A934214D07B6825
S31520003CB07B4A934210D07B687A4A93420CD07B6829
S31520003CC0794A934208D07B68784A934204D0784850
S31520003CD040F2A621FCF7E0F93B681B88002B18D0A0
S31520003CE03B681B88102B14D03B681B88202B10D0D8
S31520003CF03B681B88302B0CD03B681B88602B08D078
S31520003D003B681B88702B04D0694840F2A721FCF73A
S31520003D10C3F93B685B88002B08D03B685B88012B86
S31520003D2004D063484FF42A71FCF7B6F93B689B89A7
S31520003D30002B08D03B689B89022B04D05C4840F2BC
S31520003D40A921FCF7A9F97B681B8C9BB223F0010300
S31520003D509AB27B681A847B681B8CFB817B689B8864
S31520003D60BB817B681B8B7B817B8923F070037B81E6
S31520003D707B8923F003037B813B681A887B89134365
S31520003D807B81FB8923F00203FB813B689A89FB89AF
S31520003D901343FB813B685A88FB891343FB817B686D
S31520003DA0384A934203D07B683A4A934259D13B68BA
S31520003DB09B88002B08D03B689B88042B04D03C486A
S31520003DC040F2C621FCF768F93B68DB89002B08D056
S31520003DD03B68DB89082B04D0354840F2C721FCF725
S31520003DE05BF93B685B8AB3F5007F08D03B685B8A4A
S31520003DF0002B04D02E484FF43271FCF74DF93B6866
S31520003E001B8AB3F5807F08D03B681B8A002B04D021
S31520003E10274840F2C921FCF73FF9FB8923F0080324
S31520003E20FB813B68DA89FB891343FB81FB8923F0FD
S31520003E300403FB813B689A88FB891343FB81BB897A
S31520003E4023F48073BB81BB8923F40073BB813B6859
S31520003E501A8ABB891343BB813B685A8ABB891343A1
S31520003E60BB817B68BA899A807B687A891A833B688A
S31520003E709A687B685A637B68FA891A841037BD462C
S31520003E8080BD00BF00000140000400400008004043
S31520003E90000C004000040140004001400044014065
S31520003EA00048014000180040001C0040002000404F
S31520003EB010D1002080B584B000AF7860396000232F
S31520003EC07B810023FB810023BB817B68834A93424D
S31520003ED020D07B68B3F1804F1CD07B68804A934208
S31520003EE018D07B687F4A934214D07B687E4A9342DF
S31520003EF010D07B687D4A93420CD07B687C4A9342E3
S31520003F0008D07B687B4A934204D07B4840F2F72155
S31520003F10FCF7C2F83B681B88002B18D03B681B882F
S31520003F20102B14D03B681B88202B10D03B681B8895
S31520003F30302B0CD03B681B88602B08D03B681B8835
S31520003F40702B04D06C484FF43E71FCF7A5F83B6803
S31520003F505B88002B08D03B685B88012B04D0664821
S31520003F6040F2F921FCF798F83B689B89002B08D092
S31520003F703B689B89022B04D05F4840F2FA21FCF76C
S31520003F808BF87B681B8C9BB223F010039AB27B685C
S31520003F901A847B681B8CFB817B689B88BB817B6832
S31520003FA01B8B7B817B8923F4E0437B817B8923F4F4
S31520003FB040737B813B681B881B029AB27B89134323
S31520003FC07B81FB8923F02003FB813B689B891B01B6
S31520003FD09AB2FB891343FB813B685B881B019AB22B
S31520003FE0FB891343FB817B683C4A934203D07B6861
S31520003FF03E4A934261D13B689B88002B08D03B68A0
S315200040009B88042B04D03C484FF44671FCF744F8B7
S315200040103B68DB89002B08D03B68DB89082B04D062
S31520004020354840F21931FCF737F83B685B8AB3F51F
S31520004030007F08D03B685B8A002B04D02E4840F2D4
S315200040401A31FCF729F83B681B8AB3F5807F08D024
S315200040503B681B8A002B04D0274840F21B31FCF713
S315200040601BF8FB8923F08003FB813B68DB891B015E
S315200040709AB2FB891343FB81FB8923F04003FB8122
S315200040803B689B881B019AB2FB891343FB81BB8942
S3152000409023F48063BB81BB8923F40063BB813B6827
S315200040A01B8A9B009AB2BB891343BB813B685B8A00
S315200040B09B009AB2BB891343BB817B68BA899A80DD
S315200040C07B687A891A833B689A687B689A637B68DF
S315200040D0FA891A841037BD4680BD00BF0000014012
S315200040E00004004000080040000C0040000401408D
S315200040F0004001400018004010D1002080B584B057
S3152000410000AF7860396000237B810023FB81002388
S31520004110BB817B687E4A934218D07B68B3F1804F7F
S3152000412014D07B687B4A934210D07B687A4A9342AC
S315200041300CD07B68794A934208D07B68784A9342B0
S3152000414004D078484FF45271FBF7A6FF3B681B88D2
S31520004150002B18D03B681B88102B14D03B681B887B
S31520004160202B10D03B681B88302B0CD03B681B883B
S31520004170602B08D03B681B88702B04D0694840F21E
S315200041804931FBF789FF3B685B88002B08D03B68E9
S315200041905B88012B04D0634840F24A31FBF77CFF51
S315200041A03B689B89002B08D03B689B89022B04D057
S315200041B05C4840F24B31FBF76FFF7B681B8C9BB250
S315200041C023F480739AB27B681A847B681B8CFB81EC
S315200041D07B689B88BB817B689B8B7B817B8923F05B
S315200041E070037B817B8923F003037B813B681A88DC
S315200041F07B8913437B81FB8923F40073FB813B6816
S315200042009B891B029AB2FB891343FB813B685B881F
S315200042101B029AB2FB891343FB817B683C4A93427B
S3152000422003D07B683E4A934261D13B689B88002B32
S3152000423008D03B689B88042B04D03A484FF45A7127
S31520004240FBF72AFF3B68DB89002B08D03B68DB891C
S31520004250082B04D0334840F26931FBF71DFF3B6839
S315200042605B8AB3F5007F08D03B685B8A002B04D0BD
S315200042702C4840F26A31FBF70FFF3B681B8AB3F5E7
S31520004280807F08D03B681B8A002B04D0254840F24B
S315200042906B31FBF701FFFB8923F40063FB813B684D
S315200042A0DB891B029AB2FB891343FB81FB8923F42A
S315200042B08063FB813B689B881B029AB2FB89134370
S315200042C0FB81BB8923F48053BB81BB8923F4005334
S315200042D0BB813B681B8A1B019AB2BB891343BB81F6
S315200042E03B685B8A1B019AB2BB891343BB817B68FF
S315200042F0BA899A807B687A899A833B689A687B68B0
S31520004300DA637B68FA891A841037BD4680BD00BF00
S31520004310000001400004004000080040000C00405E
S315200043200004014010D1002080B584B000AF786031
S3152000433039600023BB8100237B810023FB817B68BE
S315200043405A4A934218D07B68B3F1804F14D07B68C9
S31520004350574A934210D07B68564A93420CD07B68CA
S31520004360554A934208D07B68544A934204D0544815
S315200043704FF46671FBF790FE3B681B88002B18D024
S315200043803B681B88102B14D03B681B88202B10D031
S315200043903B681B88302B0CD03B681B88602B08D0D1
S315200043A03B681B88702B04D0454840F29931FBF7B7
S315200043B073FE3B685B88002B08D03B685B88012B2B
S315200043C004D03F4840F29A31FBF766FE3B689B8952
S315200043D0002B08D03B689B89022B04D0384840F23A
S315200043E09B31FBF759FE7B681B8C9BB223F48053D1
S315200043F09AB27B681A847B681B8C7B817B689B883E
S31520004400FB817B689B8BBB81BB8923F4E043BB810B
S31520004410BB8923F44073BB813B681B881B029AB27D
S31520004420BB891343BB817B8923F400537B813B6883
S315200044309B891B039AB27B8913437B813B685B88EC
S315200044401B039AB27B8913437B817B68174A93426D
S3152000445003D07B68194A934218D13B681B8AB3F56F
S31520004460807F08D03B681B8A002B04D0144840F27A
S31520004470B931FBF711FEFB8923F48043FB813B68AE
S315200044801B8A9B019AB2FB891343FB817B68FA89BD
S315200044909A807B68BA899A833B689A687B681A6493
S315200044A07B687A891A841037BD4680BD000001409A
S315200044B00004004000080040000C004000040140B9
S315200044C010D1002080B483B000AF78607B680022D2
S315200044D01A807B6800225A807B6800229A807B683B
S315200044E000229A607B6800229A817B680022DA810A
S315200044F07B6800221A827B6800225A820C37BD46CE
S315200045005DF8047B704700BF80B584B000AF78604B
S315200045100B467B8013463B800023FB6000237B8178
S315200045207B68564A934230D07B68B3F1804F2CD0BB
S315200045307B68534A934228D07B68524A934224D0C0
S315200045407B68514A934220D07B68504A93421CD0C4
S315200045507B684F4A934218D07B684E4A934214D0C8
S315200045607B684D4A934210D07B684C4A93420CD0CC
S315200045707B684B4A934208D07B684A4A934204D0D0
S3152000458049484FF47F71FBF787FD7B88002B0DD0C0
S315200045907B88042B0AD07B88082B07D07B880C2BA2
S315200045A004D0414840F2FD31FBF776FD3B88002BD5
S315200045B019D03B88102B16D03B88202B13D03B8854
S315200045C0302B10D03B88602B0DD03B88702B0AD027
S315200045D03B88502B07D03B88402B04D0324840F2F2
S315200045E0FE31FBF759FD7B68FB60FB681833FB60E7
S315200045F07B88012202FA03F37B817B681B8C9AB2AB
S315200046007B89DB439BB213409AB27B681A847B88F2
S31520004610002B02D07B88082B14D17B885B089BB2A9
S315200046201A46FB681344FB60FA68FB6819684FF664
S315200046308F730B401360FB68FA6811683A880A4347
S315200046401A6017E07B88043B9BB25B089BB21A4634
S31520004650FB681344FB60FA68FB68196848F6FF7329
S315200046600B401360FB68FA6812683988090289B220
S315200046700A431A601037BD4680BD00BF00000140C6
S315200046800004004000080040000C004000040140E7
S31520004690004001400044014000480140001800400D
S315200046A0001C00400020004010D1002080B582B0C0
S315200046B000AF786039607B681C4A934230D07B68B3
S315200046C0B3F1804F2CD07B68194A934228D07B685F
S315200046D0184A934224D07B68174A934220D07B689D
S315200046E0164A93421CD07B68154A934218D07B68A1
S315200046F0144A934214D07B68134A934210D07B68A5
S31520004700124A93420CD07B68114A934208D07B68A8
S31520004710104A934204D0104840F22741FBF7BCFCD4
S315200047207B683A685A630837BD4680BD0000014061
S315200047300004004000080040000C00400004014036
S31520004740004001400044014000480140001800405C
S31520004750001C00400020004010D1002080B582B00F
S3152000476000AF786039607B68144A934220D07B681A
S31520004770B3F1804F1CD07B68114A934218D07B68D6
S31520004780104A934214D07B680F4A934210D07B681C
S315200047900E4A93420CD07B680D4A934208D07B6820
S315200047A00C4A934204D00C4840F23741FBF774FC84
S315200047B07B683A689A630837BD4680BD0000014091
S315200047C00004004000080040000C004000040140A6
S315200047D0004001400018004010D1002080B582B072
S315200047E000AF786039607B68104A934218D07B68A6
S315200047F0B3F1804F14D07B680D4A934210D07B686A
S315200048000C4A93420CD07B680B4A934208D07B68B3
S315200048100A4A934204D00A4840F24641FBF73CFC40
S315200048207B683A68DA630837BD4680BD00000140E0
S315200048300004004000080040000C00400004014035
S3152000484010D1002080B582B000AF786039607B68D7
S31520004850104A934218D07B68B3F1804F14D07B68FE
S315200048600D4A934210D07B680C4A93420CD07B6849
S315200048700B4A934208D07B680A4A934204D00A48DE
S3152000488040F25541FBF708FC7B683A681A64083702
S31520004890BD4680BD000001400004004000080040E5
S315200048A0000C00400004014010D1002080B584B0E7
S315200048B000AF78600B467B800023FB817B68284A0B
S315200048C0934230D07B68B3F1804F2CD07B68254A49
S315200048D0934228D07B68244A934224D07B68234A7B
S315200048E0934220D07B68224A93421CD07B68214A7F
S315200048F0934218D07B68204A934214D07B681F4A83
S31520004900934210D07B681E4A93420CD07B681D4A86
S31520004910934208D07B681C4A934204D01B4840F23D
S315200049206941FBF7B9FB7B88502B07D07B88402B4E
S3152000493004D0164840F26A41FBF7AEFB7B681B8B1E
S31520004940FB81FB8923F07003FB81FA897B88134363
S31520004950FB817B68FA891A831037BD4680BD00BF6C
S31520004960000001400004004000080040000C004008
S31520004970000401400040014000440140004801403D
S3152000498000180040001C00400020004010D10020EC
S3152000499080B584B000AF78600B467B800023FB8116
S315200049A07B68214A934220D07B68B3F1804F1CD08C
S315200049B07B681E4A934218D07B681D4A934214D0C6
S315200049C07B681C4A934210D07B681B4A93420CD0CA
S315200049D07B681A4A934208D07B68194A934204D0CE
S315200049E0184840F28641FBF757FB7B88502B07D0AF
S315200049F07B88402B04D0134840F28741FBF74CFBC1
S31520004A007B681B8BFB81FB8923F4E043FB817B883E
S31520004A101B029AB2FB891343FB817B68FA891A83AE
S31520004A201037BD4680BD00BF000001400004004095
S31520004A3000080040000C00400004014000400140F6
S31520004A400018004010D1002080B584B000AF7860F7
S31520004A500B467B800023FB817B681C4A934218D03F
S31520004A607B68B3F1804F14D07B68194A934210D0EB
S31520004A707B68184A93420CD07B68174A934208D029
S31520004A807B68164A934204D0154840F2A241FBF7B0
S31520004A9003FB7B88502B07D07B88402B04D0104803
S31520004AA040F2A341FBF7F8FA7B689B8BFB81FB89DD
S31520004AB023F07003FB81FA897B881343FB817B6893
S31520004AC0FA899A831037BD4680BD00BF0000014099
S31520004AD00004004000080040000C00400004014093
S31520004AE010D1002080B584B000AF78600B467B8063
S31520004AF00023FB817B681D4A934218D07B68B3F163
S31520004B00804F14D07B681A4A934210D07B68194A8A
S31520004B1093420CD07B68184A934208D07B68174A88
S31520004B20934204D0164840F2BF41FBF7B5FA7B8882
S31520004B30502B07D07B88402B04D011484FF4986126
S31520004B40FBF7AAFA7B689B8BFB81FB8923F4E04366
S31520004B50FB817B881B029AB2FB891343FB817B680E
S31520004B60FA899A831037BD4680BD00BF00000140F8
S31520004B700004004000080040000C004000040140F2
S31520004B8010D1002080B584B000AF78600B467B80C2
S31520004B900023FB817B68284A934230D07B68B3F19F
S31520004BA0804F2CD07B68254A934228D07B68244AA4
S31520004BB0934224D07B68234A934220D07B68224AA2
S31520004BC093421CD07B68214A934218D07B68204AA6
S31520004BD0934214D07B681F4A934210D07B681E4AAA
S31520004BE093420CD07B681D4A934208D07B681C4AAE
S31520004BF0934204D01B4840F2DB41FBF74DFA7B88F9
S31520004C00082B07D07B88002B04D0164840F2DC41C5
S31520004C10FBF742FA7B681B8BFB81FB8923F0080399
S31520004C20FB81FA897B881343FB817B68FA891A8387
S31520004C301037BD4680BD00BF000001400004004083
S31520004C4000080040000C00400004014000400140E4
S31520004C50004401400048014000180040001C00406C
S31520004C600020004010D1002080B584B000AF7860CD
S31520004C700B467B800023FB817B68214A934220D010
S31520004C807B68B3F1804F1CD07B681E4A934218D0B4
S31520004C907B681D4A934214D07B681C4A934210D0ED
S31520004CA07B681B4A93420CD07B681A4A934208D0F1
S31520004CB07B68194A934204D0184840F2F941FBF721
S31520004CC0EBF97B88082B07D07B88002B04D0134870
S31520004CD040F2FA41FBF7E0F97B681B8BFB81FB89ED
S31520004CE023F40063FB817B881B029AB2FB89134362
S31520004CF0FB817B68FA891A831037BD4680BD00BFC9
S31520004D00000001400004004000080040000C004064
S31520004D1000040140004001400018004010D100204E
S31520004D2080B584B000AF78600B467B800023FB8182
S31520004D307B681C4A934218D07B68B3F1804F14D00D
S31520004D407B68194A934210D07B68184A93420CD04C
S31520004D507B68174A934208D07B68164A934204D050
S31520004D60154840F21651FBF797F97B88082B07D098
S31520004D707B88002B04D0104840F21751FBF78CF9A2
S31520004D807B689B8BFB81FB8923F00803FB81FA89D7
S31520004D907B881343FB817B68FA899A831037BD464B
S31520004DA080BD00BF00000140000400400008004014
S31520004DB0000C00400004014010D1002080B584B0D2
S31520004DC000AF78600B467B800023FB817B681D4A01
S31520004DD0934218D07B68B3F1804F14D07B681A4A6F
S31520004DE0934210D07B68194A93420CD07B68184AAC
S31520004DF0934208D07B68174A934204D0164840F263
S31520004E003351FBF749F97B88082B07D07B88002B89
S31520004E1004D0114840F23451FBF73EF97B689B8B56
S31520004E20FB81FB8923F40063FB817B881B029AB2FA
S31520004E30FB891343FB817B68FA899A831037BD4629
S31520004E4080BD00BF00000140000400400008004073
S31520004E50000C00400004014010D1002080B584B031
S31520004E6000AF78600B467B800023FB817B68284A55
S31520004E70934230D07B68B3F1804F2CD07B68254A93
S31520004E80934228D07B68244A934224D07B68234AC5
S31520004E90934220D07B68224A93421CD07B68214AC9
S31520004EA0934218D07B68204A934214D07B681F4ACD
S31520004EB0934210D07B681E4A93420CD07B681D4AD1
S31520004EC0934208D07B681C4A934204D01B484FF477
S31520004ED0AA61FBF7E1F87B88042B07D07B88002B9F
S31520004EE004D0164840F25151FBF7D6F87B681B8B4D
S31520004EF0FB81FB8923F00403FB81FA897B8813431A
S31520004F00FB817B68FA891A831037BD4680BD00BFB6
S31520004F10000001400004004000080040000C004052
S31520004F200004014000400140004401400048014087
S31520004F3000180040001C00400020004010D1002036
S31520004F4080B584B000AF78600B467B800023FB8160
S31520004F507B68214A934220D07B68B3F1804F1CD0D6
S31520004F607B681E4A934218D07B681D4A934214D010
S31520004F707B681C4A934210D07B681B4A93420CD014
S31520004F807B681A4A934208D07B68194A934204D018
S31520004F90184840F26F51FBF77FF87B88042B07D027
S31520004FA07B88002B04D013484FF4AE61FBF774F8CE
S31520004FB07B681B8BFB81FB8923F48063FB817B88C9
S31520004FC01B029AB2FB891343FB817B68FA891A83F9
S31520004FD01037BD4680BD00BF0000014000040040E0
S31520004FE000080040000C0040000401400040014041
S31520004FF00018004010D1002080B584B000AF786042
S315200050000B467B800023FB817B681C4A934218D089
S315200050107B68B3F1804F14D07B68194A934210D035
S315200050207B68184A93420CD07B68174A934208D073
S315200050307B68164A934204D0154840F28D51FBF7FF
S315200050402BF87B88042B07D07B88002B04D01048B4
S3152000505040F28E51FBF720F87B689B8BFB81FB8906
S3152000506023F00403FB81FA897B881343FB817B6849
S31520005070FA899A831037BD4680BD00BF00000140E3
S315200050800004004000080040000C004000040140DD
S3152000509010D1002080B584B000AF78600B467B80AD
S315200050A00023FB817B681D4A934218D07B68B3F1AD
S315200050B0804F14D07B681A4A934210D07B68194AD5
S315200050C093420CD07B68184A934208D07B68174AD3
S315200050D0934204D0164840F2AB51FAF7DDFF7B88A5
S315200050E0042B07D07B88002B04D0114840F2AC510A
S315200050F0FAF7D2FF7B689B8BFB81FB8923F48063C5
S31520005100FB817B881B029AB2FB891343FB817B6858
S31520005110FA899A831037BD4680BD00BF0000014042
S315200051200004004000080040000C0040000401403C
S3152000513010D1002080B584B000AF78600B467B800C
S315200051400023FB817B68284A934230D07B68B3F1E9
S31520005150804F2CD07B68254A934228D07B68244AEE
S31520005160934224D07B68234A934220D07B68224AEC
S3152000517093421CD07B68214A934218D07B68204AF0
S31520005180934214D07B681F4A934210D07B681E4AF4
S3152000519093420CD07B681D4A934208D07B681C4AF8
S315200051A0934204D01B4840F2C951FAF775FF7B8819
S315200051B0802B07D07B88002B04D0164840F2CA519A
S315200051C0FAF76AFF7B681B8BFB81FB8923F0800340
S315200051D0FB81FA897B881343FB817B68FA891A83D2
S315200051E01037BD4680BD00BF0000014000040040CE
S315200051F000080040000C004000040140004001402F
S31520005200004401400048014000180040001C0040B6
S315200052100020004010D1002080B584B000AF786017
S315200052200B467B800023FB817B68214A934220D05A
S315200052307B68B3F1804F1CD07B681E4A934218D0FE
S315200052407B681D4A934214D07B681C4A934210D037
S315200052507B681B4A93420CD07B681A4A934208D03B
S315200052607B68194A934204D0184840F2E751FAF76E
S3152000527013FF7B88802B07D07B88002B04D0134814
S315200052804FF4BD61FAF708FF7B681B8BFB81FB8916
S31520005290C3F30E03FB817B881B029AB2FB8913435F
S315200052A0FB817B68FA891A831037BD4680BD00BF13
S315200052B0000001400004004000080040000C0040AF
S315200052C000040140004001400018004010D1002099
S315200052D080B584B000AF78600B467B800023FB81CD
S315200052E07B681C4A934218D07B68B3F1804F14D058
S315200052F07B68194A934210D07B68184A93420CD097
S315200053007B68174A934208D07B68164A934204D09A
S31520005310154840F20461FAF7BFFE7B88802B07D040
S315200053207B88002B04D0104840F20561FAF7B4FEC2
S315200053307B689B8BFB81FB8923F08003FB81FA89A9
S315200053407B881343FB817B68FA899A831037BD4695
S3152000535080BD00BF0000014000040040000800405E
S31520005360000C00400004014010D1002080B584B01C
S3152000537000AF78600B467B800023FB817B681D4A4B
S31520005380934218D07B68B3F1804F14D07B681A4AB9
S31520005390934210D07B68194A93420CD07B68184AF6
S315200053A0934208D07B68174A934204D0164840F2AD
S315200053B02161FAF771FE7B88802B07D07B88002B32
S315200053C004D0114840F22261FAF766FE7B689B8B77
S315200053D0FB81FB89C3F30E03FB817B881B029AB2F8
S315200053E0FB891343FB817B68FA899A831037BD4674
S315200053F080BD00BF000001400004004000080040BE
S31520005400000C00400004014010D1002080B584B07B
S3152000541000AF78600B467B800023FB817B68284A9F
S31520005420934230D07B68B3F1804F2CD07B68254ADD
S31520005430934228D07B68244A934224D07B68234A0F
S31520005440934220D07B68224A93421CD07B68214A13
S31520005450934218D07B68204A934214D07B681F4A17
S31520005460934210D07B681E4A93420CD07B681D4A1B
S31520005470934208D07B681C4A934204D01B4840F2D2
S315200054803E61FAF709FE7B88002B07D07B88022B2A
S3152000549004D0164840F23F61FAF7FEFD7B681B8C6C
S315200054A0FB81FB8923F00203FB81FA897B88134366
S315200054B0FB817B68FA891A841037BD4680BD00BF00
S315200054C0000001400004004000080040000C00409D
S315200054D000040140004001400044014000480140D2
S315200054E000180040001C00400020004010D1002081
S315200054F080B584B000AF78600B467B800023FB81AB
