S01200002E2F44656275672F62696C2E73313938
S315200000004FF44040C2F20100854600F0E3FAFEE7D5
S3152000001080B586B000AF0220012103F0F9FE1A4810
S315200000200B21072201F0BAFA4FF440633B61022309
S315200000303B750023BB750123FB7503237B7507F1F5
S3152000004010031148194600F009FD4FF480200121C4
S3152000005003F082FF4FF4E1333B600023BB810C2386
S315200000607B8100233B810023FB800023BB803B4612
S315200000700648194601F076FC0448012101F09AFE53
S315200000801837BD4680BD00BF00040240004800402E
S3152000009080B584B000AF0120012103F05DFF0C2361
S315200000A07B6002233B7203237B720023BB720123F6
S315200000B0FB723B1D3048194600F0D0FC2E48022129
S315200000C0012201F06BFA2C480321012201F066FA85
S315200000D02A4B1B689A092A4BA3FB02239B099BB236
S315200000E0013BFB81274B40F26C525A60254BFA8923
S315200000F01A80244B00221A81224B00225A804FF06C
S315200001008040204904F002FC1F4B60221A801E4BBF
S3152000011001225A801D4B1B881A461B4B9A601A4B8C
S3152000012000229A814FF08040174905F093FC4FF04A
S315200001308040082106F09EFA134B01225A80144B68
S315200001401B881A46104B9A604FF080400E4905F0E6
S3152000015097FD4FF08040082106F0DAFA4FF08040F4
S31520000160012105F02DF84FF08040012105F09EF980
S315200001701037BD4680BD00BF00000240349D0020E0
S31520000180632D3E05689E0020749E0020209D002041
S31520000190229D002080B582B000AF40233B60002323
S315200001A03B7103237B710023BB710123FB713B460B
S315200001B00348194600F052FC0837BD4680BD00BFF3
S315200001C00000024080B582B000AF0420012103F078
S315200001D01FFE4FF480733B6001233B7103237B7129
S315200001E00023BB710223FB713B460348194600F0EE
S315200001F035FC0837BD4680BD0008024080B483B078
S3152000020000AF786039600C37BD465DF8047B7047D7
S3152000021080B584B000AF02460B46FA71BB71FB79FC
S315200002209B01DAB2BB7903F03F03DBB21343DBB2A7
S31520000230FB73FB7B9BB20348194601F02FFF103757
S31520000240BD4680BD0048004080B400AF084B002268
S315200002501A6004E0064B1B685A1C054B1A60044BB7
S315200002601A68044B9A42F5DDBD465DF8047B70475B
S31520000270589E00209F86010080B500AF074B0022C4
S315200002801A6006E0FFF7E0FF044B1B685A1C034B7D
S315200002901A60024B1B68632BF4DD80BD589E00203C
S315200002A080B500AF0748084909F0E0FA074809F089
S315200002B0C7FA03460348194609F0ACFAFFF7C4FF0C
S315200002C0F4E700BF00100140489D00200048004090
S315200002D080B500AF0948002101F0B2F8022009F0EC
S315200002E0DBFC06484FF6FF7101F0AAF80A2009F058
S315200002F0D3FC0248002101F0A3F880BD000802408B
S3152000030080B483B000AF78607B68002B02DA7B680C
S315200003105B4200E07B6818460C37BD465DF8047BDF
S31520000320704700BF80B485B000AFF86087ED020A41
S31520000330C7ED010A97ED027AF7EE007AB4EEE77A76
S31520000340F1EE10FA02DD184BBB6009E0D7ED027A18
S31520000350F5EEC07AF1EE10FA02D84FF00003BB603A
S31520000360FB6807EE903AB8EEE77AF7EE006AD7ED2B
S31520000370027A76EEE77A27EE277AD7ED016AD7ED6D
S31520000380027A66EEA77A77EE277AC7ED017AD7ED5D
S31520000390017AFDEEE77A17EE903A18461437BD46F5
S315200003A05DF8047B704700BFA4707D3F80B582B0A6
S315200003B000AF00237B60FFF78BFF00BF264840215C
S315200003C000F0F8FC0346002BF8D005E07B680133EB
S315200003D07B60012009F060FC1F48402100F0EAFC08
S315200003E00346002BF2D11D4BD3ED007AF5EE407A71
S315200003F0F1EE10FA07D17B6807EE903AF8EE677AAD
S31520000400164BC3ED007A7B68144AD2ED007A184663
S315200004109FED130AF0EE670AFFF784FF38603B680A
S315200004209BB21048194609F037FA0E480E4909F0D2
S315200004301DFA0C480A2109F0EDF93B6807EE903ABF
S31520000440F8EEE77A054BC3ED007A3B689BB2184677
S315200004500837BD4680BD00BF000002405C9E0020DC
S315200004609A99193F00100140589D002080B582B00E
S3152000047000AF0346FB71FB79AD2B02D9B723FB7185
S3152000048004E0FB79772B01D87823FB71FB799AB2AC
S31520000490094B1A80084B1B881A46084B9A604FF066
S315200004A08040064905F0ECFB4FF08040012106F024
S315200004B02FF90837BD4680BD229D0020749E00205E
S315200004C080B582B000AF0346FB71FB79B72B02D90A
S315200004D0AD23FB7104E0FB796D2B01D86E23FB71F4
S315200004E0FB799AB2094B1A80084B1B881A46084B8F
S315200004F09A604FF08040064905F0ACFA4FF08040F4
S31520000500012106F0B7F80837BD4680BD209D0020A2
S31520000510749E002080B582B000AF2B4B4FF00002B6
S315200005201A602A4B01221A709720FFF79FFF8E2010
S31520000530FFF7C6FF082009F0DDFB9B20FFF7C0FF71
S315200005402348732109F066F902E03C2009F0BCFB40
S31520000550FFF72CFF03461A4641F658339A42F4D841
S31520000560FFF724FF03467B601948622109F052F900
S315200005707A6840F2B5339A4203D86E20FFF7A0FF7F
S3152000058018E07B68B3F5FA5F10D2104B1B78002B6E
S315200005900CD06E20FFF794FF4FF4167009F094FBF1
S315200005A09720FFF78DFF094B00221A703C2009F097
S315200005B08BFBD5E7052009F09DFB8E20FFF780FFFA
S315200005C00837BD4680BD00BF5C9E0020649E00208B
S315200005D00010014080B584B000AFFFF719FD4C48EC
S315200005E0692109F017F9FFF753FD4948702109F0F1
S315200005F011F90023FB736E23BB81FFF7E3FDFFF7A1
S31520000600C9FD4FF000024FF00003C7E9002341481F
S3152000061009F016F90346FB73FB7B002B56D0FB7BB8
S315200006209B09DBB2022B25D0032B45D0012B46D1CB
S31520000630FB7B9BB203F03F039AB2BB8913449BB268
S315200006400A339AB2344B1A80334B1B88962B06D921
S31520000650314B1B889F2B02D82F4B98221A802C486F
S315200006602E4909F003F92C4B1B882948194609F015
S3152000067013F92BE0FB7B9BB203F03F039AB2BB89B5
S3152000068013449AB2264B1A80254B1B88802B08D9F7
S31520000690234B1B88952B04D8214B95221A80FFF7D4
S315200006A0EBFD1B481F4909F0E1F81D4B1B88184834
S315200006B0194609F0F1F809E0FFF72CFF06E0184B80
S315200006C08E221A80144B8E221A80FFE7124B1B882B
S315200006D01A46154B9A604FF08040134905F0D0FA20
S315200006E04FF08040012106F013F80D4B1B881A4667
S315200006F00D4B9A604FF080400B4905F0ABF94FF057
S315200007008040012105F0B6FFFFF79EFD7FE700BF81
S315200007100010014000480040229D0020609D0020DE
S31520000720209D0020649D0020749E002080B582B00C
S3152000073000AF0346FB710A4BFA7992B21A8000BFCA
S31520000740084B1B8803F08003002BF9D0FB790A2B7A
S3152000075002D10D20FFF7EAFF0837BD4680BD00BF56
S31520000760041001400010014080B400AF074B1B88E5
S3152000077003F02003002B01D1002302E0044B1B8849
S31520000780DBB21846BD465DF8047B70470010014079
S315200007900410014080B500AF00BFFFF7E5FF034618
S315200007A0002BFAD0024B1B88DBB2184680BD00BF57
S315200007B00410014080B485B000AF78600023FB6050
S315200007C00023BB600FE0FA6813469B0013445B00CE
S315200007D01A46BB6879680B441B781344303BFB6090
S315200007E0BB680133BB60BB687A6813441B78002B57
S315200007F0E9D1FB6818461437BD465DF8047B70477F
S3152000080080B400AF0C4B00221A600C4B29221A60D0
S315200008100B4B00221A60084B05221A6000BF064BBC
S315200008201B6803F48033002BF9D0034B00221A6097
S31520000830BD465DF8047B704710E000E014E000E060
S3152000084018E000E080B584B000AF78600AE00023AD
S31520000850FB6004E0FFF7D4FFFB680133FB60FB6815
S31520000860032BF7DD7B685A1E7A60002BEFD11037F9
S31520000870BD4680BD80B582B000AF78607B684FF4FE
S315200008807A7202FB03F31846FFF7DCFF0837BD46F2
S3152000089080BD00BF80B582B000AF78607A68634BB8
S315200008A09A422BD07A68624B9A4227D07A68614B5B
S315200008B09A4223D07A68604B9A421FD07A685F4B5F
S315200008C09A421BD07A685E4B9A4217D07A685D4B63
S315200008D09A4213D07A685C4B9A420FD07A685B4B67
S315200008E09A420BD07A685A4B9A4207D07A68594B6B
S315200008F09A4203D058488221FFF780FC7A684B4BF6
S315200009009A4208D10120012103F094FB0120002105
S3152000091003F090FB86E07A68454B9A4208D1022084
S31520000920012103F087FB0220002103F083FB79E0FD
S315200009307A68404B9A4208D10420012103F07AFBC1
S315200009400420002103F076FB6CE07A683A4B9A4249
S3152000095008D10820012103F06DFB0820002103F0B7
S3152000096069FB5FE07A68354B9A4208D11020012155
S3152000097003F060FB1020002103F05CFB52E07A6854
S315200009802F4B9A4208D12020012103F053FB20202F
S31520000990002103F04FFB45E07A682A4B9A4208D1A2
S315200009A04020012103F046FB4020002103F042FBBA
S315200009B038E07A68244B9A4208D18020012103F03E
S315200009C039FB8020002103F035FB2BE07A681F4B92
S315200009D09A420AD14FF48070012103F02BFB4FF489
S315200009E08070002103F026FB1CE07A68184B9A429F
S315200009F00AD14FF40070012103F01CFB4FF4007064
S31520000A00002103F017FB0DE07A68124B9A4209D1B8
S31520000A104FF48060012103F00DFB4FF4806000212C
S31520000A2003F008FB0837BD4680BD00BF000002402A
S31520000A300004024000080240000C02400010024060
S31520000A400014024000180240001C02400020024010
S31520000A500024024000280240689D002080B586B010
S31520000A6000AF7860396000237B6100233B6100235F
S31520000A70FB607A687E4B9A422BD07A687D4B9A42ED
S31520000A8027D07A687C4B9A4223D07A687B4B9A424D
S31520000A901FD07A687A4B9A421BD07A68794B9A4251
S31520000AA017D07A68784B9A4213D07A68774B9A4255
S31520000AB00FD07A68764B9A420BD07A68754B9A4259
S31520000AC007D07A68744B9A4203D07448CF21FFF737
S31520000AD095FB3B681B689BB2002B03D16F48D02146
S31520000AE0FFF78CFB3B681B79002B0FD03B681B79EB
S31520000AF0012B0BD03B681B79022B07D03B681B7957
S31520000B00032B03D06548D121FFF778FB3B68DB79BF
S31520000B10002B0BD03B68DB79012B07D03B68DB79B8
S31520000B20022B03D05D48D221FFF768FB00237B61AF
S31520000B3097E07B69012202FA03F33B613B681A685E
S31520000B403B691340FB60FA683B699A4240F0868015
S31520000B507B681A687B695B00032101FA03F3DB4398
S31520000B601A407B681A607B681A683B681B791946AD
S31520000B707B695B0001FA03F31A437B681A603B68C2
S31520000B801B79012B03D03B681B79022B4ED13B6886
S31520000B905B79002B0FD03B685B79012B0BD03B6830
S31520000BA05B79022B07D03B685B79032B03D03B484C
S31520000BB0E421FFF723FB7B689A687B695B000321AE
S31520000BC001FA03F3DB431A407B689A607B689A68D4
S31520000BD03B685B7919467B695B0001FA03F31A438C
S31520000BE07B689A603B689B79002B07D03B689B7992
S31520000BF0012B03D02948EB21FFF700FB7B685A68BD
S31520000C007B699BB2012101FA03F3DB431A407B681F
S31520000C105A607B685A683B689B7919467B699BB208
S31520000C2001FA03F39BB21A437B685A607B68DA6841
S31520000C307B699BB25B00032101FA03F3DB431A4075
S31520000C407B68DA607B68DA683B68DB7919467B6902
S31520000C505B0001FA03F31A437B68DA607B69013390
S31520000C607B617B690F2B7FF664AF1837BD4680BD4D
S31520000C70000002400004024000080240000C02402E
S31520000C80001002400014024000180240001C0240DE
S31520000C90002002400024024000280240689D0020D7
S31520000CA080B483B000AF78607B684FF6FF721A601D
S31520000CB07B6800221A717B6800225A717B680022A9
S31520000CC09A717B680022DA710C37BD465DF8047B89
S31520000CD0704700BF80B584B000AF78600B467B803C
S31520000CE04FF48033FB607A68264B9A422CD07A6880
S31520000CF0254B9A4228D07A68244B9A4224D07A6887
S31520000D00234B9A4220D07A68224B9A421CD07A688A
S31520000D10214B9A4218D07A68204B9A4214D07A688E
S31520000D201F4B9A4210D07A681E4B9A420CD07A6892
S31520000D301D4B9A4208D07A681C4B9A4204D01C4814
S31520000D404FF48D71FFF75AFA7B88002B04D118488F
S31520000D5040F21B11FFF752FA7A88FB681343FB60B7
S31520000D60FA687B68DA617A887B68DA61FA687B6878
S31520000D70DA617B68DB69FB607B68DB69FB601037C7
S31520000D80BD4680BD0000024000040240000802402B
S31520000D90000C0240001002400014024000180240DD
S31520000DA0001C02400020024000240240002802408D
S31520000DB0689D002080B584B000AF78600B467B80AC
S31520000DC00023FB737A683E4B9A422CD07A683D4BBF
S31520000DD09A4228D07A683C4B9A4224D07A683B4B78
S31520000DE09A4220D07A683A4B9A421CD07A68394B7C
S31520000DF09A4218D07A68384B9A4214D07A68374B80
S31520000E009A4210D07A68364B9A420CD07A68354B83
S31520000E109A4208D07A68344B9A4204D033484FF429
S31520000E20A471FFF7EBF97B88012B39D07B88022B45
S31520000E3036D07B88042B33D07B88082B30D07B8818
S31520000E40102B2DD07B88202B2AD07B88402B27D097
S31520000E507B88802B24D07B88B3F5807F20D07B882D
S31520000E60B3F5007F1CD07B88B3F5806F18D07B88C4
S31520000E70B3F5006F14D07B88B3F5805F10D07B88E4
S31520000E80B3F5005F0CD07B88B3F5804F08D07B8804
S31520000E90B3F5004F04D0154840F24911FFF7AEF9DB
S31520000EA07B681A697B881340002B02D00123FB73D1
S31520000EB001E00023FB73FB7B18461037BD4680BD3F
S31520000EC0000002400004024000080240000C0240DC
S31520000ED0001002400014024000180240001C02408C
S31520000EE0002002400024024000280240689D002085
S31520000EF080B582B000AF78607A681B4B9A422CD0BE
S31520000F007A681A4B9A4228D07A68194B9A4224D08A
S31520000F107A68184B9A4220D07A68174B9A421CD08E
S31520000F207A68164B9A4218D07A68154B9A4214D092
S31520000F307A68144B9A4210D07A68134B9A420CD096
S31520000F407A68124B9A4208D07A68114B9A4204D09A
S31520000F5010484FF4B071FFF751F97B681B699BB2BB
S31520000F6018460837BD4680BD0000024000040240F6
S31520000F7000080240000C024000100240001402400B
S31520000F8000180240001C02400020024000240240BB
S31520000F9000280240689D002080B584B000AF7860AC
S31520000FA00B467B800023FB737A683E4B9A422CD0FB
S31520000FB07A683D4B9A4228D07A683C4B9A4224D094
S31520000FC07A683B4B9A4220D07A683A4B9A421CD098
S31520000FD07A68394B9A4218D07A68384B9A4214D09C
S31520000FE07A68374B9A4210D07A68364B9A420CD0A0
S31520000FF07A68354B9A4208D07A68344B9A4204D0A4
S31520001000334840F27311FFF7F9F87B88012B39D06A
S315200010107B88022B36D07B88042B33D07B88082B09
S3152000102030D07B88102B2DD07B88202B2AD07B8814
S31520001030402B27D07B88802B24D07B88B3F5807FDC
S3152000104020D07B88B3F5007F1CD07B88B3F5806FDA
S3152000105018D07B88B3F5006F14D07B88B3F5805FFA
S3152000106010D07B88B3F5005F0CD07B88B3F5804F1A
S3152000107008D07B88B3F5004F04D015484FF4BA71D9
S31520001080FFF7BCF87B685A697B881340002B02D097
S315200010900123FB7301E00023FB73FB7B184610370B
S315200010A0BD4680BD00000240000402400008024008
S315200010B0000C0240001002400014024000180240BA
S315200010C0001C02400020024000240240002802406A
S315200010D0689D002080B582B000AF78607A681B4B8F
S315200010E09A422CD07A681A4B9A4228D07A68194BA1
S315200010F09A4224D07A68184B9A4220D07A68174BA5
S315200011009A421CD07A68164B9A4218D07A68154BA8
S315200011109A4214D07A68144B9A4210D07A68134BAC
S315200011209A420CD07A68124B9A4208D07A68114BB0
S315200011309A4204D0104840F28B11FFF75FF87B6883
S315200011405B699BB218460837BD4680BD0000024049
S315200011500004024000080240000C02400010024039
S315200011600014024000180240001C024000200240E9
S315200011700024024000280240689D002080B582B0ED
S3152000118000AF78600B467B807A681F4B9A422CD042
S315200011907A681E4B9A4228D07A681D4B9A4224D0F0
S315200011A07A681C4B9A4220D07A681B4B9A421CD0F4
S315200011B07A681A4B9A4218D07A68194B9A4214D0F8
S315200011C07A68184B9A4210D07A68174B9A420CD0FC
S315200011D07A68164B9A4208D07A68154B9A4204D000
S315200011E0144840F29F11FFF709F87B88002B04D1A1
S315200011F010484FF4D071FFF701F87B687A881A837C
S315200012000837BD4680BD00BF0000024000040240F2
S3152000121000080240000C0240001002400014024068
S3152000122000180240001C0240002002400024024018
S3152000123000280240689D002080B582B000AF78600B
S315200012400B467B807A681F4B9A422CD07A681E4BBD
S315200012509A4228D07A681D4B9A4224D07A681C4B31
S315200012609A4220D07A681B4B9A421CD07A681A4B35
S315200012709A4218D07A68194B9A4214D07A68184B39
S315200012809A4210D07A68174B9A420CD07A68164B3D
S315200012909A4208D07A68154B9A4204D014484FF4E3
S315200012A0DA71FEF7ABFF7B88002B04D1104840F2A1
S315200012B0B511FEF7A3FF7B687A885A830837BD46A7
S315200012C080BD00BF0000024000040240000802402A
S315200012D0000C024000100240001402400018024098
S315200012E0001C024000200240002402400028024048
S315200012F0689D002080B582B000AF786013460A460C
S315200013007A807B707A68424B9A422CD07A68414B1D
S315200013109A4228D07A68404B9A4224D07A683F4B2A
S315200013209A4220D07A683E4B9A421CD07A683D4B2E
S315200013309A4218D07A683C4B9A4214D07A683B4B32
S315200013409A4210D07A683A4B9A420CD07A68394B36
S315200013509A4208D07A68384B9A4204D037484FF4DC
S31520001360E571FEF74BFF7B88012B39D07B88022B5A
S3152000137036D07B88042B33D07B88082B30D07B88D3
S31520001380102B2DD07B88202B2AD07B88402B27D052
S315200013907B88802B24D07B88B3F5807F20D07B88E8
S315200013A0B3F5007F1CD07B88B3F5806F18D07B887F
S315200013B0B3F5006F14D07B88B3F5805F10D07B889F
S315200013C0B3F5005F0CD07B88B3F5804F08D07B88BF
S315200013D0B3F5004F04D0194840F2CB11FEF70EFFAB
S315200013E07B78002B07D07B78012B04D013484FF451
S315200013F0E671FEF703FF7B78002B03D07B687A88A3
S315200014001A8302E07B687A885A830837BD4680BDF6
S31520001410000002400004024000080240000C024086
S31520001420001002400014024000180240001C024036
S31520001430002002400024024000280240689D00202F
S3152000144080B582B000AF78600B467B807A681B4BF4
S315200014509A422CD07A681A4B9A4228D07A68194B2D
S315200014609A4224D07A68184B9A4220D07A68174B31
S315200014709A421CD07A68164B9A4218D07A68154B35
S315200014809A4214D07A68144B9A4210D07A68134B39
S315200014909A420CD07A68124B9A4208D07A68114B3D
S315200014A09A4204D0104840F2E311FEF7A7FE7A884C
S315200014B07B685A610837BD4680BD00BF00000240E8
S315200014C00004024000080240000C024000100240C6
S315200014D00014024000180240001C02400020024076
S315200014E00024024000280240689D002080B582B07A
S315200014F000AF78600B467B807A681C4B9A422CD0D2
S315200015007A681B4B9A4228D07A681A4B9A4224D082
S315200015107A68194B9A4220D07A68184B9A421CD086
S315200015207A68174B9A4218D07A68164B9A4214D08A
S315200015307A68154B9A4210D07A68144B9A420CD08E
S315200015407A68134B9A4208D07A68124B9A4204D092
S31520001550114840F2F311FEF751FE7B685A697B88E9
S315200015605A407B685A610837BD4680BD000002405C
S315200015700004024000080240000C02400010024015
S315200015800014024000180240001C024000200240C5
S315200015900024024000280240689D002080B584B0C7
S315200015A000AF786013460A467A807B700023FB6082
S315200015B00023BB607A68874B9A422CD07A68864B88
S315200015C09A4228D07A68854B9A4224D07A68844BEE
S315200015D09A4220D07A68834B9A421CD07A68824BF2
S315200015E09A4218D07A68814B9A4214D07A68804BF6
S315200015F09A4210D07A687F4B9A420CD07A687E4BFA
S315200016009A4208D07A687D4B9A4204D07C4840F2B0
S315200016104921FEF7F3FD7B88002B31D07B88012BF7
S315200016202ED07B88022B2BD07B88032B28D07B883F
S31520001630042B25D07B88052B22D07B88062B1FD018
S315200016407B88072B1CD07B88082B19D07B88092BFD
S3152000165016D07B880A2B13D07B880B2B10D07B8847
S315200016600C2B0DD07B880D2B0AD07B880E2B07D018
S315200016707B880F2B04D0624840F24A21FEF7BEFD3C
S315200016807B78002B6DD07B78092B6AD07B78002B5A
S3152000169067D07B78002B64D07B78002B61D07B7859
S315200016A0002B5ED07B78012B5BD07B78012B58D02A
S315200016B07B78022B55D07B78022B52D07B78022B5D
S315200016C04FD07B78032B4CD07B78042B49D07B786A
S315200016D0042B46D07B78042B43D07B78052B40D037
S315200016E07B78052B3DD07B78092B3AD07B78062B4F
S315200016F037D07B78092B34D07B78072B31D07B7879
S31520001700072B2ED07B78072B2BD07B78082B28D045
S315200017107B78082B25D07B78082B22D07B78092B49
S315200017201FD07B78092B1CD07B780A2B19D07B788D
S315200017300A2B16D07B780B2B13D07B780C2B10D052
S315200017407B780C2B0DD07B780D2B0AD07B780F2B3A
S3152000175007D07B780C2B04D0294840F24B21FEF78A
S315200017604DFD7A787B8803F007039B0002FA03F38A
S31520001770FB607B88DB089BB21A467B88DB089BB222
S3152000178019467B68083153F821107B8803F007033C
S315200017909B000F2000FA03F3DB4319407B680832D5
S315200017A043F822107B88DB089BB21A467B680832F6
S315200017B053F82220FB681343BB607B88DB089BB26F
S315200017C01A467B680832B96843F822101037BD469E
S315200017D080BD00BF00000240000402400008024015
S315200017E0000C024000100240001402400018024083
S315200017F0001C024000200240002402400028024033
S31520001800689D002080B582B000AF78607A684C4B26
S315200018109A421FD07A684B4B9A421BD07A684A4B21
S315200018209A4217D07A68494B9A4213D07A68484B25
S315200018309A420FD07A68474B9A420BD07A68464B29
S315200018409A4207D07A68454B9A4203D04448BE2133
S31520001850FEF7D4FC7A683A4B9A4208D1102001212F
S3152000186002F0C2FC1020002102F0BEFC65E07A687E
S31520001870344B9A420AD14FF40030012102F07EFC0B
S315200018804FF40030002102F079FC56E07A682E4BA6
S315200018909A420AD14FF48020012102F06FFC4FF4C6
S315200018A08020002102F06AFC47E07A68274B9A42A2
S315200018B00AD14FF40020012102F060FC4FF40020F1
S315200018C0002102F05BFC38E07A68214B9A420AD16B
S315200018D04FF48010012102F051FC4FF480100021BA
S315200018E002F04CFC29E07A681A4B9A4208D1202053
S315200018F0012102F079FC2020002102F075FC1CE079
S315200019007A68154B9A420AD14FF08040012102F0A5
S3152000191035FC4FF08040002102F030FC0DE07A6863
S315200019200E4B9A4209D14FF00040012102F026FCCD
S315200019304FF00040002102F021FC0837BD4680BD53
S31520001940001001400044004000480040004C004088
S31520001950005000400014014000780040007C004008
S315200019609C9D002080B58AB000AF78603960002346
S315200019707B6200233B620023FB610023BB617A6804
S315200019809E4B9A421FD07A689D4B9A421BD07A680A
S315200019909C4B9A4217D07A689B4B9A4213D07A680E
S315200019A09A4B9A420FD07A68994B9A420BD07A6812
S315200019B0984B9A4207D07A68974B9A4203D0974819
S315200019C0FE21FEF71BFC3B681B68002B04D03B68FE
S315200019D01A68934B9A4203D99048FF21FEF70EFCD2
S315200019E03B689B88002B09D03B689B88B3F5805FBA
S315200019F004D08A484FF48071FEF700FC3B68DB88F0
S31520001A00002B13D03B68DB88B3F5805F0ED03B6894
S31520001A10DB88B3F5005F09D03B68DB88B3F5405F10
S31520001A2004D07E4840F20111FEF7E8FB3B681B8993
S31520001A30002B0ED03B681B89B3F5806F09D03B681D
S31520001A401B89B3F5C06F04D074484FF48171FEF73B
S31520001A50D5FB3B685B891A464FF6F3731340002B80
S31520001A6003D13B685B89002B04D16C4840F20311FB
S31520001A70FEF7C4FB3B689B89002B13D03B689B89F0
S31520001A80B3F5807F0ED03B689B89B3F5007F09D0E4
S31520001A903B689B89B3F5407F04D060484FF4827140
S31520001AA0FEF7ACFB3B689B89002B14D07A68534B1E
S31520001AB09A4210D07A68524B9A420CD07A68514B8F
S31520001AC09A4208D07A68524B9A4204D0534840F240
S31520001AD00911FEF793FB7B681B8A9BB27B627B6AAC
S31520001AE023F440537B623B68DB887A6A13437B622C
S31520001AF07B6A9AB27B681A827B689B899BB27B62DF
S31520001B007B6A23F4B05323F00C037B623B689A88EC
S31520001B103B681B8913439AB23B685B8913439BB28C
S31520001B207A6A13437B627B6A9AB27B689A817B6866
S31520001B309B8A9BB27B627B6A23F440737B623B6801
S31520001B409B897A6A13437B627B6A9AB27B689A8204
S31520001B5007F10803184601F077FE7A68274B9A4268
S31520001B6003D07A682A4B9A4202D17B693B6201E014
S31520001B703B693B627B689B899BB29BB21BB2002B65
S31520001B800CDA3A6A13469B0013449A001A443B68BF
S31520001B901B685B00B2FBF3F3FB610BE03A6A13466A
S31520001BA09B0013449A001A443B681B689B00B2FBB7
S31520001BB0F3F3FB61FA691B4BA3FB02235B091B01B1
S31520001BC07B627B6A1B09642202FB03F3FA69D31A40
S31520001BD0BB617B689B899BB29BB21BB2002B23DA2D
S31520001BE0BB69DB0003F132020E4BA3FB02235B0928
S31520001BF003F007037A6A13437B6222E00010014058
S31520001C000044004000480040004C00400050004086
S31520001C100014014000780040007C00409C9D00207C
S31520001C20E07072001F85EB51BB691B0103F1320284
S31520001C30074BA3FB02235B0903F00F037A6A1343C6
S31520001C407B627B6A9AB27B681A812837BD4680BD43
S31520001C501F85EB5180B483B000AF78607B684FF46A
S31520001C6016521A607B6800229A807B680022DA80EE
S31520001C707B6800221A817B680C225A817B680022AD
S31520001C809A810C37BD465DF8047B704780B584B0D9
S31520001C9000AF786039600023FB607A68354B9A4242
S31520001CA010D07A68344B9A420CD07A68334B9A42D9
S31520001CB008D07A68324B9A4204D0324840F27F11DB
S31520001CC0FEF79CFA3B681B88002B09D03B681B88D3
S31520001CD0B3F5006F04D02B484FF4C071FEF78EFA8F
S31520001CE03B685B88002B09D03B685B88B3F5806F27
S31520001CF004D0244840F28111FEF780FA3B689B8885
S31520001D00002B09D03B689B88B3F5007F04D01D4883
S31520001D104FF4C171FEF772FA3B68DB88002B09D0BD
S31520001D203B68DB88B3F5807F04D0164840F28311E8
S31520001D30FEF764FA7B681B8A9BB2FB60FB6823F480
S31520001D407063FB603B681A883B685B8813439AB2D2
S31520001D503B689B8813439AB23B68DB8813439BB24C
S31520001D60FA681343FB60FB689AB27B681A821037C5
S31520001D70BD4680BD001001400044004000480040A0
S31520001D80001401409C9D002080B483B000AF786091
S31520001D907B6800221A807B6800225A807B6800229A
S31520001DA09A807B680022DA800C37BD465DF8047B7A
S31520001DB0704700BF80B582B000AF78600B46FB70DD
S31520001DC07A68234B9A4220D07A68224B9A421CD0BA
S31520001DD07A68214B9A4218D07A68204B9A4214D0BE
S31520001DE07A681F4B9A4210D07A681E4B9A420CD0C2
S31520001DF07A681D4B9A4208D07A681C4B9A4204D0C6
S31520001E001B484FF4D771FEF7F9F9FB78002B07D062
S31520001E10FB78012B04D0164840F2AF11FEF7EEF9FD
S31520001E20FB78002B08D07B689B899BB243F4005338
S31520001E309AB27B689A8107E07B689B899BB223F4E0
S31520001E4000539AB27B689A810837BD4680BD00BF91
S31520001E50001001400044004000480040004C004073
S31520001E60005000400014014000780040007C0040F3
S31520001E709C9D002080B582B000AF78600B46FB7039
S31520001E807A681C4B9A4220D07A681B4B9A421CD007
S31520001E907A681A4B9A4218D07A68194B9A4214D00B
S31520001EA07A68184B9A4210D07A68174B9A420CD00F
S31520001EB07A68164B9A4208D07A68154B9A4204D013
S31520001EC014484FF4E471FEF799F97B681B8B9BB29B
S31520001ED023F0FF039AB27B681A837B681B8B9AB226
S31520001EE0FB789BB213439AB27B681A830837BD46A8
S31520001EF080BD00BF00100140004400400048004063
S31520001F00004C004000500040001401400078004082
S31520001F10007C00409C9D002080B582B000AF786098
S31520001F200B46FB707A68244B9A4220D07A68234B62
S31520001F309A421CD07A68224B9A4218D07A68214B52
S31520001F409A4214D07A68204B9A4210D07A681F4B56
S31520001F509A420CD07A681E4B9A4208D07A681D4B5A
S31520001F609A4204D01C4840F2DD11FEF747F9FB786F
S31520001F70002B07D0FB78012B04D017484FF4EF71C4
S31520001F80FEF73CF9FB78002B0AD07B689B899BB235
S31520001F906FEA43436FEA53439AB27B689A8107E01C
S31520001FA07B689B899BB2C3F30E039AB27B689A81A6
S31520001FB00837BD4680BD00BF0010014000440040E8
S31520001FC000480040004C00400050004000140140F2
S31520001FD000780040007C00409C9D002080B582B0A7
S31520001FE000AF78600B46FB707A68234B9A4220D06C
S31520001FF07A68224B9A421CD07A68214B9A4218D092
S315200020007A68204B9A4214D07A681F4B9A4210D095
S315200020107A681E4B9A420CD07A681D4B9A4208D099
S315200020207A681C4B9A4204D01B4840F2F711FEF7FF
S31520002030E5F8FB78002B07D0FB78012B04D0164857
S315200020404FF4FC71FEF7DAF8FB78002B08D07B689A
S315200020509B8A9BB243F400639AB27B689A8207E01C
S315200020607B689B8A9BB223F400639AB27B689A8230
S315200020700837BD4680BD00BF001001400044004027
S3152000208000480040004C0040005000400014014031
S3152000209000780040007C00409C9D002080B582B0E6
S315200020A000AF78600B467B807A681B4B9A4220D023
S315200020B07A681A4B9A421CD07A68194B9A4218D0E1
S315200020C07A68184B9A4214D07A68174B9A4210D0E5
S315200020D07A68164B9A420CD07A68154B9A4208D0E9
S315200020E07A68144B9A4204D013484FF40C71FEF7C9
S315200020F085F87B88B3F5007F04D30F4840F2312161
S31520002100FEF77CF87B88C3F308039AB27B689A8033
S315200021100837BD4680BD00BF001001400044004086
S3152000212000480040004C0040005000400014014090
S3152000213000780040007C00409C9D002080B582B045
S3152000214000AF78607A68174B9A4220D07A68164B8F
S315200021509A421CD07A68154B9A4218D07A68144B4A
S315200021609A4214D07A68134B9A4210D07A68124B4E
S315200021709A420CD07A68114B9A4208D07A68104B52
S315200021809A4204D00F484FF41071FEF737F87B6857
S315200021909B889BB2C3F308039BB218460837BD46FB
S315200021A080BD00BF001001400044004000480040B0
S315200021B0004C0040005000400014014000780040D0
S315200021C0007C00409C9D002080B582B000AF7860E6
S315200021D00B46FB707A68204B9A4220D07A681F4BB8
S315200021E09A421CD07A681E4B9A4218D07A681D4BA8
S315200021F09A4214D07A681C4B9A4210D07A681B4BAC
S315200022009A420CD07A681A4B9A4208D07A68194BAF
S315200022109A4204D018484FF41D71FDF7EFFFFB7862
S315200022200F2B04D9144840F27521FDF7E7FF7B6890
S315200022301B8A9BB223F00F039AB27B681A827B68B3
S315200022401B8A9AB2FB789BB213439AB27B681A8296
S315200022500837BD4680BD00BF001001400044004045
S3152000226000480040004C004000500040001401404F
S3152000227000780040007C00409C9D002080B582B004
S3152000228000AF78600B46FB707A68234B9A4220D0C9
S315200022907A68224B9A421CD07A68214B9A4218D0EF
S315200022A07A68204B9A4214D07A681F4B9A4210D0F3
S315200022B07A681E4B9A420CD07A681D4B9A4208D0F7
S315200022C07A681C4B9A4204D01B484FF42271FDF7C2
S315200022D095FFFB78002B07D0FB78012B04D01648FE
S315200022E040F28921FDF78AFFFB78002B08D07B6816
S315200022F09B899BB243F002039AB27B689A8107E0DE
S315200023007B689B899BB223F002039AB27B689A81F1
S315200023100837BD4680BD00BF001001400044004084
S3152000232000480040004C004000500040001401408E
S3152000233000780040007C00409C9D002080B582B043
S3152000234000AF78600B467B807A68214B9A4220D07A
S315200023507A68204B9A421CD07A681F4B9A4218D032
S315200023607A681E4B9A4214D07A681D4B9A4210D036
S315200023707A681C4B9A420CD07A681B4B9A4208D03A
S315200023807A681A4B9A4204D0194840F2A321FDF7E5
S3152000239035FF7B88002B08D07B88B3F5006F04D0EF
S315200023A013484FF42971FDF729FF7B689B899BB25F
S315200023B023F400639AB27B689A817B689B899AB2E0
S315200023C07B8813439AB27B689A810837BD4680BDC5
S315200023D0001001400044004000480040004C0040EE
S315200023E0005000400014014000780040007C00406E
S315200023F09C9D002080B582B000AF78600B467B8024
S315200024007A68214B9A4220D07A68204B9A421CD077
S315200024107A681F4B9A4218D07A681E4B9A4214D07B
S315200024207A681D4B9A4210D07A681C4B9A420CD07F
S315200024307A681B4B9A4208D07A681A4B9A4204D083
S3152000244019484FF43A71FDF7D9FE7B88002B07D047
S315200024507B88202B04D0144840F2E921FDF7CEFEDC
S315200024607B681B8A9BB223F020039AB27B681A8270
S315200024707B681B8A9AB27B8813439AB27B681A823E
S315200024800837BD4680BD00BF001001400044004013
S3152000249000480040004C004000500040001401401D
S315200024A000780040007C00409C9D002080B582B0D2
S315200024B000AF78600B46FB707A68234B9A4220D097
S315200024C07A68224B9A421CD07A68214B9A4218D0BD
S315200024D07A68204B9A4214D07A681F4B9A4210D0C1
S315200024E07A681E4B9A420CD07A681D4B9A4208D0C5
S315200024F07A681C4B9A4204D01B4840F2FA21FDF719
S315200025007DFEFB78002B07D0FB78012B04D01648E4
S3152000251040F2FB21FDF772FEFB78002B08D07B688A
S315200025201B8A9BB243F480439AB27B681A8207E0E7
S315200025307B681B8A9BB223F480439AB27B681A82FB
S315200025400837BD4680BD00BF001001400044004052
S3152000255000480040004C004000500040001401405C
S3152000256000780040007C00409C9D002080B582B011
S3152000257000AF78607A68174B9A4220D07A68164B5B
S315200025809A421CD07A68154B9A4218D07A68144B16
S315200025909A4214D07A68134B9A4210D07A68124B1A
S315200025A09A420CD07A68114B9A4208D07A68104B1E
S315200025B09A4204D00F4840F21231FDF71FFE7B6885
S315200025C09B899BB243F001039AB27B689A810837B4
S315200025D0BD4680BD00100140004400400048004038
S315200025E0004C00400050004000140140007800409C
S315200025F0007C00409C9D002080B582B000AF7860B2
S315200026000B46FB707A68234B9A4220D07A68224B7D
S315200026109A421CD07A68214B9A4218D07A68204B6D
S315200026209A4214D07A681F4B9A4210D07A681E4B71
S315200026309A420CD07A681D4B9A4208D07A681C4B75
S315200026409A4204D01B4840F24731FDF7D7FDFB786C
S31520002650002B07D0FB78012B04D016484FF452717B
S31520002660FDF7CCFDFB78002B08D07B689B8A9BB2BC
S3152000267043F008039AB27B689A8207E07B689B8ABC
S315200026809BB223F008039AB27B689A820837BD462C
S3152000269080BD00BF001001400044004000480040BB
S315200026A0004C0040005000400014014000780040DB
S315200026B0007C00409C9D002080B582B000AF7860F1
S315200026C00B46FB707A68144B9A4210D07A68134BEB
S315200026D09A420CD07A68124B9A4208D07A68114BEB
S315200026E09A4204D0104840F29B31FDF787FD7B6863
S315200026F01B8B9BB2DBB29AB27B681A837B681B8BDF
S315200027009AB2FB789BB21B029BB213439AB27B68A8
S315200027101A830837BD4680BD0010014000440040A2
S3152000272000480040001401409C9D002080B582B0E6
S3152000273000AF78600B46FB707A681B4B9A4210D02C
S315200027407A681A4B9A420CD07A68194B9A4208D06A
S315200027507A68184B9A4204D0174840F2AE31FDF7FA
S315200027604DFDFB78002B07D0FB78012B04D01248B7
S3152000277040F2AF31FDF742FDFB78002B08D07B6895
S315200027809B8A9BB243F020039AB27B689A8207E029
S315200027907B689B8A9BB223F020039AB27B689A823D
S315200027A00837BD4680BD00BF0010014000440040F0
S315200027B000480040001401409C9D002080B582B056
S315200027C000AF78600B46FB707A681B4B9A4210D09C
S315200027D07A681A4B9A420CD07A68194B9A4208D0DA
S315200027E07A68184B9A4204D0174840F2C731FDF751
S315200027F005FDFB78002B07D0FB78012B04D012486F
S315200028004FF47271FDF7FAFCFB78002B08D07B6839
S315200028109B8A9BB243F010039AB27B689A8207E0A8
S315200028207B689B8A9BB223F010039AB27B689A82BC
S315200028300837BD4680BD00BF00100140004400405F
S3152000284000480040001401409C9D002080B582B0C5
S3152000285000AF78600B467B807A68214B9A4220D065
S315200028607A68204B9A421CD07A681F4B9A4218D01D
S315200028707A681E4B9A4214D07A681D4B9A4210D021
S315200028807A681C4B9A420CD07A681B4B9A4208D025
S315200028907A681A4B9A4204D0194840F20E41FDF745
S315200028A0ADFC7B88042B07D07B88002B04D01448F2
S315200028B040F20F41FDF7A2FC7B689B8A9BB223F076
S315200028C004039AB27B689A827B689B8A9AB27B8839
S315200028D013439AB27B689A820837BD4680BD00BFF3
S315200028E0001001400044004000480040004C0040D9
S315200028F0005000400014014000780040007C004059
S315200029009C9D002080B582B000AF78600B46FB709E
S315200029107A68234B9A4220D07A68224B9A421CD05E
S315200029207A68214B9A4218D07A68204B9A4214D062
S315200029307A681F4B9A4210D07A681E4B9A420CD066
S315200029407A681D4B9A4208D07A681C4B9A4204D06A
S315200029501B484FF48461FDF751FCFB78002B07D010
S31520002960FB78012B04D0164840F22141FDF746FCA6
S31520002970FB78002B08D07B689B8A9BB243F002032E
S315200029809AB27B689A8207E07B689B8A9BB223F087
S3152000299002039AB27B689A820837BD4680BD00BF83
S315200029A0001001400044004000480040004C004018
S315200029B0005000400014014000780040007C004098
S315200029C09C9D002080B582B000AF786013460A46F1
S315200029D07A807B707A682B4B9A4220D07A682A4B71
S315200029E09A421CD07A68294B9A4218D07A68284B8A
S315200029F09A4214D07A68274B9A4210D07A68264B8E
S31520002A009A420CD07A68254B9A4208D07A68244B91
S31520002A109A4204D0234840F24E41FDF7EFFB7A88D4
S31520002A204FF63F731340002B02D17B88002B04D135
S31520002A301C4840F24F41FDF7E1FB7B78002B07D085
S31520002A407B78012B04D017484FF48A61FDF7D6FB1B
S31520002A507B78002B08D07B689B8A9AB27B881343AD
S31520002A609AB27B689A8209E07B689B8A9AB27B88B5
S31520002A70DB439BB213409AB27B689A820837BD46E5
S31520002A8080BD00BF001001400044004000480040C7
S31520002A90004C0040005000400014014000780040E7
S31520002AA0007C00409C9D002080B586B000AF7860F9
S31520002AB013460A467A807B7000233B610023FB6025
S31520002AC00023BB6000237B617A68534B9A4220D057
S31520002AD07A68524B9A421CD07A68514B9A4218D047
S31520002AE07A68504B9A4214D07A684F4B9A4210D04B
S31520002AF07A684E4B9A420CD07A684D4B9A4208D04F
S31520002B007A684C4B9A4204D04B4840F2D441FDF7A8
S31520002B1075FB7B88282B25D07A8840F227739A422A
S31520002B2020D07A8840F226639A421BD07A8840F2D7
S31520002B3025539A4216D07A8840F224439A4211D0DD
S31520002B407A8840F646039A420CD07A8840F66A1371
S31520002B509A4207D07B88602B04D0374840F2D54173
S31520002B60FDF74CFB7B78002B07D07B78012B04D01C
S31520002B70314840F2D641FDF741FB7A8840F66A1388
S31520002B809A4214D17A68244B9A4210D07A68234B01
S31520002B909A420CD07A68224B9A4208D07A68234B04
S31520002BA09A4204D0244840F2DB41FDF727FB7B689C
S31520002BB07B617B88DBB25B09DBB23B617B8803F000
S31520002BC01F03FB60FB68012202FA03F3BB603B692B
S31520002BD0012B03D17B690C337B6109E03B69022B16
S31520002BE003D17B6910337B6102E07B6914337B61FF
S31520002BF07B78002B06D07B697A691168BA680A430C
S31520002C001A6006E07B697A691168BA68D2430A407D
S31520002C101A601837BD4680BD0010014000440040B0
S31520002C2000480040004C0040005000400014014085
S31520002C3000780040007C00409C9D002080B584B038
S31520002C4000AF78600B467B800023FB737A683A4B93
S31520002C509A4220D07A68394B9A421CD07A68384BEF
S31520002C609A4218D07A68374B9A4214D07A68364BF3
S31520002C709A4210D07A68354B9A420CD07A68344BF7
S31520002C809A4208D07A68334B9A4204D0324840F2AE
S31520002C901351FDF7B3FA7B88012B21D07B88802B3B
S31520002CA01ED07B88402B1BD07B88202B18D07B887E
S31520002CB0102B15D07B88B3F5807F11D07B88B3F598
S31520002CC0007F0DD07B88082B0AD07B88042B07D069
S31520002CD07B88022B04D0204840F21451FDF78EFA4F
S31520002CE07B88B3F5007F14D17A68134B9A4210D0B3
S31520002CF07A68124B9A420CD07A68114B9A4208D0C5
S31520002D007A68124B9A4204D0134840F21951FDF7C3
S31520002D1075FA7B681B889AB27B8813409BB2002B7E
S31520002D2002D00123FB7301E00023FB73FB7B1846D3
S31520002D301037BD4680BD00BF001001400044004052
S31520002D4000480040004C0040005000400014014064
S31520002D5000780040007C00409C9D002080B582B019
S31520002D6000AF78600B467B807A682A4B9A4220D047
S31520002D707A68294B9A421CD07A68284B9A4218D0F6
S31520002D807A68274B9A4214D07A68264B9A4210D0FA
S31520002D907A68254B9A420CD07A68244B9A4208D0FE
S31520002DA07A68234B9A4204D0224840F24351FDF7D9
S31520002DB025FA7A884FF69F431340002B02D17B8851
S31520002DC0002B04D11B4840F24451FDF717FA7B88AB
S31520002DD003F40073002B14D07A680E4B9A4210D05D
S31520002DE07A680D4B9A420CD07A680C4B9A4208D0DE
S31520002DF07A680D4B9A4204D00E4840F24951FDF7AD
S31520002E00FDF97B88DB439AB27B681A800837BD467A
S31520002E1080BD00BF00100140004400400048004033
S31520002E20004C004000500040001401400078004053
S31520002E30007C00409C9D002080B586B000AF786065
S31520002E400B467B800023FB6000237B610023BB6055
S31520002E500023FB747A68604B9A4220D07A685F4BD5
S31520002E609A421CD07A685E4B9A4218D07A685D4B9B
S31520002E709A4214D07A685C4B9A4210D07A685B4B9F
S31520002E809A420CD07A685A4B9A4208D07A68594BA3
S31520002E909A4204D0584840F26751FDF7AFF97B8833
S31520002EA0282B37D07A8840F227739A4232D07A88F4
S31520002EB040F226639A422DD07A8840F225539A42D0
S31520002EC028D07A8840F224439A4223D07A8840F642
S31520002ED046039A421ED07A8840F66A139A4219D03F
S31520002EE07B88B3F5587F15D07A8840F225339A42ED
S31520002EF010D07B88B3F5587F0CD07B88B3F5187F2C
S31520002F0008D07B88B3F5B07F04D03B484FF4AD6141
S31520002F10FDF774F97A8840F66A139A4214D17A68D2
S31520002F202D4B9A4210D07A682C4B9A420CD07A6854
S31520002F302B4B9A4208D07A682C4B9A4204D02E48C2
S31520002F4040F26D51FDF75AF97B88DBB25B09DBB2A3
S31520002F50BB607B8803F01F037B617B69012202FA39
S31520002F6003F37B61BB68012B06D17B689B899BB2EF
S31520002F707A6913407B610FE0BB68022B06D17B6820
S31520002F801B8A9BB27A6913407B6105E07B689B8A2A
S31520002F909BB27A6913407B617B881B0A9BB2FB60DC
S31520002FA0FB68012202FA03F3FB607B681B889BB255
S31520002FB0FA681340FB607B69002B05D0FB68002B69
S31520002FC002D00123FB7401E00023FB74FB7C18462E
S31520002FD01837BD4680BD00BF0010014000440040A8
S31520002FE000480040004C00400050004000140140C2
S31520002FF000780040007C00409C9D002080B584B075
S3152000300000AF78600B467B800023FB810023BB81C9
S315200030107A68334B9A4220D07A68324B9A421CD037
S315200030207A68314B9A4218D07A68304B9A4214D03B
S315200030307A682F4B9A4210D07A682E4B9A420CD03F
S315200030407A682D4B9A4208D07A682C4B9A4204D043
S315200030502B484FF4B661FDF7D1F87A8840F2266303
S315200030609A4213D07A8840F225539A420ED07A8813
S3152000307040F646039A4209D07A8840F66A139A4265
S3152000308004D01F4840F2B151FDF7B8F87A8840F6CF
S315200030906A139A4214D17A68114B9A4210D07A68F0
S315200030A0104B9A420CD07A680F4B9A4208D07A6815
S315200030B0104B9A4204D0124840F2B651FDF79EF8C2
S315200030C07B881B0AFB81FB89012202FA03F3BB8161
S315200030D0BB89DB439AB27B681A801037BD4680BD18
S315200030E0001001400044004000480040004C0040D1
S315200030F0005000400014014000780040007C004051
S315200031009C9D002080B400AF164B164A126842F0F0
S3152000311001021A60134B00229A60124A114B1B6857
S3152000312023F0A85323F4102313600E4B0E4A5A6043
S315200031300C4B0E4AC3F884200A4B0D4AC3F888204C
S31520003140084B084A126822F480221A60054B002296
S31520003150DA60044B0022C3F88C20BD465DF8047B60
S31520003160704700BF00380240103000240030002095
S315200031700030002480B582B000AF0346FB71FB7996
S31520003180002B0AD0FB79012B07D0FB79052B04D025
S31520003190064840F21F11FDF731F8054B00221A7040
S315200031A0034BFA791A700837BD4680BDD09D0020A2
S315200031B00238024080B582B000AF00233B60002376
S315200031C0FB710023BB71312001F0BCF90346BB71B2
S315200031D03B6801333B603B68B3F5A04F02D0BB7917
S315200031E0002BF0D0312001F0ADF90346002B02D0A0
S315200031F00123FB7101E00023FB71FB791846083798
S31520003200BD4680BD80B584B000AF0346FB71002368
S31520003210FB60FB791F2B04D90B4840F25711FCF7B2
S31520003220EDFF0A4B1B68FB60FB6823F0F803FB608D
S31520003230FB79DB00FA681343FB60044BFA681A60DB
S315200032401037BD4680BD00BFD09D0020003802400B
S3152000325080B582B000AF0346FB71FB79002B07D007
S31520003260FB79012B04D005484FF4BD71FCF7C6FF4E
S31520003270034BFA791A600837BD4680BDD09D0020E1
S315200032800000474280B582B000AF0346FB71FB7950
S31520003290002B0AD0FB79012B07D0FB79042B04D015
S315200032A00D4840F29311FCF7A9FF0C4B00221A702F
S315200032B00A4B00221A70FB79012B02D0042B04D072
S315200032C007E0064B01221A7003E0044B05221A7010
S315200032D000BF0837BD4680BDD09D00207038024013
S315200032E080B582B000AF0346FB71FB79002B07D077
S315200032F0FB79012B04D0054840F2BB11FCF77EFF79
S31520003300034BFA791A600837BD4680BDD09D002050
S31520003310800E474280B584B000AFF860B9607A600D
S315200033203B60FB68002B08D0FB68B3F5800F04D008
S31520003330234840F21E21FCF761FFBB683F2B04D9CE
S315200033401F4840F21F21FCF759FF7B68312B03D918
S315200033507B68B3F5D87F04D919484FF40871FCF778
S315200033604DFF3B68022B0DD03B68042B0AD03B68EF
S31520003370062B07D03B68082B04D0114840F22121A8
S31520003380FCF73CFFBB69032B02D9BB690F2B04D981
S315200033900B4840F22221FCF731FF0A4B7A68910153
S315200033A0BA6811433A685208013A12041143FA687E
S315200033B01143BA6912060A435A601037BD4680BDCA
S315200033C0D09D00200038024080B582B000AF034671
S315200033D0FB71FB79002B07D0FB79012B04D0054824
S315200033E040F23621FCF70AFF034BFA791A600837B8
S315200033F0BD4680BDD09D00206000474280B582B08A
S3152000340000AF786039607B68312B03D97B68B3F5D0
S31520003410D87F04D90D484FF41571FCF7EFFE3B68B1
S31520003420012B02D93B68072B04D9084840F25521C5
S31520003430FCF7E4FE064B7A6891013A6812070A43C4
S31520003440C3F884200837BD4680BD00BFD09D00202C
S315200034500038024080B582B000AF0346FB71FB798D
S31520003460002B07D0FB79012B04D0054840F2DF2141
S31520003470FCF7C4FE034BFA791A600837BD4680BDB7
S31520003480D09D00206800474280B584B000AFF86028
S31520003490B9607A60FB68312B03D9FB68B3F5D87F16
S315200034A004D914484FF45371FCF7A8FE7B68012B0E
S315200034B002D97B68072B04D90E4840F24D31FCF720
S315200034C09DFEBB68012B02D9BB680F2B04D9094886
S315200034D040F24E31FCF792FE074BFA689101BA682A
S315200034E0120611437A6812070A43C3F88820103758
S315200034F0BD4680BDD09D00200038024080B582B0F8
S3152000350000AF0346FB71FB79002B07D0FB79012B1B
S3152000351004D005484FF45871FCF770FE034BFA7936
S315200035201A600837BD4680BDD09D002070004742F6
S3152000353080B582B000AF0346FB71FB79002B07D024
S31520003540FB79012B04D0054840F27231FCF756FE78
S31520003550034BFA791A600837BD4680BDD09D0020FE
S315200035604C00474280B584B000AF786039600023B4
S31520003570FB607B68002B10D07B68B3F5001F0CD056
S315200035807B68B3F5800F08D07B68B3F5C00F04D0F5
S31520003590174840F28D31FCF731FE3B68002B14D0E2
S315200035A03B68B3F1806F10D03B68B3F1A06F0CD0AD
S315200035B03B68B3F1C06F08D03B68B3F1E06F04D02D
S315200035C00B4840F28E31FCF719FE0A4B9B68FB60D4
S315200035D0FB6823F0EC63FB607A683B681343FA6868
S315200035E01343FB60034BFA689A601037BD4680BDD3
S315200035F0D09D00200038024080B584B000AF7860AE
S3152000360039600023FB607B68002B10D07B68B3F108
S31520003610804F0CD07B68B3F1004F08D07B68B3F1A4
S31520003620404F04D0174840F2BA31FCF7E7FD3B681B
S31520003630002B14D03B68B3F1005F10D03B68B3F188
S31520003640205F0CD03B68B3F1405F08D03B68B3F1F4
S31520003650605F04D00B4840F2BB31FCF7CFFD0A4B2C
S315200036609B68FB60FB6823F07843FB607A683B68C5
S315200036701343FA681343FB60034BFA689A601037CA
S31520003680BD4680BDD09D00200038024080B584B064
S3152000369000AF78600023FB607B68002B0AD07B6834
S315200036A0012B07D07B68022B04D00B4840F28241C5
S315200036B0FCF7A4FD094B9B68FB60FB6823F0030322
S315200036C0FB60FA687B681343FB60044BFA689A60D8
S315200036D01037BD4680BD00BFD09D00200038024077
S315200036E080B400AF054B9B68DBB203F00C03DBB262
S315200036F01846BD465DF8047B704700BF003802407F
S3152000370080B584B000AF78600023FB607B68002B17
S315200037101CD07B68802B19D07B68902B16D07B68B9
S31520003720A02B13D07B68B02B10D07B68C02B0DD07C
S315200037307B68D02B0AD07B68E02B07D07B68F02BE8
S3152000374004D00B484FF49761FCF758FD094B9B6852
S31520003750FB60FB6823F0F003FB60FA687B68134389
S31520003760FB60044BFA689A601037BD4680BD00BFE7
S31520003770D09D00200038024080B584B000AF78602C
S315200037800023FB607B68002B14D07B68B3F5805F39
S3152000379010D07B68B3F5A05F0CD07B68B3F5C05F13
S315200037A008D07B68B3F5E05F04D00B4840F2D741E0
S315200037B0FCF724FD094B9B68FB60FB6823F4E05370
S315200037C0FB60FA687B681343FB60044BFA689A60D7
S315200037D01037BD4680BD00BFD09D00200038024076
S315200037E080B584B000AF78600023FB607B68002B37
S315200037F014D07B68B3F5805F10D07B68B3F5A05FEB
S315200038000CD07B68B3F5C05F08D07B68B3F5E05F6A
S3152000381004D00B4840F2F641FCF7F0FC094B9B68BC
S31520003820FB60FB6823F46043FB607B68DB00FA687F
S315200038301343FB60034BFA689A601037BD4680BD80
S31520003840D09D00200038024080B489B000AF786057
S315200038500023BB6100237B610023FB6102233B61C4
S315200038600023FB600223BB60484B9B6803F00C03DC
S31520003870BB61BB69042B07D0082B09D0002B3FD195
S315200038807B68434A1A603FE07B68424A1A603BE005
S315200038903E4B5B6803F480039B0DFB603B4B5B68F0
S315200038A003F03F03BB60FB68002B0DD0394ABB6891
S315200038B0B2FBF3F2354B596847F6C0730B409B09B0
S315200038C003FB02F3FB610CE0314ABB68B2FBF3F267
S315200038D02E4B596847F6C0730B409B0903FB02F336
S315200038E0FB612A4B5B6803F440331B0C01335B00FE
S315200038F03B61FA693B69B2FBF3F27B681A6003E02D
S315200039007B68234A1A6000BF204B9B6803F0F003B4
S31520003910BB61BB691B09BB611F4ABB6913441B788A
S31520003920DBB27B617B681A687B69DA407B685A6008
S31520003930164B9B6803F4E053BB61BB699B0ABB61D2
S31520003940154ABB6913441B78DBB27B617B685A68D6
S315200039507B69DA407B689A600C4B9B6803F4604372
S31520003960BB61BB695B0BBB610B4ABB6913441B780C
S31520003970DBB27B617B685A687B69DA407B68DA60F8
S315200039802437BD465DF8047B704700BF00380240EF
S315200039900024F40040787D01249D002080B584B069
S315200039A000AF78600023FB607B68B3F5807F00F072
S315200039B081807B68B3F5007F7CD07A684F4B9A4232
S315200039C078D07A684E4B9A4274D07A684D4B9A4298
S315200039D070D07A684C4B9A426CD07A684B4B9A429C
S315200039E068D07A684A4B9A4264D07A68494B9A42A0
S315200039F060D07A68484B9A425CD07A68474B9A42A4
S31520003A0058D07A68464B9A4254D07A68454B9A42A7
S31520003A1050D07A68444B9A424CD07A68434B9A42AB
S31520003A2048D07A68424B9A4244D07A68414B9A42AF
S31520003A3040D07A68404B9A423CD07A683F4B9A42B3
S31520003A4038D07A683E4B9A4234D07A683D4B9A42B7
S31520003A5030D07A683C4B9A422CD07A683B4B9A42BB
S31520003A6028D07A683A4B9A4224D07A68394B9A42BF
S31520003A7020D07A68384B9A421CD07A68374B9A42C3
S31520003A8018D07A68364B9A4214D07A68354B9A42C7
S31520003A9010D07A68344B9A420CD07A68334B9A42CB
S31520003AA008D07A68324B9A4204D0324840F2C35149
S31520003AB0FCF7A4FB7B6803F44073B3F5407F11D178
S31520003AC02D4B9B68FB60FB6823F4F813FB607B6837
S31520003AD023F0704323F44073FA681343FB60264BAC
S31520003AE0FA689A60244B244A116F7A68C2F30B0253
S31520003AF00A431A671037BD4680BD00BF0003020087
S31520003B000003030000030400000305000003060071
S31520003B1000030700000308000003090000030A0051
S31520003B2000030B0000030C0000030D0000030E0031
S31520003B3000030F0000031000000311000003120011
S31520003B4000031300000314000003150000031600F1
S31520003B5000031700000318000003190000031A00D1
S31520003B6000031B0000031C0000031D0000031E00B1
S31520003B7000031F00D09D00200038024080B582B08F
S31520003B8000AF0346FB71FB79002B07D0FB79012B95
S31520003B9004D0054840F2E151FCF730FB034BFA799B
S31520003BA01A600837BD4680BDD09D00203C0E474296
S31520003BB080B582B000AF0346FB71FB79002B07D09E
S31520003BC0FB79012B04D0054840F2F251FCF716FB95
S31520003BD0034BFA791A600837BD4680BDD09D002078
S31520003BE0400E474280B582B000AF78607B68002BDC
S31520003BF007D07B68012B04D0054840F26E61FCF7A4
S31520003C00FDFA044B7A681A600837BD4680BD00BFAE
S31520003C10D09D00205C01474280B584B000AF78601B
S31520003C200023FB607B68B3F5801F0BD07B68002BDD
S31520003C3008D07B68B3F5001F04D00C4840F28B6196
S31520003C40FCF7DCFA0A4BD3F88C30FB60FB6823F4D4
S31520003C504013FB60FA687B681343FB60044BFA68E9
S31520003C60C3F88C201037BD4680BD00BFD09D0020F4
S31520003C700038024080B584B000AF78600023FB6036
S31520003C807B68B3F5800F0BD07B68002B08D07B6850
S31520003C90B3F5000F04D00C4840F2AF61FCF7AEFA42
S31520003CA00A4BD3F88C30FB60FB6823F44003FB609F
S31520003CB0FA687B681343FB60044BFA68C3F88C20D0
S31520003CC01037BD4680BD00BFD09D00200038024081
S31520003CD080B584B000AF78600023FB607B68002B42
S31520003CE002D07B68202B04D90C484FF4DA61FCF70C
S31520003CF085FA0B4BD3F88C30FB60FB6823F01F034F
S31520003D00FB607B68013BFA681343FB60044BFA684F
S31520003D10C3F88C201037BD4680BD00BFD09D002043
S31520003D200038024080B584B000AF78600023FB6085
S31520003D307B68002B02D07B68202B04D90C484FF4DB
S31520003D40DE61FCF75BFA0B4BD3F88C30FB60FB682B
S31520003D5023F4F853FB607B68013B1B02FA6813438C
S31520003D60FB60044BFA68C3F88C201037BD4680BD33
S31520003D70D09D00200038024080B584B000AF786026
S31520003D800023FB607B68002B10D07B68B3F5803F57
S31520003D900CD07B68B3F5003F08D07B68B3F5403F75
S31520003DA004D00C4840F21471FCF728FA0A4BD3F8D9
S31520003DB08C30FB60FB6823F44033FB60FA687B6839
S31520003DC01343FB60044BFA68C3F88C201037BD46BA
S31520003DD080BD00BFD09D00200038024080B582B053
S31520003DE000AF78607B68002B07D07B68012B04D05E
S31520003DF0054840F27371FCF701FA044B7A681A60A1
S31520003E000837BD4680BD00BFD09D0020E011474247
S31520003E1080B582B000AF78600B46FB707A68154B90
S31520003E201340002B02D17B68002B04D1124840F2AC
S31520003E309D71FCF7E3F9FB78002B07D0FB78012B6B
S31520003E4004D00D4840F29F71FCF7D8F9FB78002B7F
S31520003E5006D00A4B094A116B7A680A431A6306E0B0
S31520003E60064B064A116B7A68D2430A401A63083712
S31520003E70BD4680BD00E80B01D09D002000380240E1
S31520003E8080B582B000AF78600B46FB707B6823F06C
S31520003E90F103002B02D17B68002B04D1114840F29C
S31520003EA0BD71FCF7ABF9FB78002B07D0FB78012B13
S31520003EB004D00C4840F2BE71FCF7A0F9FB78002B29
S31520003EC006D0094B084A516B7A680A435A6306E0C2
S31520003ED0054B054A516B7A68D2430A405A63083724
S31520003EE0BD4680BDD09D00200038024080B582B0FE
S31520003EF000AF78600B46FB707B6823F00103002B34
S31520003F0002D17B68002B04D1114840F2DB71FCF70B
S31520003F1075F9FB78002B07D0FB78012B04D00C48D1
S31520003F2040F2DC71FCF76AF9FB78002B06D0094BCE
S31520003F30084A916B7A680A439A6306E0054B054A5C
S31520003F40916B7A68D2430A409A630837BD4680BD92
S31520003F50D09D00200038024080B582B000AF786046
S31520003F600B46FB707B6803F45853002B02D17B6809
S31520003F70002B04D1114840F61401FCF73FF9FB78D9
S31520003F80002B07D0FB78012B04D00C4840F61501F6
S31520003F90FCF734F9FB78002B06D0094B084A116C44
S31520003FA07A680A431A6406E0054B054A116C7A685A
S31520003FB0D2430A401A640837BD4680BDD09D0020F2
S31520003FC00038024080B582B000AF78600B46FB70A7
S31520003FD07A68154B1340002B02D17B68002B04D145
S31520003FE0124840F64401FCF709F9FB78002B07D06C
S31520003FF0FB78012B04D00D4840F64501FCF7FEF86E
S31520004000FB78002B06D00A4B094A516C7A680A4382
S315200040105A6406E0064B064A516C7A68D2430A4037
S315200040205A640837BD4680BDCC8008F2D09D00205A
S315200040300038024080B582B000AF78600B46FB7036
S315200040407A68154B1340002B02D17B68002B04D1D4
S31520004050124840F66F01FCF7D1F8FB78002B07D009
S31520004060FB78012B04D00D484FF40761FCF7C6F806
S31520004070FB78002B06D00A4B094A11697A680A4355
S315200040801A6106E0064B064A11697A68D2430A404D
S315200040901A610837BD4680BD00E81F05D09D002067
S315200040A00038024080B582B000AF78600B46FB70C6
S315200040B07B6823F0F103002B02D17B68002B04D10F
S315200040C0114840F68C01FCF799F8FB78002B07D0B5
S315200040D0FB78012B04D00C4840F68D01FCF78EF8B6
S315200040E0FB78002B06D0094B084A51697A680A43A7
S315200040F05A6106E0054B054A51697A68D2430A405F
S315200041005A610837BD4680BDD09D00200038024048
S3152000411080B582B000AF78600B46FB707B6823F0D9
S315200041200103002B02D17B68002B04D1114840F6F5
S31520004130A701FCF763F8FB78002B07D0FB78012B4F
S3152000414004D00C4840F6A801FCF758F8FB78002B61
S3152000415006D0094B084A91697A680A439A6106E0B3
S31520004160054B054A91697A68D2430A409A61083715
S31520004170BD4680BDD09D00200038024080B582B06B
S3152000418000AF78600B46FB707B6803F45853002B16
S3152000419002D17B68002B04D1114840F6DD01FCF7E3
S315200041A02DF8FB78002B07D0FB78012B04D00C4888
S315200041B040F6DE01FCF722F8FB78002B06D0094BEF
S315200041C0084A116A7A680A431A6206E0054B054ACC
S315200041D0116A7A68D2430A401A620837BD4680BD02
S315200041E0D09D00200038024080B582B000AF7860B4
S315200041F00B46FB707A68154B1340002B02D17B6867
S31520004200002B04D1124840F60811FBF7F7FFFB7884
S31520004210002B07D0FB78012B04D00D4840F609115E
S31520004220FBF7ECFFFB78002B06D00A4B094A516AB4
S315200042307A680A435A6206E0064B064A516A7A6849
S31520004240D2430A405A620837BD4680BDCC8608F262
S31520004250D09D00200038024080B582B000AF786043
S315200042600B46FB707A68154B1340002B02D17B68F6
S31520004270002B04D1124840F63911FBF7BFFFFB781B
S31520004280002B07D0FB78012B04D00D4840F63A11BD
S31520004290FBF7B4FFFB78002B06D00A4B094A116DB9
S315200042A07A680A431A6506E0064B064A116D7A6853
S315200042B0D2430A401A650837BD4680BD0068100102
S315200042C0D09D00200038024080B582B000AF7860D3
S315200042D00B46FB707B6823F0F103002B02D17B6831
S315200042E0002B04D1114840F65911FBF787FFFB78C4
S315200042F0002B07D0FB78012B04D00C4840F65A112E
S31520004300FBF77CFFFB78002B06D0094B084A516D42
S315200043107A680A435A6506E0054B054A516D7A6864
S31520004320D2430A405A650837BD4680BDD09D00203D
S315200043300038024080B582B000AF78600B46FB7033
S315200043407B6823F00103002B02D17B68002B04D16C
S31520004350114840F67711FBF751FFFB78002B07D069
S31520004360FB78012B04D00C4840F67811FBF746FF6A
S31520004370FB78002B06D0094B084A916D7A680A43D0
S315200043809A6506E0054B054A916D7A68D2430A4044
S315200043909A650837BD4680BDD09D00200038024072
S315200043A080B582B000AF78600B46FB707B6803F463
S315200043B05853002B02D17B68002B04D111484FF4AF
S315200043C01B61FBF71BFFFB78002B07D0FB78012B2B
S315200043D004D00C4840F6B111FBF710FFFB78002BF8
S315200043E006D0094B084A116E7A680A431A6606E017
S315200043F0054B054A116E7A68D2430A401A66083779
S31520004400BD4680BDD09D00200038024080B582B0D8
S3152000441000AF78600B46FB707A68154B1340002B73
S3152000442002D17B68002B04D1124840F6DF11FBF73E
S31520004430E5FEFB78002B07D0FB78012B04D00D4836
S315200044404FF41E61FBF7DAFEFB78002B06D00A4BF1
S31520004450094A516E7A680A435A6606E0064B064AAE
S31520004460516E7A68D2430A405A660837BD4680BDE7
S31520004470CC8008F2D09D00200038024080B582B062
S3152000448000AF0346FB71FB79002B07D0FB79012B8C
S3152000449004D00C4840F6F711FBF7B0FEFB79012B50
S315200044A006D1094B084A126F42F008021A6705E046
S315200044B0054B054A126F22F008021A670837BD46D7
S315200044C080BD00BFD09D00200038024080B582B05C
S315200044D000AF02460B46FA71BB71FB795BB2002B2B
S315200044E002DBFB79002B04D1144840F62F31FBF771
S315200044F085FEBB79002B07D0BB79012B04D00F4852
S315200045004FF43361FBF77AFEBB79002B08D00C4BB6
S315200045100B4A1278D1B2FA790A43D2B21A7009E05C
S31520004520074B074A1278D1B2FA79D243D2B20A405F
S31520004530D2B21A700837BD4680BD00BFD09D00207C
S315200045400D38024080B586B000AF0346FB710023CC
S31520004550FB6000237B610023FB74FB79212B2BD08E
S31520004560FB79312B28D0FB79392B25D0FB79412BB0
S3152000457022D0FB79612B1FD0FB79792B1CD0FB79BC
S315200045807A2B19D0FB797B2B16D0FB797C2B13D079
S31520004590FB797D2B10D0FB797E2B0DD0FB797F2BE1
S315200045A00AD0FB793B2B07D0FB793D2B04D018484A
S315200045B040F65831FBF722FEFB795B09DBB2FB6044
S315200045C0FB68012B03D1134B1B687B6109E0FB6859
S315200045D0022B03D10F4B1B6F7B6102E00D4B5B6FF0
S315200045E07B61FB7903F01F03FB60FB687A6922FA83
S315200045F003F303F00103002B02D00123FB7401E037
S315200046000023FB74FB7C18461837BD4680BD00BFCF
S31520004610D09D00200038024080B400AF044B044AED
S31520004620526F42F080725A67BD465DF8047B704730
S315200046300038024080B584B000AF0346FB710023EA
S31520004640FB73FB79012B19D0FB79022B16D0FB7952
S31520004650042B13D0FB79082B10D0FB79102B0DD00F
S31520004660FB79802B0AD0FB79402B07D0FB79202BB6
S3152000467004D00A4840F69731FBF7C0FD084BDA68AC
S31520004680FB791340002B02D00123FB7301E00023AA
S31520004690FB73FB7B18461037BD4680BDD09D00209E
S315200046A00038024080B582B000AF0346FB71FB792B
S315200046B0002B04D1054840F6B731FBF79FFD044B8C
S315200046C0FA791A700837BD4680BD00BFD09D0020FC
S315200046D00E38024080B582B000AF78607A687D4B94
S315200046E09A4237D07B68B3F1804F33D07A687A4BC1
S315200046F09A422FD07A68794B9A422BD07A68784B97
S315200047009A4227D07A68774B9A4223D07A68764B9A
S315200047109A421FD07A68754B9A421BD07A68744B9E
S315200047209A4217D07A68734B9A4213D07A68724BA2
S315200047309A420FD07A68714B9A420BD07A68704BA6
S315200047409A4207D07A686F4B9A4203D06E48CB21A3
S31520004750FBF754FD7A685F4B9A4208D1012001216C
S31520004760FFF742FD01200021FFF73EFDAFE07B6809
S31520004770B3F1804F08D101200121FFF7FFFC012072
S315200047800021FFF7FBFCA2E07A68534B9A4208D13E
S3152000479002200121FFF7F2FC02200021FFF7EEFCA8
S315200047A095E07A684D4B9A4208D104200121FFF703
S315200047B0E5FC04200021FFF7E1FC88E07A68484BFD
S315200047C09A4208D108200121FFF7D8FC08200021B1
S315200047D0FFF7D4FC7BE07A68424B9A4208D110203E
S315200047E00121FFF7CBFC10200021FFF7C7FC6EE06C
S315200047F07A683D4B9A4208D120200121FFF7BEFC62
S3152000480020200021FFF7BAFC61E07A68374B9A42F4
S3152000481008D102200121FFF7E7FC02200021FFF743
S31520004820E3FC54E07A68324B9A420AD14FF4803046
S315200048300121FFF7D9FC4FF480300021FFF7D4FC8B
S3152000484045E07A682B4B9A420AD14FF40030012179
S31520004850FFF7CAFC4FF400300021FFF7C5FC36E015
S315200048607A68254B9A420AD14FF480200121FFF71E
S31520004870BBFC4FF480200021FFF7B6FC27E07A68C6
S315200048801E4B9A4208D140200121FFF777FC402099
S315200048900021FFF773FC1AE07A68194B9A4208D177
S315200048A080200121FFF76AFC80200021FFF766FCAB
S315200048B00DE07A68134B9A4209D14FF4807001219A
S315200048C0FFF75CFC4FF480700021FFF757FC083798
S315200048D0BD4680BD000001400004004000080040A5
S315200048E0000C00400010004000140040000401406D
S315200048F000400140004401400048014000180040AB
S31520004900001C004000200040009E002080B584B09E
S3152000491000AF786039600023FB817A685D4B9A424C
S3152000492038D07B68B3F1804F34D07A685A4B9A429C
S3152000493030D07A68594B9A422CD07A68584B9A4292
S3152000494028D07A68574B9A4224D07A68564B9A4296
S3152000495020D07A68554B9A421CD07A68544B9A429A
S3152000496018D07A68534B9A4214D07A68524B9A429E
S3152000497010D07A68514B9A420CD07A68504B9A42A2
S3152000498008D07A684F4B9A4204D04F4840F22511FE
S31520004990FBF734FC3B685B88002B14D03B685B88B4
S315200049A0102B10D03B685B88202B0CD03B685B8893
S315200049B0402B08D03B685B88602B04D042484FF4DC
S315200049C09371FBF71BFC3B681B89002B0ED03B68C1
S315200049D01B89B3F5807F09D03B681B89B3F5007F1F
S315200049E004D0394840F22711FBF708FC7B681B8866
S315200049F0FB817A68274B9A4213D07A682B4B9A42CE
S31520004A000FD07B68B3F1804F0BD07A68224B9A4245
S31520004A1007D07A68214B9A4203D07A68204B9A4273
S31520004A2008D1FB8923F07003FB813B685A88FB89F8
S31520004A301343FB817A681B4B9A420CD07A681A4B37
S31520004A409A4208D0FB8923F44073FB813B681A897C
S31520004A50FB891343FB817B68FA891A803B685A6875
S31520004A607B68DA623B681A887B681A857A68094B04
S31520004A709A4203D07A680D4B9A4204D13B689B7ABE
S31520004A809AB27B681A867B6801229A821037BD46C5
S31520004A9080BD00BF00000140000400400008004027
S31520004AA0000C0040001000400014004000040140AB
S31520004AB000400140004401400048014000180040E9
S31520004AC0001C004000200040009E002080B483B0DF
S31520004AD000AF78607B684FF0FF325A607B68002217
S31520004AE01A807B6800221A817B6800225A807B68A4
S31520004AF000229A720C37BD465DF8047B704700BFD2
S31520004B0080B582B000AF786013460A467A803B8033
S31520004B107A68284B9A4238D07B68B3F1804F34D0DC
S31520004B207A68254B9A4230D07A68244B9A422CD008
S31520004B307A68234B9A4228D07A68224B9A4224D00C
S31520004B407A68214B9A4220D07A68204B9A421CD010
S31520004B507A681F4B9A4218D07A681E4B9A4214D014
S31520004B607A681D4B9A4210D07A681C4B9A420CD018
S31520004B707A681B4B9A4208D07A681A4B9A4204D01C
S31520004B80194840F26B11FBF739FB3B88002B07D005
S31520004B903B88012B04D014484FF4B671FBF72EFB4B
S31520004BA07B687A881A857B683A889A820837BD4658
S31520004BB080BD00BF00000140000400400008004006
S31520004BC0000C00400010004000140040000401408A
S31520004BD000400140004401400048014000180040C8
S31520004BE0001C004000200040009E002080B584B0BC
S31520004BF000AF78600B467B800023FB817A68204BD0
S31520004C009A4218D07B68B3F1804F14D07A681D4B36
S31520004C109A4210D07A681C4B9A420CD07A681B4B69
S31520004C209A4208D07A681A4B9A4204D019484FF40F
S31520004C30C271FBF7E3FA7B88002B10D07B88102B00
S31520004C400DD07B88202B0AD07B88402B07D07B88F1
S31520004C50602B04D00F4840F28511FBF7CFFA7B6812
S31520004C601B88FB81FB8923F07003FB81FA897B88F3
S31520004C701343FB817B68FA891A801037BD4680BDB5
S31520004C80000001400004004000080040000C0040E5
S31520004C9000040140009E002080B582B000AF7860FD
S31520004CA039607A68204B9A4238D07B68B3F1804FBE
S31520004CB034D07A681D4B9A4230D07A681C4B9A427F
S31520004CC02CD07A681B4B9A4228D07A681A4B9A4283
S31520004CD024D07A68194B9A4220D07A68184B9A4287
S31520004CE01CD07A68174B9A4218D07A68164B9A428B
S31520004CF014D07A68154B9A4210D07A68144B9A428F
S31520004D000CD07A68134B9A4208D07A68124B9A4292
S31520004D1004D012484FF4CE71FBF770FA7B683A68DC
S31520004D205A620837BD4680BD00000140000400409D
S31520004D3000080040000C0040001000400014004015
S31520004D400004014000400140004401400048014069
S31520004D5000180040001C004000200040009E00205B
S31520004D6080B582B000AF786039607A68204B9A426D
S31520004D7038D07B68B3F1804F34D07A681D4B9A4285
S31520004D8030D07A681C4B9A422CD07A681B4B9A42B8
S31520004D9028D07A681A4B9A4224D07A68194B9A42BC
S31520004DA020D07A68184B9A421CD07A68174B9A42C0
S31520004DB018D07A68164B9A4214D07A68154B9A42C4
S31520004DC010D07A68144B9A420CD07A68134B9A42C8
S31520004DD008D07A68124B9A4204D0124840F2AB119E
S31520004DE0FBF70CFA7B683A68DA620837BD4680BD65
S31520004DF0000001400004004000080040000C004074
S31520004E000010004000140040000401400040014012
S31520004E10004401400048014000180040001C0040AA
S31520004E2000200040009E002080B582B000AF786050
S31520004E307A68214B9A4238D07B68B3F1804F34D0C0
S31520004E407A681E4B9A4230D07A681D4B9A422CD0F3
S31520004E507A681C4B9A4228D07A681B4B9A4224D0F7
S31520004E607A681A4B9A4220D07A68194B9A421CD0FB
S31520004E707A68184B9A4218D07A68174B9A4214D0FF
S31520004E807A68164B9A4210D07A68154B9A420CD003
S31520004E907A68144B9A4208D07A68134B9A4204D007
S31520004EA0124840F2B911FBF7A9F97B685B6A1846EC
S31520004EB00837BD4680BD00BF000001400004004009
S31520004EC000080040000C0040001000400014004084
S31520004ED000040140004001400044014000480140D8
S31520004EE000180040001C004000200040009E0020CA
S31520004EF080B582B000AF78607A68214B9A4238D06C
S31520004F007B68B3F1804F34D07A681E4B9A4230D0FA
S31520004F107A681D4B9A422CD07A681C4B9A4228D02C
S31520004F207A681B4B9A4224D07A681A4B9A4220D030
S31520004F307A68194B9A421CD07A68184B9A4218D034
S31520004F407A68174B9A4214D07A68164B9A4210D038
S31520004F507A68154B9A420CD07A68144B9A4208D03C
S31520004F607A68134B9A4204D0124840F2C711FBF7D5
S31520004F7045F97B681B8D9BB218460837BD4680BD18
S31520004F80000001400004004000080040000C0040E2
S31520004F900010004000140040000401400040014081
S31520004FA0004401400048014000180040001C004019
S31520004FB000200040009E002080B582B000AF7860BF
S31520004FC00B46FB707A682F4B9A4238D07B68B3F138
S31520004FD0804F34D07A682C4B9A4230D07A682B4B4B
S31520004FE09A422CD07A682A4B9A4228D07A68294B42
S31520004FF09A4224D07A68284B9A4220D07A68274B46
S315200050009A421CD07A68264B9A4218D07A68254B49
S315200050109A4214D07A68244B9A4210D07A68234B4D
S315200050209A420CD07A68224B9A4208D07A68214B51
S315200050309A4204D0204840F2D711FBF7DFF8FB78DC
S31520005040002B07D0FB78012B04D01B484FF4EC71C2
S31520005050FBF7D4F8FB78002B08D07B681B889BB223
S3152000506043F002039AB27B681A8007E07B681B88AC
S315200050709BB223F002039AB27B681A800837BD469A
S3152000508080BD00BF00000140000400400008004031
S31520005090000C0040001000400014004000040140B5
S315200050A000400140004401400048014000180040F3
S315200050B0001C004000200040009E002080B582B0E9
S315200050C000AF78600B467B807A682F4B9A4238D0A7
S315200050D07B68B3F1804F34D07A682C4B9A4230D01B
S315200050E07A682B4B9A422CD07A682A4B9A4228D03F
S315200050F07A68294B9A4224D07A68284B9A4220D043
S315200051007A68274B9A421CD07A68264B9A4218D046
S315200051107A68254B9A4214D07A68244B9A4210D04A
S315200051207A68234B9A420CD07A68224B9A4208D04E
S315200051307A68214B9A4204D020484FF4FA71FBF743
S315200051405DF87B88002B07D07B88012B04D01B4879
S3152000515040F2F511FBF752F87B88002B08D07B68CC
S315200051601B889BB243F004039AB27B681A8007E03F
S315200051707B681B889BB223F004039AB27B681A8053
S315200051800837BD4680BD00BF000001400004004036
S3152000519000080040000C00400010004000140040B1
S315200051A00004014000400140004401400048014005
S315200051B000180040001C004000200040009E0020F7
S315200051C080B582B000AF78600B46FB707A682F4BB3
S315200051D09A4238D07B68B3F1804F34D07A682C4B12
S315200051E09A4230D07A682B4B9A422CD07A682A4B36
S315200051F09A4228D07A68294B9A4224D07A68284B3A
S315200052009A4220D07A68274B9A421CD07A68264B3D
S315200052109A4218D07A68254B9A4214D07A68244B41
S315200052209A4210D07A68234B9A420CD07A68224B45
S315200052309A4208D07A68214B9A4204D0204840F2FC
S315200052400D21FAF7DBFFFB78002B07D0FB78012B2B
S3152000525004D01B4840F20E21FAF7D0FFFB78002B32
S3152000526008D07B681B889BB243F080039AB27B6888
S315200052701A8007E07B681B889BB223F080039AB2D2
S315200052807B681A800837BD4680BD00BF00000140FC
S315200052900004004000080040000C004000100040C0
S315200052A00014004000040140004001400044014039
S315200052B00048014000180040001C0040002000402B
S315200052C0009E002080B582B000AF78600B467B80C0
S315200052D07A682D4B9A4238D07B68B3F1804F34D010
S315200052E07A682A4B9A4230D07A68294B9A422CD037
S315200052F07A68284B9A4228D07A68274B9A4224D03B
S315200053007A68264B9A4220D07A68254B9A421CD03E
S315200053107A68244B9A4218D07A68234B9A4214D042
S315200053207A68224B9A4210D07A68214B9A420CD046
S315200053307A68204B9A4208D07A681F4B9A4204D04A
S315200053401E484FF40A71FAF759FF7B88082B07D0BD
S315200053507B88002B04D0194840F22921FAF74EFF0A
S315200053607B681B889BB223F008039AB27B681A805D
S315200053707B681B889AB27B8813439AB27B681A8013
S315200053800837BD4680BD00BF000001400004004034
S3152000539000080040000C00400010004000140040AF
S315200053A00004014000400140004401400048014003
S315200053B000180040001C004000200040009E0020F5
S315200053C080B582B000AF78600B467B807A682B4B25
S315200053D09A4230D07B68B3F1804F2CD07A68284B24
S315200053E09A4228D07A68274B9A4224D07A68264B4C
S315200053F09A4220D07A68254B9A421CD07A68244B50
S315200054009A4218D07A68234B9A4214D07A68224B53
S315200054109A4210D07A68214B9A420CD07A68204B57
S315200054209A4208D07A681F4B9A4204D01E4840F20E
S315200054303F21FAF7E3FE7B88002B0CD07B88B3F55F
S31520005440807F08D07B88B3F5007F04D016484FF4C0
S315200054501071FAF7D3FE7B681B889BB223F4407346
S315200054609AB27B681A807B681B889AB27B88134322
S315200054709AB27B681A800837BD4680BD000001407D
S315200054800004004000080040000C004000040140D9
S3152000549000400140004401400048014000180040FF
S315200054A0001C004000200040009E002080B582B0F5
S315200054B000AF78600B46FB707A682F4B9A4238D043
S315200054C07B68B3F1804F34D07A682C4B9A4230D027
S315200054D07A682B4B9A422CD07A682A4B9A4228D04B
S315200054E07A68294B9A4224D07A68284B9A4220D04F
S315200054F07A68274B9A421CD07A68264B9A4218D053
