S01200002E2F44656275672F62696C2E73313938
S315200000000248854606F0F6F9FEE7000000C001200A
S31520000010FEE708B505F0B4FCBDE8084005F02CBDA8
S3152000002070B501201E4E86B0014602F0D9F8304642
S315200000300021082200F0EEFC30460121082200F0C3
S31520000040E9FC0024022203230125304669468DF867
S31520000050042000938DF805308DF806408DF8075062
S3152000006000F03CF929464FF4002002F021F9ADF8C2
S315200000701440ADF81040ADF80E40ADF80C40094CD8
S315200000804FF4164302932046042302A9ADF81230FA
S3152000009000F088FD2046294600F0BCFE06B070BD63
S315200000A000000240004C00402DE9F3412C4C012079
S315200000B0014602F0FDF801250C2300264FF0020828
S315200000C003272046694600938DF805708DF8048035
S315200000D08DF806608DF8075000F000F9204641465D
S315200000E02A4600F097FC204639462A4600F092FC24
S315200000F01C4B1D491D4C1E4F1B681E4AB3FBF2F3B9
S315200001004FF080401C4A4A60013B0B800E814E8096
S3152000011002F006FC6023238021463B88A3604FF033
S3152000012080406580A68103F0ABF94FF0804008211E
S3152000013003F0A0FD7B88A36021464FF080406580B8
S3152000014003F04CFA4FF08040082103F0C5FD4FF034
S315200001508040294602F0C8FF02B0BDE8F08100BF0A
S315200001600000024010640020706500207C6500209D
S31520000170FC63002080DE8002527304002DE9F843E0
S315200001800446C06A10EE107A15460E4605F03AFE71
S3152000019080463846894605F05BFE0022084B05F06E
S315200001A0F9FF02460B464046494605F0ABFE06F0EF
S315200001B0F7F806B1E06305B12064BDE8F88300BF17
S315200001C00000594008B5FFF724FFFFF729FFBDE8D7
S315200001D00840FFF769BF00BF08B53E4B98422DD0B7
S315200001E003F58063984237D003F58063984239D06F
S315200001F003F5806398423BD003F5806398423DD057
S3152000020003F5806398423FD003F58063984241D03E
S3152000021003F58063984243D003F58063984245D026
S3152000022003F58063984249D003F5806398420BD04A
S3152000023029488221BDE80840FFF7EABE0120014691
S3152000024002F07CF8012040E04FF48060012102F0AA
S3152000025075F84FF4806038E00220012102F06EF834
S31520000260022032E00420012102F068F804202CE06C
S315200002700820012102F062F8082026E01020012142
S3152000028002F05CF8102020E02020012102F056F830
S3152000029020201AE04020012102F050F8402014E0EE
S315200002A08020012102F04AF880200EE04FF4807071
S315200002B0012102F043F84FF4807006E04FF40070FD
S315200002C0012102F03BF84FF400700021BDE8084000
S315200002D002F034B800000240246400202DE9F843DF
S315200002E0464B984204460D462BD003F58063984230
S315200002F027D003F58063984223D003F58063984284
S315200003001FD003F5806398421BD003F58063984283
S3152000031017D003F58063984213D003F58063984283
S315200003200FD003F5806398420BD003F58063984283
S3152000033007D003F58063984203D03148CF21FFF7D9
S3152000034067FE2B881BB92E48D021FFF761FE2B793B
S31520000350032B03D92A48D121FFF75AFEEB79022B2A
S3152000036003D92748D221FFF753FE002701232A6805
S31520000370BB4003EA020999453BD14FEA47080326C9
S31520000380236806FA08F6F643334023602B79226861
S3152000039003FA08F1013B0A43012B226020D86B792E
S315200003A0032B03D91648E421FFF732FEA368334016
S315200003B0A3606B79A26803FA08F31343A360AB79B1
S315200003C0012B03D90E48EB21FFF722FE636823EAAF
S315200003D009036360AB796268BB409BB213436360D9
S315200003E0E3681E40E660EB79E26803FA08F31343FC
S315200003F0E3600137102FB9D1BDE8F8830000024031
S31520000400246400204FF6FF730360002303714371B9
S315200004108371C371704737B54FF480330193234BF3
S31520000420984204460D462CD003F58063984228D086
S3152000043003F58063984224D003F58063984220D048
S3152000044003F5806398421CD003F58063984218D048
S3152000045003F58063984214D003F58063984210D048
S3152000046003F5806398420CD003F58063984208D048
S3152000047003F58063984204D00D484FF48D71FFF741
S31520000480C7FD25B90A4840F21B11FFF7C1FD019BA4
S315200004902B430193019BE361E561019BE361E369E2
S315200004A00193E369019303B030BD00BF0000024011
S315200004B02464002038B5324B984205460C462CD091
S315200004C003F58063984228D003F58063984224D0B0
S315200004D003F58063984220D003F5806398421CD0B0
S315200004E003F58063984218D003F58063984214D0B0
S315200004F003F58063984210D003F5806398420CD0B0
S3152000050003F58063984208D003F58063984204D0AF
S315200005101C484FF4A471FFF77BFD631E012B28D9DD
S31520000520042C26D0082C24D0102C22D0202C20D0ED
S31520000530402C1ED0802C1CD0B4F5807F19D0B4F569
S31520000540007F16D0B4F5806F13D0B4F5006F10D0AD
S31520000550B4F5805F0DD0B4F5005F0AD0B4F5804FB6
S3152000056007D0B4F5004F04D0064840F24911FFF7F2
S315200005704FFD2B691C4214BF0120002038BD00BF4F
S3152000058000000240246400201A4B984210B504460D
S315200005902CD003F58063984228D003F580639842D7
S315200005A024D003F58063984220D003F580639842D7
S315200005B01CD003F58063984218D003F580639842D7
S315200005C014D003F58063984210D003F580639842D7
S315200005D00CD003F58063984208D003F580639842D7
S315200005E004D005484FF4B071FFF712FD206980B2A0
S315200005F010BD00BF000002402464002038B5324BF5
S31520000600984205460C462CD003F58063984228D0A4
S3152000061003F58063984224D003F58063984220D066
S3152000062003F5806398421CD003F58063984218D066
S3152000063003F58063984214D003F58063984210D066
S3152000064003F5806398420CD003F58063984208D066
S3152000065003F58063984204D01C4840F27311FFF7DB
S31520000660D7FC631E012B28D9042C26D0082C24D095
S31520000670102C22D0202C20D0402C1ED0802C1CD0F8
S31520000680B4F5807F19D0B4F5007F16D0B4F5806F0D
S3152000069013D0B4F5006F10D0B4F5805F0DD0B4F54B
S315200006A0005F0AD0B4F5804F07D0B4F5004F04D0D0
S315200006B006484FF4BA71FFF7ABFC6B691C4214BFB6
S315200006C00120002038BD00BF000002402464002025
S315200006D01A4B984210B504462CD003F580639842F5
S315200006E028D003F58063984224D003F5806398428E
S315200006F020D003F5806398421CD003F5806398428E
S3152000070018D003F58063984214D003F5806398428D
S3152000071010D003F5806398420CD003F5806398428D
S3152000072008D003F58063984204D0054840F28B1127
S31520000730FFF76EFC606980B210BD00BF000002406A
S315200007402464002038B51D4B984204460D462CD013
S3152000075003F58063984228D003F58063984224D01D
S3152000076003F58063984220D003F5806398421CD01D
S3152000077003F58063984218D003F58063984214D01D
S3152000078003F58063984210D003F5806398420CD01D
S3152000079003F58063984208D003F58063984204D01D
S315200007A0074840F29F11FFF733FC25B904484FF460
S315200007B0D071FFF72DFC258338BD00BF0000024015
S315200007C02464002038B51D4B984204460D462CD093
S315200007D003F58063984228D003F58063984224D09D
S315200007E003F58063984220D003F5806398421CD09D
S315200007F003F58063984218D003F58063984214D09D
S3152000080003F58063984210D003F5806398420CD09C
S3152000081003F58063984208D003F58063984204D09C
S3152000082007484FF4DA71FFF7F3FB25B9044840F285
S31520000830B511FFF7EDFB658338BD00BF0000024010
S3152000084024640020364B984270B505460C46164661
S315200008502CD003F58063984228D003F58063984214
S3152000086024D003F58063984220D003F58063984214
S315200008701CD003F58063984218D003F58063984214
S3152000088014D003F58063984210D003F58063984214
S315200008900CD003F58063984208D003F58063984214
S315200008A004D020484FF4E571FFF7B2FB631E012BFD
S315200008B028D9042C26D0082C24D0102C22D0202C49
S315200008C020D0402C1ED0802C1CD0B4F5807F19D08F
S315200008D0B4F5007F16D0B4F5806F13D0B4F5006F51
S315200008E010D0B4F5805F0DD0B4F5005F0AD0B4F512
S315200008F0804F07D0B4F5004F04D00A4840F2CB1100
S31520000900FFF786FB012E05D906484FF4E671FFF75F
S315200009107FFB00E00EB12C8370BD6C8370BD00BFE1
S31520000920000002402464002038B51A4B9842044641
S315200009300D462CD003F58063984228D003F58063BA
S31520000940984224D003F58063984220D003F5806333
S3152000095098421CD003F58063984218D003F5806333
S31520000960984214D003F58063984210D003F5806333
S3152000097098420CD003F58063984208D003F5806333
S31520000980984204D0044840F2E311FFF741FB656129
S3152000099038BD00BF000002402464002038B51B4B40
S315200009A0984204460D462CD003F58063984228D001
S315200009B003F58063984224D003F58063984220D0C3
S315200009C003F5806398421CD003F58063984218D0C3
S315200009D003F58063984214D003F58063984210D0C3
S315200009E003F5806398420CD003F58063984208D0C3
S315200009F003F58063984204D0054840F2F311FFF7CF
S31520000A0007FB61696940616138BD00BF0000024093
S31520000A10246400202A4B984270B504460E4615469B
S31520000A202CD003F58063984228D003F58063984242
S31520000A3024D003F58063984220D003F58063984242
S31520000A401CD003F58063984218D003F58063984242
S31520000A5014D003F58063984210D003F58063984242
S31520000A600CD003F58063984208D003F58063984242
S31520000A7004D0144840F24921FFF7CAFA0F2E04D9B0
S31520000A80104840F24A21FFF7C3FA0D2D06D90F2D43
S31520000A9004D00C4840F24B21FFF7BAFA06F00703C0
S31520000AA0F60804EB86049B00216A0F229A4021EA6D
S31520000AB002022262226A9D401543256270BD00BF54
S31520000AC0000002402464002008B5344B984221D00F
S31520000AD0A3F54C43984255D003F5806398421FD026
S31520000AE003F58063984223D003F58063984227D08C
S31520000AF003F5444398422BD0A3F51C43984231D0AA
S31520000B0003F58063984235D02548BE21BDE80840CC
S31520000B10FFF77EBA1020012101F09AFC10201CE07C
S31520000B204FF48020012101F071FC4FF4802030E049
S31520000B304FF40020012101F069FC4FF4002028E049
S31520000B404FF48010012101F061FC4FF4801020E069
S31520000B502020012101F07CFC20200021BDE8084056
S31520000B6001F076BC4FF08040012101F04FFC4FF0A0
S31520000B7080400EE04FF00040012101F047FC4FF08D
S31520000B80004006E04FF40030012101F03FFC4FF415
S31520000B9000300021BDE8084001F038BC00100140BB
S31520000BA0776400207FB5644EB04204460D461ED0C1
S31520000BB0624B98421BD003F58063984217D003F509
S31520000BC08063984213D003F5806398420FD003F5D3
S31520000BD0444398420BD0A3F51C43984207D003F513
S31520000BE08063984203D05648FE21FFF711FA2B68FE
S31520000BF0544A013B934203D95148FF21FFF708FA93
S31520000C00AB8823F480539BB223B14D484FF48071B7
S31520000C10FFF7FEF9EB8823F440539BB223B14848F3
S31520000C2040F20111FFF7F4F92B8923F480623AB1DF
S31520000C30B3F5C06F04D042484FF48171FFF7E8F94D
S31520000C406B8923F00C0202B923B93D4840F2031107
S31520000C50FFF7DEF9AB8923F440739BB223B1384802
S31520000C604FF48271FFF7D4F9AB898BB1B4420FD020
S31520000C70324B9C420CD003F580639C4208D003F58E
S31520000C804C439C4204D02E4840F20911FFF7C0F98C
S31520000C90238AEA8829899BB223F44053134323826B
S31520000CA0A3899BB223F4B05323F00C02AB880B43E9
S31520000CB069890B439BB21343A381A38AAA899BB25A
S31520000CC023F440731343A382684601F037F9B442F4
S31520000CD002D01D4B9C4201D1039B00E0029BA289BE
S31520000CE0296812B2002A4FF0190202FB03F2B4BFA0
S31520000CF04D008D00B2FBF5F5A2896426B5FBF6F012
S31520000D000001010912B2002A06FB1153ADBF1A01D8
S31520000D10D90032313232B5BFB1FBF6F2B2FBF6F36F
S31520000D2002F0070203F00F03B4BF1043184380B24A
S31520000D30208104B070BD00BF001001400044004077
S31520000D4077640020DF707200001401404FF41653C0
S31520000D5003600C2200238380C38003814281838128
S31520000D60704738B5264B984205460C4610D0A3F559
S31520000D704C4398420CD003F58063984208D003F583
S31520000D804C43984204D01F4840F27F11FFF740F9A8
S31520000D90238823F400639BB223B11A484FF4C07111
S31520000DA0FFF736F9638823F480639BB223B1154895
S31520000DB040F28111FFF72CF9A38823F400739BB22C
S31520000DC023B110484FF4C171FFF722F9E38823F4C9
S31520000DD080739BB223B10B4840F28311FFF718F9B9
S31520000DE02B8A61889BB223F4706223880B43A188E7
S31520000DF00B43E1880B439BB213432B8238BD00BFC4
S31520000E000010014077640020002303804380838004
S31520000E10C380704738B51D4B984204460D4620D0F6
S31520000E20A3F54C4398421CD003F58063984218D012
S31520000E3003F58063984214D003F58063984210D05E
S31520000E4003F5444398420CD0A3F51C43984208D09E
S31520000E5003F58063984204D00D484FF4D771FFF70D
S31520000E60D7F8012D05D90A4840F2AF11FFF7D0F87F
S31520000E7000E025B1A3899BB243F4005304E0A38983
S31520000E8023F400531B041B0CA38138BD0010014022
S31520000E907764002038B5174B984204460D4620D07B
S31520000EA0A3F54C4398421CD003F58063984218D092
S31520000EB003F58063984214D003F58063984210D0DE
S31520000EC003F5444398420CD0A3F51C43984208D01E
S31520000ED003F58063984204D007484FF4E471FFF786
S31520000EE097F8238B03F47F432383238B9BB21D43E5
S31520000EF0258338BD001001407764002038B51D4B8E
S31520000F00984204460D4620D0A3F54C4398421CD067
S31520000F1003F58063984218D003F58063984214D075
S31520000F2003F58063984210D003F5444398420CD0D1
S31520000F30A3F51C43984208D003F58063984204D059
S31520000F400D4840F2DD11FFF763F8012D05D90A4857
S31520000F504FF4EF71FFF75CF800E035B1A3896FEA33
S31520000F6043436FEA53439BB202E0A389C3F30E03C4
S31520000F70A38138BD001001407764002038B51D4B91
S31520000F80984204460D4620D0A3F54C4398421CD0E7
S31520000F9003F58063984218D003F58063984214D0F5
S31520000FA003F58063984210D003F5444398420CD051
S31520000FB0A3F51C43984208D003F58063984204D0D9
S31520000FC00D4840F2F711FFF723F8012D05D90A48FD
S31520000FD04FF4FC71FFF71CF800E025B1A38A9BB201
S31520000FE043F4006304E0A38A23F400631B041B0C70
S31520000FF0A38238BD001001407764002038B5194B14
S31520001000984204460D4620D0A3F54C4398421CD066
S3152000101003F58063984218D003F58063984214D074
S3152000102003F58063984210D003F5444398420CD0D0
S31520001030A3F51C43984208D003F58063984204D058
S3152000104009484FF40C71FEF7E3FFB5F5007F04D392
S31520001050054840F23121FEF7DBFFC5F30805A580E0
S3152000106038BD00BF0010014077640020144B984221
S3152000107010B5044620D0A3F54C4398421CD003F566
S315200010808063984218D003F58063984214D003F504
S315200010908063984210D003F5444398420CD0A3F5C0
S315200010A01C43984208D003F58063984204D0054833
S315200010B04FF41071FEF7ACFFA088C0F3080010BDF6
S315200010C0001001407764002038B51C4B9842044636
S315200010D00D4620D0A3F54C4398421CD003F58063DF
S315200010E0984218D003F58063984214D003F58063A4
S315200010F0984210D003F5444398420CD0A3F51C43E4
S31520001100984208D003F58063984204D00C484FF4E7
S315200011101D71FEF77DFF0F2D04D9094840F2752178
S31520001120FEF776FF238A23F00F031B041B0C238272
S31520001130238A9BB21D43258238BD00BF0010014083
S315200011407764002038B51D4B984204460D4620D0C2
S31520001150A3F54C4398421CD003F58063984218D0DF
S3152000116003F58063984214D003F58063984210D02B
S3152000117003F5444398420CD0A3F51C43984208D06B
S3152000118003F58063984204D00D484FF42271FEF790
S315200011903FFF012D05D90A4840F28921FEF738FF85
S315200011A000E025B1A3899BB243F0020304E0A389A2
S315200011B023F002031B041B0CA38138BD0010014041
S315200011C07764002038B51C4B984204460D4620D043
S315200011D0A3F54C4398421CD003F58063984218D05F
S315200011E003F58063984214D003F58063984210D0AB
S315200011F003F5444398420CD0A3F51C43984208D0EB
S3152000120003F58063984204D00C4840F2A321FEF7F0
S31520001210FFFE25F4006323B108484FF42971FEF739
S31520001220F7FEA38923F400631B041B0CA381A18969
S3152000123089B22943A18138BD00100140776400207E
S3152000124038B51C4B984204460D4620D0A3F54C4396
S3152000125098421CD003F58063984218D003F580632A
S31520001260984214D003F58063984210D003F5444386
S3152000127098420CD0A3F51C43984208D003F580630E
S31520001280984204D00C484FF43A71FEF7C1FE25F07F
S31520001290200323B1084840F2E921FEF7B9FE238A4C
S315200012A023F020031B041B0C2382218A89B22943A5
S315200012B0218238BD001001407764002038B51D4BCF
S315200012C0984204460D4620D0A3F54C4398421CD0A4
S315200012D003F58063984218D003F58063984214D0B2
S315200012E003F58063984210D003F5444398420CD00E
S315200012F0A3F51C43984208D003F58063984204D096
S315200013000D4840F2FA21FEF783FE012D05D90A4841
S3152000131040F2FB21FEF77CFE00E025B1238A9BB23A
S3152000132043F4804304E0238A23F480431B041B0CEC
S31520001330238238BD0010014077640020154B984267
S3152000134010B5044620D0A3F54C4398421CD003F593
S315200013508063984218D003F58063984214D003F531
S315200013608063984210D003F5444398420CD0A3F5ED
S315200013701C43984208D003F58063984204D006485F
S3152000138040F21231FEF744FEA3899BB243F00103DB
S31520001390A38110BD001001407764002038B51D4B95
S315200013A0984204460D4620D0A3F54C4398421CD0C3
S315200013B003F58063984218D003F58063984214D0D1
S315200013C003F58063984210D003F5444398420CD02D
S315200013D0A3F51C43984208D003F58063984204D0B5
S315200013E00D4840F24731FEF713FE012D05D90A4874
S315200013F04FF45271FEF70CFE00E025B1A38A9BB292
S3152000140043F0080304E0A38A23F008031B041B0C03
S31520001410A38238BD001001407764002038B50F4BF9
S31520001420984204460D4610D0A3F54C4398420CD062
S3152000143003F58063984208D003F54C43984204D0C4
S31520001440074840F29B31FEF7E3FD238BDBB2238373
S31520001450218B89B241EA0521218338BD0010014044
S315200014607764002038B5154B984204460D4610D0B7
S31520001470A3F54C4398420CD003F58063984208D0DC
S3152000148003F54C43984204D00D4840F2AE31FEF7A6
S31520001490BFFD012D05D90A4840F2AF31FEF7B8FD50
S315200014A000E025B1A38A9BB243F0200304E0A38A7F
S315200014B023F020031B041B0CA38238BD001001401F
S315200014C07764002038B5154B984204460D4610D057
S315200014D0A3F54C4398420CD003F58063984208D07C
S315200014E003F54C43984204D00D4840F2C731FEF72D
S315200014F08FFD012D05D90A484FF47271FEF788FD3C
S3152000150000E025B1A38A9BB243F0100304E0A38A2E
S3152000151023F010031B041B0CA38238BD00100140CE
S315200015207764002038B51C4B984204460D4620D0DF
S31520001530A3F54C4398421CD003F58063984218D0FB
S3152000154003F58063984214D003F58063984210D047
S3152000155003F5444398420CD0A3F51C43984208D087
S3152000156003F58063984204D00C4840F20E41FEF702
S315200015704FFD25F0040323B1084840F20F41FEF742
S3152000158047FDA38A23F004031B041B0CA382A18A14
S3152000159089B22943A18238BD00100140776400201A
S315200015A038B51D4B984204460D4620D0A3F54C4332
S315200015B098421CD003F58063984218D003F58063C7
S315200015C0984214D003F58063984210D003F5444323
S315200015D098420CD0A3F51C43984208D003F58063AB
S315200015E0984204D00D484FF48461FEF711FD012D79
S315200015F005D90A4840F22141FEF70AFD00E025B14F
S31520001600A38A9BB243F0020304E0A38A23F00203D9
S315200016101B041B0CA38238BD0010014077640020F8
S31520001620214B984270B504460D46164620D0A3F5A8
S315200016304C4398421CD003F58063984218D003F59A
S315200016408063984214D003F58063984210D003F546
S31520001650444398420CD0A3F51C43984208D003F586
S315200016608063984204D0114840F24E41FEF7D0FCE8
S3152000167025F0C00303B925B90C4840F24F41FEF7C7
S31520001680C7FC012E05D909484FF48A61FEF7C0FC34
S3152000169000E01EB1A18A89B2294303E0A18A89B25A
S315200016A021EA0501A18270BD001001407764002067
S315200016B0F8B5404B984204460D4616461F4620D0A4
S315200016C0A3F54C4398421CD003F58063984218D06A
S315200016D003F58063984214D003F58063984210D0B6
S315200016E003F5444398420CD0A3F51C43984208D0F6
S315200016F003F58063984204D02F4840F2D441FEF788
S3152000170087FC282D1ED040F227739D421AD040F226
S3152000171026639D4216D040F225539D4212D040F2B8
S3152000172024439D420ED040F646039D420AD040F601
S315200017306A139D423AD0602D04D01F4840F2D5410D
S31520001740FEF766FC012E1AD91B4840F2D641FEF759
S315200017505FFC40F66A139D4211D1BC420FD0174B55
S315200017609C420CD003F580639C4208D003F54C4381
S315200017709C4204D0104840F2DB41FEF749FCC5F3F9
S315200017804212012305F01F05012A03FA05F301D1B0
S315200017900C3403E0022A0CBF1034143422680EB134
S315200017A0134301E022EA03032360F8BD012ECBD8C0
S315200017B0D3E700BF001001407764002000440040BA
S315200017C02C4B984270B504460D461E4620D0A3F5F4
S315200017D04C4398421CD003F58063984218D003F5F9
S315200017E08063984214D003F58063984210D003F5A5
S315200017F0444398420CD0A3F51C43984208D003F5E5
S315200018008063984204D01C4840F21351FEF700FC36
S31520001810012D29D0802D27D0402D25D0202D23D035
S31520001820102D21D0B5F5807F1ED0B5F5007F09D0CB
S31520001830082D19D0042D17D0022D15D00E4840F2B0
S3152000184014510FE0B4420FD00C4B9C420CD003F540
S3152000185080639C4208D003F54C439C4204D0064842
S3152000186040F21951FEF7D4FB23881D4214BF0120F4
S31520001870002070BD00100140776400200044004025
S31520001880244B984270B504460D461E4620D0A3F53B
S315200018904C4398421CD003F58063984218D003F538
S315200018A08063984214D003F58063984210D003F5E4
S315200018B0444398420CD0A3F51C43984208D003F524
S315200018C08063984204D0144840F24351FEF7A0FBAF
S315200018D025F4587303B925B90F4840F24451FEF751
S315200018E097FBAB0511D5B4420FD00C4B9C420CD0C4
S315200018F003F580639C4208D003F54C439C4204D0F8
S31520001900054840F24951FEF783FBED43ADB22580F1
S3152000191070BD00BF001001407764002000440040E5
S31520001920404B984270B504460D461E4620D0A3F57E
S315200019304C4398421CD003F58063984218D003F597
S315200019408063984214D003F58063984210D003F543
S31520001950444398420CD0A3F51C43984208D003F583
S315200019608063984204D0304840F26751FEF750FB1E
S31520001970282D39D040F227739D4235D040F2266378
S315200019809D4231D040F225539D422DD040F2244332
S315200019909D4229D040F646039D4225D040F66A1343
S315200019A09D420FD040F225339D421DD0B5F5187FBC
S315200019B01AD025F40073B3F5B07F15D01A484FF42A
S315200019C0AD610FE0B4420FD0184B9C420CD003F50A
S315200019D080639C4208D003F54C439C4204D01248B5
S315200019E040F26D51FEF714FB0120C5F3421205F0BB
S315200019F01F03824200FA03F301D1A08903E0022AE1
S31520001A000CBF208AA08A80B2184023889BB238B1A6
S31520001A102D0A0122AA401A4214BF0120002070BDBF
S31520001A2070BD00BF001001407764002000440040D4
S31520001A302A4B984270B504460D461E4620D0A3F583
S31520001A404C4398421CD003F58063984218D003F586
S31520001A508063984214D003F58063984210D003F532
S31520001A60444398420CD0A3F51C43984208D003F572
S31520001A708063984204D01A484FF4B661FEF7C8FA3C
S31520001A8040F226639D4221D040F225539D421DD02F
S31520001A9040F646039D4219D040F66A139D4203D074
S31520001AA00F4840F2B1510FE0B4420FD00D4B9C428B
S31520001AB00CD003F580639C4208D003F54C439C422E
S31520001AC004D0074840F2B651FEF7A2FA2D0A0123A8
S31520001AD0AB40DB439BB2238070BD00BF00100140AA
S31520001AE077640020004400400E4B1A68002142F023
S31520001AF001021A6099601A6822F0A85222F4102274
S31520001B001A60094A5A60094AC3F8842002F18062A1
S31520001B10C3F888201A6822F480221A60D960C3F894
S31520001B208C1070470038024010300024003000200E
S31520001B30012810B5044606D9052804D0044840F2E9
S31520001B401F11FEF765FA034B00221A701C7010BD98
S31520001B50CB640020023802401F2810B5044604D961
S31520001B60064840F25711FEF753FA054B186820F045
S31520001B70F80040EAC400186010BD00BFCB64002006
S31520001B8000380240012810B5044604D903484FF412
S31520001B90BD71FEF73DFA024B1C6010BDCB640020E0
S31520001BA000004742012810B5044606D9042804D06F
S31520001BB0094840F29311FEF72BFA084B0022012C1C
S31520001BC01A701A7002D0042C02D010BD1C7010BDE1
S31520001BD005221A7010BD00BFCB6400207038024069
S31520001BE0012810B5044604D9034840F2BB11FEF77C
S31520001BF00FFA024B1C6010BDCB640020800E4742BA
S31520001C002DE9F0411D4630F4800306460C469046E9
S31520001C10069F04D01B4840F21E21FEF7F9F93F2CFF
S31520001C2004D9184840F21F21FEF7F2F9A8F1320331
S31520001C30B3F5BF7F04D913484FF40871FEF7E8F9CE
S31520001C4025F00403022B08D0042D06D0082D04D03D
S31520001C500C4840F22121FEF7DBF93B1F0B2B04D960
S31520001C60084840F22221FEF7D3F944EA88126C088C
S31520001C7042EA0762013C42EA0444034B34435C6077
S31520001C80BDE8F081CB64002000380240012810B561
S31520001C90044604D9034840F23621FEF7B9F9024B2F
S31520001CA01C6010BDCB6400206000474238B5A0F10F
S31520001CB03203B3F5BF7F05460C4604D909484FF4D5
S31520001CC01571FEF7A5F9A31E052B04D9054840F288
S31520001CD05521FEF79DF92407034B44EA8514C3F8E2
S31520001CE0844038BDCB64002000380240012810B55E
S31520001CF0044604D9034840F2DF21FEF789F9024B56
S31520001D001C6010BDCB64002068004742A0F132035E
S31520001D10B3F5BF7F70B505460C46164604D90F4865
S31520001D204FF45371FEF774F9B31E052B04D90B48F3
S31520001D3040F24D31FEF76CF9A31E0D2B04D907484E
S31520001D4040F24E31FEF764F9200640EA0670044B55
S31520001D5040EA8510C3F8880070BD00BFCB64002020
S31520001D6000380240012810B5044604D903484FF430
S31520001D705871FEF74DF9024B1C6010BDCB64002054
S31520001D8070004742012810B5044604D9034840F2A2
S31520001D907231FEF73DF9024B1C6010BDCB6400206A
S31520001DA04C00474238B530F4C00304460D4604D0F3
S31520001DB00E4840F28D31FEF72BF935F080630CD0BA
S31520001DC025F00073B3F1A06F07D0B5F1C06F04D032
S31520001DD0064840F28E31FEF71BF9054B996821F033
S31520001DE0EC6129432143996038BD00BFCB640020B4
S31520001DF00038024038B520F0404304460D4623B152
S31520001E000E4840F2BA31FEF703F935F000530CD0F4
S31520001E1025F08053B3F1205F07D0B5F1405F04D0A1
S31520001E20064840F2BB31FEF7F3F8054B996821F0DE
S31520001E30784129432143996038BD00BFCB640020F7
S31520001E4000380240022810B5044604D9054840F25D
S31520001E508241FEF7DDF8044B986820F0030020430A
S31520001E60986010BDCB64002000380240024B986871
S31520001E7000F00C00704700BF0038024030F08003AD
S31520001E8010B5044612D020F02003902B0ED020F05F
S31520001E904003A02B0AD020F01003C02B06D0F02838
S31520001EA004D006484FF49761FEF7B2F8044A9368C7
S31520001EB023F0F0031C43946010BD00BFCB640020C8
S31520001EC00038024030F4805310B504460CD020F47C
S31520001ED00063B3F5A05F07D0B0F5C05F04D0064815
S31520001EE040F2D741FEF794F8044B986820F4E0506E
S31520001EF02043986010BD00BFCB640020003802400C
S31520001F0030F4805310B504460CD020F40063B3F5AA
S31520001F10A05F07D0B0F5C05F04D0064840F2F64176
S31520001F20FEF776F8044B986820F4604040EAC40037
S31520001F30986010BDCB640020003802401D4A93688B
S31520001F4003F00C03042B10B503D0082B03D01A4B37
S31520001F5018E01A4B16E05168536811F4800F03F00D
S31520001F603F03516814BF154A134AB2FBF3F3114AD3
S31520001F705268C2F30142C1F3881101324B43520029
S31520001F80B3FBF2F30B4A036093680D49C3F30313C3
S31520001F90CC5C0368E34043609468C4F382240C5D00
S31520001FA023FA04F484609268C2F342328A5CD340F6
S31520001FB0C36010BD003802400024F40040787D0143
S31520001FC000640020B0F5807F10B504462ED0B0F511
S31520001FD0007F2BD0204B20F4A021994220F4803280
S31520001FE024D020F4102103F5003399421ED01B493A
S31520001FF020F440338B4219D020F4881001F5C021FB
S31520002000884213D001F500318B420FD001F5802193
S315200020108B420BD001F580218B4207D0104B9A4280
S3152000202004D0104840F2C351FDF7F2FF04F4407388
S315200020300D4AB3F5407F01BF936824F0704123F425
S31520002040F81321F4407104BF0B439360136FC4F35C
S315200020500B041C43146710BD000302000003080094
S3152000206000031C00CB64002000380240012810B574
S31520002070044604D9034840F2E151FDF7C9FF024B5B
S315200020801C6010BDCB6400203C0E4742012810B5D1
S31520002090044604D9034840F2F251FDF7B9FF024B3A
S315200020A01C6010BDCB640020400E4742012810B5AD
S315200020B0044604D9034840F26E61FDF7A9FF024B9E
S315200020C01C6010BDCB6400205C01474230F48013B5
S315200020D010B5044607D0B0F5001F04D0064840F2DC
S315200020E08B61FDF795FF054BD3F88C0020F440104B
S315200020F02043C3F88C0010BDCB640020003802407A
S3152000210030F4800310B5044607D0B0F5000F04D094
S31520002110064840F2AF61FDF77BFF054BD3F88C00F4
S3152000212020F440002043C3F88C0010BDCB6400206F
S315200021300038024010B5441E1F2C04D906484FF41F
S31520002140DA61FDF765FF054BD3F88C0020F01F0000
S315200021502043C3F88C0010BDCB6400200038024019
S3152000216010B5441E1F2C04D907484FF4DE61FDF735
S315200021704FFF064BD3F88C0020F4F85040EA042099
S31520002180C3F88C0010BD00BFCB640020003802408D
S3152000219030F4403310B5044604D0074840F2147199
S315200021A0FDF736FF054BD3F88C0020F44030204352
S315200021B0C3F88C0010BD00BFCB640020003802405D
S315200021C0012810B5044604D9034840F27371FDF77F
S315200021D01FFF024B1C6010BDCB640020E01147425C
S315200021E00E4B034070B505460E4603B920B90C4880
S315200021F040F29D71FDF70CFF012E0A4C05D90848C7
S3152000220040F29F71FDF704FF00E016B1236B1D43DA
S3152000221002E0236B23EA0505256370BD00E80B0168
S31520002220CB6400200038024030F0F10370B505463B
S315200022300E4600D120B90B4840F2BD71FDF7E8FEED
S31520002240012E094C05D9074840F2BE71FDF7E0FE84
S3152000225000E016B1636B1D4302E0636B23EA0505BC
S31520002260656370BDCB6400200038024030F0010366
S3152000227070B505460E4600D120B90B4840F2DB71F9
S31520002280FDF7C6FE012E094C05D9074840F2DC7140
S31520002290FDF7BEFE00E016B1A36B1D4302E0A36B63
S315200022A023EA0505A56370BDCB64002000380240F3
S315200022B010F4585F70B505460E4600D120B90B487C
S315200022C040F61401FDF7A4FE012E094C05D9074856
S315200022D040F61501FDF79CFE00E016B1236C1D4368
S315200022E002E0236C23EA0505256470BDCB6400203B
S315200022F0003802400E4B034070B505460E4603B922
S3152000230020B90C4840F64401FDF782FE012E0A4C06
S3152000231005D9084840F64501FDF77AFE00E016B1DA
S31520002320636C1D4302E0636C23EA0505656470BD9A
S31520002330CC8008F2CB640020003802400E4B0340CC
S3152000234070B505460E4603B920B90C4840F66F0114
S31520002350FDF75EFE012E0A4C05D908484FF40761A9
S31520002360FDF756FE00E016B123691D4302E02369FE
S3152000237023EA0505256170BD00E81F05CB64002012
S315200023800038024030F0F10370B505460E4600D104
S3152000239020B90B4840F68C01FDF73AFE012E094C78
S315200023A005D9074840F68D01FDF732FE00E016B14B
S315200023B063691D4302E0636923EA0505656170BD13
S315200023C0CB6400200038024030F0010370B505468A
S315200023D00E4600D120B90B4840F6A701FDF718FE9E
S315200023E0012E094C05D9074840F6A801FDF710FE35
S315200023F000E016B1A3691D4302E0A36923EA05059F
S31520002400A56170BDCB6400200038024010F4585FEF
S3152000241070B505460E4600D120B90B4840F6DD01C1
S31520002420FDF7F6FD012E094C05D9074840F6DE01D9
S31520002430FDF7EEFD00E016B1236A1D4302E0236A94
S3152000244023EA0505256270BDCB64002000380240D2
S315200024500E4B034070B505460E4603B920B90C480D
S3152000246040F60811FDF7D4FD012E0A4C05D908487F
S3152000247040F60911FDF7CCFD00E016B1636A1D4355
S3152000248002E0636A23EA0505656270BDCC8608F220
S31520002490CB640020003802400E4B034070B5054641
S315200024A00E4603B920B90C4840F63911FDF7B0FDA8
S315200024B0012E0A4C05D9084840F63A11FDF7A8FD29
S315200024C000E016B1236D1D4302E0236D23EA0505C6
S315200024D0256570BD00681001CB64002000380240DD
S315200024E030F0F10370B505460E4600D120B90B48F1
S315200024F040F65911FDF78CFD012E094C05D90748E8
S3152000250040F65A11FDF784FD00E016B1636D1D43B8
S3152000251002E0636D23EA0505656570BDCB64002086
S315200025200038024030F0010370B505460E4600D152
S3152000253020B90B4840F67711FDF76AFD012E094CAC
S3152000254005D9074840F67811FDF762FD00E016B17F
S31520002550A36D1D4302E0A36D23EA0505A56570BDA5
S31520002560CB6400200038024010F4585F70B5054651
S315200025700E4600D120B90B484FF41B61FDF748FDEC
S31520002580012E094C05D9074840F6B111FDF740FD4B
S3152000259000E016B1236E1D4302E0236E23EA0505F3
S315200025A0256670BDCB640020003802400E4B0340E8
S315200025B070B505460E4603B920B90C4840F6DF1122
S315200025C0FDF726FD012E0A4C05D908484FF41E6159
S315200025D0FDF71EFD00E016B1636E1D4302E0636E3B
S315200025E023EA0505656670BDCC8008F2CB64002021
S315200025F000380240012810B5084C05D9084840F695
S31520002600F711FDF705FD04E003D1236F43F008031E
S3152000261002E0236F23F00803236710BD0038024031
S31520002620CB64002043B2002B70B505460E4604DC71
S315200026300B4840F62F31FDF7EBFC012E094C05D94E
S3152000264007484FF43361FDF7E3FC00E016B120782C
S31520002650284302E0207820EA0500207070BD00BFE4
S31520002660CB6400200D38024000F0EF03212B10B57B
S31520002670044612D000F0FD03392B0ED000F0DF0304
S31520002680412B0AD0A0F17903062B06D93D2804D088
S315200026900A4840F65831FDF7BBFC6209012A084B6F
S315200026A001D1186803E0022A0CBF186F586F04F096
S315200026B01F04E04000F0010010BD00BFCB640020E5
S315200026C00038024007B5002301933120FFF7CCFFE5
S315200026D0019B01330193019BB3F5A04F01D0002844
S315200026E0F3D03120FFF7C0FF003018BF012003B020
S315200026F05DF804FB024A536F43F0807353677047BB
S3152000270000380240431E012B10B5044610D9042878
S315200027100ED008280CD010280AD0802808D04028AF
S3152000272006D0202804D0064840F69731FDF770FCE5
S31520002730044BDB681C4214BF0120002010BD00BFE3
S31520002740CB6400200038024010B5044620B9044866
S3152000275040F6B731FDF75CFC024B1C7010BD00BF84
S31520002760CB6400200E38024030B5048C24F00104DE
S315200027702404240C0484048B058CA4B2ADB224F06A
S31520002780F304224325F00A0542EA031345F0010526
S315200027909AB229430283018430BD30B5048C24F0DB
S315200027A010042404240C0484058B048C25F4407521
S315200027B0A4B22D052D0D24F0A00444F0100445EA02
S315200027C0022242EA033344EA01119BB28CB203830C
S315200027D0048430BD08B5504B984238D0B0F1804FB4
S315200027E067D0A3F57C43984269D003F5806398426D
S315200027F06BD003F5806398426DD003F580639842D1
S315200028006FD003F58063984271D003F570439842E8
S3152000281077D003F5705398421FD003F58063984212
S3152000282023D003F58063984227D0A3F598339842A6
S315200028302BD003F5806398422DD003F58063984210
S315200028402FD03648CB21BDE80840FDF7E1BB01205B
S315200028500146FFF7FDFD012058E04FF480300121AD
S31520002860FFF7F6FD4FF4803050E04FF400300121A1
S31520002870FFF7EEFD4FF4003048E04FF480200121B1
S31520002880FFF7E6FD4FF4802040E040200121FFF7CE
S31520002890BDFD402030E080200121FFF7B7FD8020DC
S315200028A02AE04FF480700121FFF7B0FD4FF48070CD
S315200028B022E001200146FFF7A9FD01201CE00220AD
S315200028C00121FFF7A3FD022016E004200121FFF7D6
S315200028D09DFD042010E008200121FFF797FD082028
S315200028E00AE010200121FFF791FD102004E02020AE
S315200028F00121FFF78BFD20200021BDE80840FFF7CE
S3152000290085BD02200121FFF7A3FD02200021BDE89D
S315200029100840FFF79DBD00BF000001401D65002057
S3152000292038B5484B984204460D4637D0B0F1804F13
S3152000293034D0A3F57C43984230D003F58063984287
S315200029402CD003F58063984228D003F58063984203
S3152000295024D003F58063984220D003F57043984233
S315200029601CD003F57053984218D003F58063984223
S3152000297014D003F58063984210D0A3F5983398427B
S315200029800CD003F58063984208D003F58063984203
S3152000299004D02D4840F22511FDF73AFB6B8823F031
S315200029A0100252B123F04002202A06D0402B04D038
S315200029B025484FF49371FDF72BFB2B8923F4807266
S315200029C03AB1B3F5007F04D01F4840F22711FDF736
S315200029D01FFB1C4A238894429BB212D002F58062C8
S315200029E094420ED0B4F1804F0BD0A2F5803294429F
S315200029F007D002F58062944203D002F580629442A9
S31520002A0003D16A8823F070031343104A944208D0F6
S31520002A1002F5806294421FBF23F440732A899BB239
S31520002A20134323806B68E3622B882385054B9C42E6
S31520002A3003D003F580639C4201D1AB7A2386012320
S31520002A40A38238BD000001401D6500200010004013
S31520002A504FF0FF334360002303800381438083725A
S31520002A607047244B984270B504460E46154637D01B
S31520002A70B0F1804F34D0A3F57C43984230D003F593
S31520002A80806398422CD003F58063984228D003F5C2
S31520002A908063984224D003F58063984220D003F5C2
S31520002AA0704398421CD003F57053984218D003F512
S31520002AB08063984214D003F58063984210D0A3F522
S31520002AC0983398420CD003F58063984208D003F5DA
S31520002AD08063984204D0084840F26B11FDF798FABB
S31520002AE0012D04D904484FF4B671FDF791FA2685D5
S31520002AF0A58270BD000001401D65002038B5194B28
S31520002B00984204460D4617D0B0F1804F14D0A3F555
S31520002B107C43984210D003F5806398420CD003F58D
S31520002B208063984208D003F57843984204D00E4833
S31520002B304FF4C271FDF76CFA25F0100353B125F05E
S31520002B404003202B06D0402D04D0074840F28511A3
S31520002B50FDF75EFA218821F070010904090C29434A
S31520002B60218038BD000001401D65002038B51F4B6F
S31520002B70984204460D4637D0B0F1804F34D0A3F5A5
S31520002B807C43984230D003F5806398422CD003F5DD
S31520002B908063984228D003F58063984224D003F5B9
S31520002BA08063984220D003F5704398421CD003F5E9
S31520002BB07053984218D003F58063984214D003F5D9
S31520002BC08063984210D0A3F5983398420CD003F531
S31520002BD08063984208D003F58063984204D0044865
S31520002BE04FF4CE71FDF714FA656238BD000001403E
S31520002BF01D65002038B51F4B984204460D4637D038
S31520002C00B0F1804F34D0A3F57C43984230D003F501
S31520002C10806398422CD003F58063984228D003F530
S31520002C208063984224D003F58063984220D003F530
S31520002C30704398421CD003F57053984218D003F580
S31520002C408063984214D003F58063984210D0A3F590
S31520002C50983398420CD003F58063984208D003F548
S31520002C608063984204D0044840F2AB11FDF7D0F9B6
S31520002C70E56238BD000001401D6500201F4B9842CB
S31520002C8010B5044637D0B0F1804F34D0A3F57C433D
S31520002C90984230D003F5806398422CD003F58063A8
S31520002CA0984228D003F58063984224D003F58063A8
S31520002CB0984220D003F5704398421CD003F57053F8
S31520002CC0984218D003F58063984214D003F58063A8
S31520002CD0984210D0A3F5983398420CD003F5806320
S31520002CE0984208D003F58063984204D0044840F205
S31520002CF0B911FDF78DF9606A10BD00BF00000140D3
S31520002D001D6500201F4B984210B5044637D0B0F100
S31520002D10804F34D0A3F57C43984230D003F58063AE
S31520002D2098422CD003F58063984228D003F580631F
S31520002D30984224D003F58063984220D003F570434F
S31520002D4098421CD003F57053984218D003F580633F
S31520002D50984214D003F58063984210D0A3F5983397
S31520002D6098420CD003F58063984208D003F580631F
S31520002D70984204D0044840F2C711FDF749F9208D46
S31520002D8080B210BD000001401D65002038B5294BDA
S31520002D90984204460D4637D0B0F1804F34D0A3F583
S31520002DA07C43984230D003F5806398422CD003F5BB
S31520002DB08063984228D003F58063984224D003F597
S31520002DC08063984220D003F5704398421CD003F5C7
S31520002DD07053984218D003F58063984214D003F5B7
S31520002DE08063984210D0A3F5983398420CD003F50F
S31520002DF08063984208D003F58063984204D00E4839
S31520002E0040F2D711FDF704F9012D05D90A484FF4F0
S31520002E10EC71FDF7FDF800E025B123889BB243F065
S31520002E20020304E0238823F002031B041B0C2380E7
S31520002E3038BD00BF000001401D65002038B5294B74
S31520002E40984204460D4637D0B0F1804F34D0A3F5D2
S31520002E507C43984230D003F5806398422CD003F50A
S31520002E608063984228D003F58063984224D003F5E6
S31520002E708063984220D003F5704398421CD003F516
S31520002E807053984218D003F58063984214D003F506
S31520002E908063984210D0A3F5983398420CD003F55E
S31520002EA08063984208D003F58063984204D00E4888
S31520002EB04FF4FA71FDF7ACF8012D05D90A4840F216
S31520002EC0F511FDF7A5F800E025B123889BB243F064
S31520002ED0040304E0238823F004031B041B0C238033
S31520002EE038BD00BF000001401D65002038B5294BC4
S31520002EF0984204460D4637D0B0F1804F34D0A3F522
S31520002F007C43984230D003F5806398422CD003F559
S31520002F108063984228D003F58063984224D003F535
S31520002F208063984220D003F5704398421CD003F565
S31520002F307053984218D003F58063984214D003F555
S31520002F408063984210D0A3F5983398420CD003F5AD
S31520002F508063984208D003F58063984204D00E48D7
S31520002F6040F20D21FDF754F8012D05D90A4840F20B
S31520002F700E21FDF74DF800E025B123889BB243F0E2
S31520002F80800304E0238823F080031B041B0C23808A
S31520002F9038BD00BF000001401D65002038B5284B14
S31520002FA0984204460D4637D0B0F1804F34D0A3F571
S31520002FB07C43984230D003F5806398422CD003F5A9
S31520002FC08063984228D003F58063984224D003F585
S31520002FD08063984220D003F5704398421CD003F5B5
S31520002FE07053984218D003F58063984214D003F5A5
S31520002FF08063984210D0A3F5983398420CD003F5FD
S315200030008063984208D003F58063984204D00D4827
S315200030104FF40A71FCF7FCFF25F0080323B1094899
S3152000302040F22921FCF7F4FF238823F008031B0430
S315200030301B0C2380218889B22943218038BD00BFFB
S31520003040000001401D65002038B5254B98420446F6
S315200030500D462FD0B0F1804F2CD0A3F57C4398425B
S3152000306028D003F58063984224D003F580639842E4
S3152000307020D003F5784398421CD003F5705398422C
S3152000308018D003F58063984214D003F580639842E4
S3152000309010D0A3F5983398420CD003F5806398425C
S315200030A008D003F58063984204D00E4840F23F21B1
S315200030B0FCF7AEFF25F480733BB1B5F5007F04D055
S315200030C008484FF41071FCF7A3FF238823F44073BC
S315200030D01B041B0C2380218889B22943218038BDFB
S315200030E0000001401D65002038B5294B9842044652
S315200030F00D4637D0B0F1804F34D0A3F57C439842AB
S3152000310030D003F5806398422CD003F58063984233
S3152000311028D003F58063984224D003F58063984233
S3152000312020D003F5704398421CD003F57053984283
S3152000313018D003F58063984214D003F58063984233
S3152000314010D0A3F5983398420CD003F580639842AB
S3152000315008D003F58063984204D00E4840F25321EC
S31520003160FCF756FF012D05D90A484FF41571FCF7D7
S315200031704FFF00E025B123889BB243F0010304E012
S31520003180238823F001031B041B0C238038BD00BFBA
S31520003190000001401D6500205B4B98422DE9F0415F
S315200031A004460D462FD0B0F1804F2CD0A3F57C439A
S315200031B0984228D003F58063984224D003F5806393
S315200031C0984220D003F5784398421CD003F57053DB
S315200031D0984218D003F58063984214D003F5806393
S315200031E0984210D0A3F5983398420CD003F580630B
S315200031F0984208D003F58063984204D0434840F2B1
S31520003200A621FCF705FF2B8823F0100223F03003BC
S3152000321092B233B1602A04D03C4840F2A721FCF791
S31520003220F7FE6B88012B04D938484FF42A71FCF736
S31520003230EFFEAB8923F002039BB223B1334840F261
S31520003240A921FCF7E5FE238CB5F800806E8823F0D3
S3152000325001031B041B0C2384238CA788228B22F0BA
S3152000326073021204120C42EA080823F00203AA8908
S315200032701B041B0C16431E43234B9C42BFB2B6B203
S3152000328003D003F580639C4236D1AB8823F0040338
S315200032909BB223B11D4840F2C621FCF7B9FEEB894B
S315200032A023F008039BB223B1184840F2C721FCF74C
S315200032B0AFFE6B8A23F400739BB223B113484FF4FD
S315200032C03271FCF7A5FE2B8A23F480739BB223B1BF
S315200032D00E4840F2C921FCF79BFEEB896A8A26F04C
S315200032E008061E43AB8826F004061E432B8A27F4C5
S315200032F0407713431F43BFB2AB68A780A4F818805A
S3152000330063632684BDE8F081000001401D6500202E
S31520003310594B98422DE9F04105460E461FD0B0F193
S31520003320804F1CD0A3F57C43984218D003F58063C8
S31520003330984214D003F58063984210D003F5784361
S3152000334098420CD003F57053984208D0A3F59433D5
S31520003350984204D0494840F2F721FCF759FE3388B9
S3152000336023F0100223F0300392B233B1602A04D046
S3152000337042484FF43E71FCF74BFE7388012B04D96B
S315200033803E4840F2F921FCF743FEB38923F00203BD
S315200033909BB223B1394840F2FA21FCF739FE2B8C37
S315200033A0B489B6F8008023F010031B041B0C2B8471
S315200033B02B8CAF882A8B23F020031B041B0C43EA9B
S315200033C00413748822F4E64243EA041412042A4BB6
S315200033D0120C42EA08229D42BFB21FFA82F8A4B21A
S315200033E003D003F580639D423DD1B38823F00403C7
S315200033F09BB223B121484FF44671FCF709FEF389AD
S3152000340023F008039BB223B11C4840F21931FCF784
S31520003410FFFD738A23F400739BB223B1174840F251
S315200034201A31FCF7F5FD338A23F480739BB223B15E
S31520003430124840F21B31FCF7EBFDF38924F080049F
S31520003440A4B244EA03144FF6BF732340B48843EA78
S315200034500414338A27F4406747EA8307738A47EAC6
S315200034608307A4B2BFB2B368AF80A5F81880AB6358
S315200034702C84BDE8F08100BF000001401D650020BE
S31520003480544B98422DE9F04105460E4617D0B0F12F
S31520003490804F14D0A3F57C43984210D003F5806367
S315200034A098420CD003F58063984208D003F5784300
S315200034B0984204D048484FF45271FCF7A9FD33884E
S315200034C023F0100223F0300392B233B1602A04D0E5
S315200034D0414840F24931FCF79BFD7388012B04D902
S315200034E03D4840F24A31FCF793FDB38923F00203AD
S315200034F09BB223B1384840F24B31FCF789FD2B8C27
S31520003500B489B6F8008023F480731B041B0C2B842B
S315200035102B8CAF88AA8B23F400731B041B0C43EA65
S315200035200423748822F0730243EA0424294B1204EC
S31520003530120C9D42BFB242EA0808A4B203D003F59A
S3152000354080639D423DD1B38823F004039BB223B10F
S3152000355021484FF45A71FCF75BFDF38923F00803E9
S315200035609BB223B11C4840F26931FCF751FD738AA6
S3152000357023F400739BB223B1174840F26A31FCF75B
S3152000358047FD338A23F480739BB223B1124840F25D
S315200035906B31FCF73DFDF38924F40064A4B244EAC0
S315200035A003244FF6FF332340B48843EA0424338AA6
S315200035B027F4405747EA0317738A47EA0317A4B24A
S315200035C0BFB2B368AF80A5F81C80EB632C84BDE83E
S315200035D0F08100BF000001401D6500203E4B98424F
S315200035E02DE9F04104460F4617D0B0F1804F14D094
S315200035F0A3F57C43984210D003F5806398420CD003
S3152000360003F58063984208D003F57843984204D0A6
S3152000361032484FF46671FCF7FBFC3B8823F010021E
S3152000362023F0300392B233B1602A04D02B4840F203
S315200036309931FCF7EDFC7B88012B04D9274840F211
S315200036409A31FCF7E5FCBB8923F002039BB223B138
S31520003650224840F29B31FCF7DBFC238CBD893E8857
S3152000366023F480531B041B0C2384238CB4F804807E
S31520003670A28B23F400531B041B0C43EA05337D88DD
S3152000368022F4E64243EA05351204134B120C42EAB1
S3152000369006229C421FFA88F896B2ADB203D003F5F3
S315200036A080639C4210D13B8A23F480739BB223B162
S315200036B00A4840F2B931FCF7ABFC3B8A28F4804833
S315200036C048EA83181FFA88F8BB68A4F80480A68302
S315200036D023642584BDE8F081000001401D6500209B
S315200036E0002303804380838083608381C381038298
S315200036F043827047F8B5484B984204460D46164615
S315200037002FD0B0F1804F2CD0A3F57C43984228D0FF
S3152000371003F58063984224D003F58063984220D035
S3152000372003F5784398421CD003F57053984218D07D
S3152000373003F58063984214D003F58063984210D035
S31520003740A3F5983398420CD003F58063984208D0AD
S3152000375003F58063984204D030484FF47F71FCF71C
S3152000376057FC04F118075DB1042D30D0082D49D03F
S315200037700C2D2CD0294840F2FD31FCF749FC26E0DF
S31520003780002E3BD026F02003102B0ED026F040032F
S31520003790202B0AD0702E08D026F01003402B04D000
S315200037A01E4840F2FE31FCF733FC238C9AB20123EB
S315200037B0AB4022EA0303238425F0080383B96D086E
S315200037C04FF68F737A5913407B517A5913E0002EA6
S315200037D0D8D1238C9AB20123AB4022EA0303238457
S315200037E0043DC5F34E0548F6FF737A5913407B51C5
S315200037F036027A59B6B216437E51F8BD238C23F091
S31520003800010304E0002EBDD1238C23F480731B0416
S315200038101B0C2384D3E700BF000001401D65002058
S3152000382038B51B4B984204460D462FD0B0F1804F39
S315200038302CD0A3F57C43984228D003F58063984288
S3152000384024D003F58063984220D003F5784398422C
S315200038501CD003F57053984218D003F58063984224
S3152000386014D003F58063984210D0A3F5983398427C
S315200038700CD003F58063984208D003F58063984204
S3152000388004D0044840F22741FCF7C2FB656338BDEB
S31520003890000001401D65002038B5134B98420446B0
S315200038A00D461FD0B0F1804F1CD0A3F57C43984223
S315200038B018D003F58063984214D003F580639842AC
S315200038C010D003F5784398420CD003F570539842F4
S315200038D008D0A3F59433984204D0044840F23741E7
S315200038E0FCF796FBA56338BD000001401D6500204E
S315200038F038B50F4B984204460D4617D0B0F1804F8D
S3152000390014D0A3F57C43984210D003F580639842E7
S315200039100CD003F58063984208D003F5784398428B
S3152000392004D0044840F24641FCF772FBE56338BDFB
S31520003930000001401D65002038B50F4B9842044613
S315200039400D4617D0B0F1804F14D0A3F57C43984292
S3152000395010D003F5806398420CD003F5806398421B
S3152000396008D003F57843984204D0044840F25541E4
S31520003970FCF74EFB256438BD000001401D65002084
S3152000398038B5234B984204460D462FD0B0F1804FD0
S315200039902CD0A3F57C43984228D003F58063984227
S315200039A024D003F58063984220D003F578439842CB
S315200039B01CD003F57053984218D003F580639842C3
S315200039C014D003F58063984210D0A3F5983398421B
S315200039D00CD003F58063984208D003F580639842A3
S315200039E004D00C4840F26941FCF712FB25F0100385
S315200039F0402B04D0074840F26A41FCF709FB218B93
S31520003A0021F070010904090C2943218338BD00BF28
S31520003A10000001401D65002038B51C4B9842044625
S31520003A200D461FD0B0F1804F1CD0A3F57C439842A1
S31520003A3018D003F58063984214D003F5806398422A
S31520003A4010D003F5784398420CD003F57053984272
S31520003A5008D0A3F59433984204D00D4840F286410D
S31520003A60FCF7D6FA25F01003402B04D0084840F284
S31520003A708741FCF7CDFA218B21F4E0410904090C9A
S31520003A8041EA052189B2218338BD00BF00000140EB
S31520003A901D65002038B5174B984204460D4617D0B1
S31520003AA0B0F1804F14D0A3F57C43984210D003F593
S31520003AB0806398420CD003F58063984208D003F5C2
S31520003AC07843984204D00C4840F2A241FCF7A0FA71
S31520003AD025F01003402B04D0074840F2A341FCF701
S31520003AE097FAA18B21F070010904090C2943A183BF
S31520003AF038BD00BF000001401D65002038B5184BB9
S31520003B00984204460D4617D0B0F1804F14D0A3F545
S31520003B107C43984210D003F5806398420CD003F57D
S31520003B208063984208D003F57843984204D00D4824
S31520003B3040F2BF41FCF76CFA25F01003402B04D06D
S31520003B4008484FF49861FCF763FAA18B21F4E04111
S31520003B500904090C41EA052189B2A18338BD00BFB9
S31520003B60000001401D65002038B5224B98420446CE
S31520003B700D462FD0B0F1804F2CD0A3F57C43984230
S31520003B8028D003F58063984224D003F580639842B9
S31520003B9020D003F5784398421CD003F57053984201
S31520003BA018D003F58063984214D003F580639842B9
S31520003BB010D0A3F5983398420CD003F58063984231
S31520003BC008D003F58063984204D00B4840F2DB41CD
S31520003BD0FCF71EFA25F0080323B1074840F2DC4122
S31520003BE0FCF716FA218B21F008010904090C294358
S31520003BF0218338BD000001401D65002038B51B4BD0
S31520003C00984204460D461FD0B0F1804F1CD0A3F534
S31520003C107C43984218D003F58063984214D003F56C
S31520003C208063984210D003F5784398420CD003F570
S31520003C307053984208D0A3F59433984204D00C4888
S31520003C4040F2F941FCF7E4F925F0080323B10848CE
S31520003C5040F2FA41FCF7DCF9218B21F400610904DA
S31520003C60090C41EA052189B2218338BD00000140B3
S31520003C701D65002038B5164B984204460D4617D0D0
S31520003C80B0F1804F14D0A3F57C43984210D003F5B1
S31520003C90806398420CD003F58063984208D003F5E0
S31520003CA07843984204D00B4840F21651FCF7B0F9FD
S31520003CB025F0080323B1074840F21751FCF7A8F96D
S31520003CC0A18B21F008010904090C2943A18338BDE1
S31520003CD0000001401D65002038B5174B9842044668
S31520003CE00D4617D0B0F1804F14D0A3F57C439842EF
S31520003CF010D003F5806398420CD003F58063984278
S31520003D0008D003F57843984204D00C4840F233514A
S31520003D10FCF77EF925F0080323B1084840F2345118
S31520003D20FCF776F9A18B21F400610904090C41EA1C
S31520003D30052189B2A18338BD000001401D65002000
S31520003D4038B5224B984204460D462FD0B0F1804F0D
S31520003D502CD0A3F57C43984228D003F58063984263
S31520003D6024D003F58063984220D003F57843984207
S31520003D701CD003F57053984218D003F580639842FF
S31520003D8014D003F58063984210D0A3F59833984257
S31520003D900CD003F58063984208D003F580639842DF
S31520003DA004D00B484FF4AA61FCF732F925F004033E
S31520003DB023B1074840F25151FCF72AF9218B21F013
S31520003DC004010904090C2943218338BD0000014060
S31520003DD01D65002038B51B4B984204460D461FD062
S31520003DE0B0F1804F1CD0A3F57C43984218D003F540
S31520003DF08063984214D003F58063984210D003F56F
S31520003E00784398420CD003F57053984208D0A3F516
S31520003E109433984204D00C4840F26F51FCF7F8F8DE
S31520003E2025F0040323B108484FF4AE61FCF7F0F8FF
S31520003E30218B21F480610904090C41EA052189B20C
S31520003E40218338BD000001401D65002038B5164B82
S31520003E50984204460D4617D0B0F1804F14D0A3F5F2
S31520003E607C43984210D003F5806398420CD003F52A
S31520003E708063984208D003F57843984204D00B48D3
S31520003E8040F28D51FCF7C4F825F0040323B107480E
S31520003E9040F28E51FCF7BCF8A18B21F004010904F5
S31520003EA0090C2943A18338BD000001401D6500206F
S31520003EB038B5174B984204460D4617D0B0F1804FBF
S31520003EC014D0A3F57C43984210D003F58063984222
S31520003ED00CD003F58063984208D003F578439842C6
S31520003EE004D00C4840F2AB51FCF792F825F00403BD
S31520003EF023B1084840F2AC51FCF78AF8A18B21F493
S31520003F0080610904090C41EA052189B2A18338BDE3
S31520003F10000001401D65002038B5224B984204461A
S31520003F200D462FD0B0F1804F2CD0A3F57C4398427C
S31520003F3028D003F58063984224D003F58063984205
S31520003F4020D003F5784398421CD003F5705398424D
S31520003F5018D003F58063984214D003F58063984205
S31520003F6010D0A3F5983398420CD003F5806398427D
S31520003F7008D003F58063984204D00B4840F2C9511B
S31520003F80FCF746F825F0800323B1074840F2CA51D2
S31520003F90FCF73EF8218B21F080010904090C294306
S31520003FA0218338BD000001401D65002038B51A4B1D
S31520003FB0984204460D461FD0B0F1804F1CD0A3F581
S31520003FC07C43984218D003F58063984214D003F5B9
S31520003FD08063984210D003F5784398420CD003F5BD
S31520003FE07053984208D0A3F59433984204D00B48D6
S31520003FF040F2E751FCF70CF825F0800323B107487F
S315200040004FF4BD61FCF704F8218BC1F30E0141EAA0
S31520004010052189B2218338BD000001401D6500209D
S3152000402038B5164B984204460D4617D0B0F1804F4E
S3152000403014D0A3F57C43984210D003F580639842B0
S315200040400CD003F58063984208D003F57843984254
S3152000405004D00B4840F20461FBF7DAFF25F0800319
S3152000406023B1074840F20561FBF7D2FFA18B21F06F
S3152000407080010904090C2943A18338BD00000140B1
S315200040801D65002038B5164B984204460D4617D0BC
S31520004090B0F1804F14D0A3F57C43984210D003F59D
S315200040A0806398420CD003F58063984208D003F5CC
S315200040B07843984204D00B4840F22161FBF7A8FFD1
S315200040C025F0800323B1074840F22261FBF7A0FFC9
S315200040D0A18BC1F30E0141EA052189B2A18338BD26
S315200040E0000001401D65002038B5224B9842044649
S315200040F00D462FD0B0F1804F2CD0A3F57C439842AB
S3152000410028D003F58063984224D003F58063984233
S3152000411020D003F5784398421CD003F5705398427B
S3152000412018D003F58063984214D003F58063984233
S3152000413010D0A3F5983398420CD003F580639842AB
S3152000414008D003F58063984204D00B4840F23E61C4
S31520004150FBF75EFF25F0020323B1074840F23F61DB
S31520004160FBF756FF218C21F002010904090C294393
S31520004170218438BD000001401D65002038B50F4B55
S31520004180984204460D4608D003F58063984204D031
S315200041900B484FF4CB61FBF73BFF25F0080323B117
S315200041A0074840F25961FBF733FF218C21F00801C3
S315200041B00904090C2943218438BD00BF00000140B1
S315200041C01D65002038B51B4B984204460D461FD06E
S315200041D0B0F1804F1CD0A3F57C43984218D003F54C
S315200041E08063984214D003F58063984210D003F57B
S315200041F0784398420CD003F57053984208D0A3F523
S315200042009433984204D00C4840F27461FBF700FFC7
S3152000421025F0020323B1084840F27561FBF7F8FE4A
S31520004220218C21F020010904090C41EA051189B2EB
S31520004230218438BD000001401D65002038B5104B93
S31520004240984204460D4608D003F58063984204D070
S315200042500C4840F28F61FBF7DBFE25F0080323B103
S3152000426008484FF4D261FBF7D3FE218C21F0800160
S315200042700904090C41EA051189B2218438BD00BF21
S31520004280000001401D65002038B5174B98420446B2
S315200042900D4617D0B0F1804F14D0A3F57C43984239
S315200042A010D003F5806398420CD003F580639842C2
S315200042B008D003F57843984204D00C4840F2AA610E
S315200042C0FBF7A6FE25F0020323B1084840F2AB61B6
S315200042D0FBF79EFE218C21F400710904090C41EAAA
S315200042E0052189B2218438BD000001401D650020CA
S315200042F038B5104B984204460D4608D003F5806326
S31520004300984204D00C4840F2C561FBF781FE25F0A7
S31520004310080323B1084840F2C661FBF779FE218CD9
S3152000432021F400610904090C41EA052189B221849E
S3152000433038BD00BF000001401D65002038B5174B71
S31520004340984204460D4617D0B0F1804F14D0A3F5FD
S315200043507C43984210D003F5806398420CD003F535
S315200043608063984208D003F57843984204D00C48DD
S315200043704FF4DC61FBF74CFE25F0020323B108481D
S3152000438040F2E161FBF744FE218C21F4005109043F
S31520004390090C41EA053189B2218438BD000001406B
S315200043A01D650020294B984270B504460E461546D9
S315200043B02FD0B0F1804F2CD0A3F57C43984228D043
S315200043C003F58063984224D003F58063984220D079
S315200043D003F5784398421CD003F57053984218D0C1
S315200043E003F58063984214D003F58063984210D079
S315200043F0A3F5983398420CD003F58063984208D0F1
S3152000440003F58063984204D0114840F2FF61FBF720
S31520004410FFFD26F00C0323B10D484FF4E061FBF7B6
S31520004420F7FD012D04D90A4840F20171FBF7F0FD92
S31520004430238C99B20123B34021EA03032384238CDE
S31520004440B54045EA030292B2228470BD00000140C5
S315200044501D650020174B984270B504460E4615463A
S3152000446008D003F58063984204D0134840F21D71AA
S31520004470FBF7CEFD26F0040333B1082E04D00E48F8
S3152000448040F21E71FBF7C4FD25F0040323B10A4850
S3152000449040F21F71FBF7BCFD238C99B20423B34075
S315200044A021EA03032384238CB54045EA030292B212
S315200044B0228470BD000001401D65002000230122DA
S315200044C0038043808280C380038170471B4B9842C0
S315200044D010B504462FD0B0F1804F2CD0A3F57C43E5
S315200044E0984228D003F58063984224D003F5806350
S315200044F0984220D003F5784398421CD003F5705398
S31520004500984218D003F58063984214D003F580634F
S31520004510984210D0A3F5983398420CD003F58063C7
S31520004520984208D003F58063984204D0044840F2AC
S31520004530F371FBF76DFD606B10BD00BF00000140FD
S315200045401D650020134B984210B504461FD0B0F1CC
S31520004550804F1CD0A3F57C43984218D003F5806386
S31520004560984214D003F58063984210D003F578431F
S3152000457098420CD003F57053984208D0A3F5943393
S31520004580984204D0044840F60201FBF741FDA06B97
S3152000459010BD00BF000001401D6500200F4B984252
S315200045A010B5044617D0B0F1804F14D0A3F57C4344
S315200045B0984210D003F5806398420CD003F58063AF
S315200045C0984208D003F57843984204D004484FF423
S315200045D00161FBF71DFDE06B10BD00BF000001402F
S315200045E01D6500200F4B984210B5044617D0B0F138
S315200045F0804F14D0A3F57C43984210D003F58063F6
S3152000460098420CD003F58063984208D003F578438E
S31520004610984204D0044840F61E01FBF7F9FC206CB2
S3152000462010BD00BF000001401D65002038B5244B99
S31520004630984204460D462FD0B0F1804F2CD0A3F5DA
S315200046407C43984228D003F58063984224D003F512
S315200046508063984220D003F5784398421CD003F516
S315200046607053984218D003F58063984214D003F50E
S315200046708063984210D0A3F5983398420CD003F566
S315200046808063984208D003F58063984204D00D4891
S3152000469040F63201FBF7BCFC25F00C0323B1094898
S315200046A040F63301FBF7B4FC238B23F00C031B04E9
S315200046B01B0C2383218B89B22943218338BD00BF5C
S315200046C0000001401D65002038B51D4B9842044668
S315200046D00D461FD0B0F1804F1CD0A3F57C439842E5
S315200046E018D003F58063984214D003F5806398426E
S315200046F010D003F5784398420CD003F570539842B6
S3152000470008D0A3F59433984204D00E4840F64B01C6
S31520004710FBF77EFC25F00C0323B10A4840F64C013A
S31520004720FBF776FC238B23F440631B041B0C2383AB
S31520004730218B89B241EA052189B2218338BD00BF88
S31520004740000001401D650020F8B52C4B9842044618
S315200047500D461FD0B0F1804F1CD0A3F57C43984264
S3152000476018D003F58063984214D003F580639842ED
S3152000477010D003F5784398420CD003F57053984235
S3152000478008D0A3F59433984204D01D4840F2BD7159
S31520004790FBF73EFC6988AA8828882B8900290CBF4C
S315200047A002270027012A0CBF0226012690B920469F
S315200047B0FDF7DAFF2046E988FFF738FF204639461D
S315200047C032462B89FDF7E9FF2046E988BDE8F84007
S315200047D0FFF77ABF2046FDF7E0FF2046E988FFF77E
S315200047E073FF2046394632462B89FDF7BDFF20460A
S315200047F0E988BDE8F840FFF719BF00BF0000014077
S315200048001D65002038B5184B984204460D4617D032
S31520004810B0F1804F14D0A3F57C43984210D003F515
S31520004820806398420CD003F58063984208D003F544
S315200048307843984204D00D4840F66301FBF7E8FB25
S3152000484025F00C0323B1094840F66401FBF7E0FB91
S31520004850A38B23F00C031B041B0CA383A18B89B20F
S315200048602943A18338BD00BF000001401D650020FB
S3152000487038B5194B984204460D4617D0B0F1804FF3
S3152000488014D0A3F57C43984210D003F58063984258
S315200048900CD003F58063984208D003F578439842FC
S315200048A004D00E4840F67B01FBF7B2FB25F00C0343
S315200048B023B10A4840F67C01FBF7AAFBA38B23F41D
S315200048C040631B041B0CA383A18B89B241EA0521FB
S315200048D089B2A18338BD00BF000001401D650020BC
S315200048E0F8B58B4B984204460D462FD0B0F1804F39
S315200048F02CD0A3F57C43984228D003F580639842B8
S3152000490024D003F58063984220D003F5784398425B
S315200049101CD003F57053984218D003F58063984253
S3152000492014D003F58063984210D0A3F598339842AB
S315200049300CD003F58063984208D003F58063984233
S3152000494004D0744840F26F71FBF762FB6B8823F04A
S31520004950020232B10A2B04D06E484FF4EE61FBF707
S3152000496057FBAB88013B9BB2022B04D9694840F226
S315200049707171FBF74DFBEB8823F00C039BB223B13F
S31520004980644840F27271FBF743FB2B890F2B04D945
S31520004990604840F27371FBF73BFB2A885AB92046E0
S315200049A06988AA882B89FDF7DFFE2046E988BDE8BD
S315200049B0F840FFF73BBE042A554B2DD19C421FD011
S315200049C0B4F1804F1CD0A3F57C439C4218D003F54C
S315200049D080639C4214D003F580639C4210D003F57B
S315200049E078439C420CD003F570539C4208D0A3F523
S315200049F094339C4204D0474840F28171FBF708FB70
S31520004A0020466988AA882B89FDF7C7FE2046E988B3
S31520004A10BDE8F840FFF758BE082A3AD19C4216D086
S31520004A20B4F1804F13D03C4B9C4210D003F58063E9
S31520004A309C420CD003F580639C4208D003F5784352
S31520004A409C4204D0334840F28B71FBF7E1FA218C6B
S31520004A506888AE882A8921F480710904090C21848A
S31520004A60A18B238C89B29BB221F0F30123F420631E
S31520004A7041EA021243EA002392B29BB2324343F444
S31520004A808073A28320462384E988BDE8F840FFF797
S31520004A90B9BE9C4216D0B4F1804F13D01E4B9C4217
S31520004AA010D003F580639C420CD003F580639C42B2
S31520004AB008D003F578439C4204D0164840F29571FD
S31520004AC0FBF7A6FA228C2B896E88AF8822F48052B7
S31520004AD01204120C2284A08B228C20F4407109052A
S31520004AE0090D41EA072141EA033122F400535B0410
S31520004AF05B0C43EA06339BB289B243F48053A1830D
S31520004B0020462384E988BDE8F840FFF7B1BE00BF00
S31520004B10000001401D6500200004004038B52D4BE3
S31520004B20984205460C4608D003F58063984204D087
S31520004B3029484FF40B61FBF76BFA238823F40063B3
S31520004B409BB223B1244840F6B101FBF761FA638892
S31520004B5023F480639BB223B11F4840F6B201FBF7D2
S31520004B6057FAA38823F440739BB223B11A4840F620
S31520004B70B301FBF74DFA238923F480539BB223B16B
S31520004B80154840F6B401FBF743FA638923F4005332
S31520004B909BB223B1104840F6B501FBF739FAA38939
S31520004BA023F480439BB223B10B4840F6B601FBF7B2
S31520004BB02FFA628823881343A2881343E28813437B
S31520004BC02289134362891343A28913439BB2A5F812
S31520004BD0443038BD000001401D65002000230380BD
S31520004BE043808380C380038143818381704738B5A6
S31520004BF0124B984204460D4608D003F5806398422E
S31520004C0004D00F4840F6DC01FBF702FA012D05D946
S31520004C100B4840F6DD01FBF7FBF900E03DB1B4F8A7
S31520004C2044306FEA43436FEA53439BB203E0B4F840
S31520004C304430C3F30E03A4F8443038BD00000140CD
S31520004C401D65002038B5114B984204460D4608D004
S31520004C5003F58063984204D00D4840F6F501FBF732
S31520004C60D7F9012D05D90A4840F6F601FBF7D0F908
S31520004C7000E025B1A3889BB243F0040304E0A38897
S31520004C8023F004031B041B0CA38038BD0000014045
S31520004C901D65002038B5114B984204460D4608D0B4
S31520004CA003F58063984204D00D4840F60E11FBF7B9
S31520004CB0AFF9012D05D90A4840F60F11FBF7A8F9DF
S31520004CC000E025B1A3889BB243F0010304E0A3884A
S31520004CD023F001031B041B0CA38038BD00000140F8
S31520004CE01D6500202D4B984270B504460D4616468C
S31520004CF037D0B0F1804F34D0A3F57C43984230D0E2
S31520004D0003F5806398422CD003F58063984228D01F
S31520004D1003F58063984224D003F58063984220D01F
S31520004D2003F5704398421CD003F57053984218D06F
S31520004D3003F58063984214D003F58063984210D01F
S31520004D40A3F5983398420CD003F58063984208D097
S31520004D5003F58063984204D0114840F64711FBF7CB
S31520004D6057F915F47F4F00D125B90D4840F6481163
S31520004D70FBF74EF9012E05D9094840F64911FBF7F4
S31520004D8047F900E01EB1A18989B2294303E0A18930
S31520004D9089B221EA0501A18170BD00BF0000014052
S31520004DA01D65002038B5244B984204460D4637D061
S31520004DB0B0F1804F34D0A3F57C43984230D003F530
S31520004DC0806398422CD003F58063984228D003F55F
S31520004DD08063984224D003F58063984220D003F55F
S31520004DE0704398421CD003F57053984218D003F5AF
S31520004DF08063984214D003F58063984210D0A3F5BF
S31520004E00983398420CD003F58063984208D003F576
S31520004E108063984204D0094840F66D11FBF7F8F8F4
S31520004E2015F47F4F00D125B9044840F66E11FBF7E3
S31520004E30EFF8A58238BD00BF000001401D650020A7
S31520004E4038B5314B984204460D4637D0B0F1804FE5
S31520004E5034D0A3F57C43984230D003F58063984242
S31520004E602CD003F58063984228D003F580639842BE
S31520004E7024D003F58063984220D003F570439842EE
S31520004E801CD003F57053984218D003F580639842DE
S31520004E9014D003F58063984210D0A3F59833984236
S31520004EA00CD003F58063984208D003F580639842BE
S31520004EB004D0164840F68F11FBF7AAF86B1E012B7B
S31520004EC01CD9042D1AD0082D18D0102D16D0202D1F
S31520004ED014D0402D12D0802D10D0B5F5007F0DD0E6
S31520004EE0B5F5806F0AD0B5F5006F07D0B5F5805FB0
S31520004EF004D006484FF41961FBF78AF8238A1D422D
S31520004F0014BF0120002038BD000001401D6500208F
S31520004F1038B5204B984204460D4637D0B0F1804F25
S31520004F2034D0A3F57C43984230D003F58063984271
S31520004F302CD003F58063984228D003F580639842ED
S31520004F4024D003F58063984220D003F5704398421D
S31520004F501CD003F57053984218D003F5806398420D
S31520004F6014D003F58063984210D0A3F59833984265
S31520004F700CD003F58063984208D003F580639842ED
S31520004F8004D0054840F6B811FBF742F8ED43ADB220
S31520004F90258238BD000001401D65002038B52D4B07
S31520004FA0984204460D4637D0B0F1804F34D0A3F551
S31520004FB07C43984230D003F5806398422CD003F589
S31520004FC08063984228D003F58063984224D003F565
S31520004FD08063984220D003F5704398421CD003F595
S31520004FE07053984218D003F58063984214D003F585
S31520004FF08063984210D0A3F5983398420CD003F5DD
S315200050008063984208D003F58063984204D0124802
S3152000501040F6D611FAF7FCFF6B1E012B10D9042D92
S315200050200ED0082D0CD0102D0AD0202D08D0402DC2
S3152000503006D0802D04D0084840F6D711FAF7E8FFAD
S31520005040208AA38928409BB203D01D4214BF012089
S31520005050002038BD000001401D65002038B5204BDA
S31520005060984204460D4637D0B0F1804F34D0A3F590
S315200050707C43984230D003F5806398422CD003F5C8
S315200050808063984228D003F58063984224D003F5A4
S315200050908063984220D003F5704398421CD003F5D4
S315200050A07053984218D003F58063984214D003F5C4
S315200050B08063984210D0A3F5983398420CD003F51C
S315200050C08063984208D003F58063984204D005484F
S315200050D040F6FD11FAF79CFFED43ADB2258238BDAF
S315200050E0000001401D650020204B984270B5044603
S315200050F00E46154617D0B0F1804F14D0A3F57C4349
S31520005100984210D003F5806398420CD003F5806353
S31520005110984208D003F57843984204D0144840F6C4
S315200051202221FAF775FF132E04D9114840F62321C0
S31520005130FAF76EFF25F4407325F480729BB292B283
S3152000514083B1B3F5806F0DD0B3F5006F0AD0B3F5F8
S31520005150406F07D0B2F5805F04D0054840F6242181
S31520005160FAF756FF3543A4F8485070BD00000140B9
S315200051701D650020214B984270B504460D46164603
S315200051801FD0B0F1804F1CD0A3F57C43984218D095
S3152000519003F58063984214D003F58063984210D0BB
S315200051A003F5806398420CD003F58063984208D0BB
S315200051B003F57043984204D0114840F63D21FAF792
S315200051C027FF25F4FE4303B925B90D4840F63E21B5
S315200051D0FAF71EFF012E05D9094840F63F21FAF7B6
S315200051E017FF00E01EB1A18989B2294303E0A189F6
S315200051F089B221EA0501A18170BD00BF00000140EE
S315200052001D65002038B5194B984204460D4617D027
S31520005210B0F1804F14D0A3F57C43984210D003F50B
S31520005220806398420CD003F58063984208D003F53A
S315200052307843984204D00E4840F65721FAF7E8FE04
S31520005240012D05D90A4840F65821FAF7E1FE00E07B
S3152000525025B1A3889BB243F0080304E0A38823F07A
S3152000526008031B041B0CA38038BD00BF00000140AF
S315200052701D650020154B984210B504461FD0B0F18D
S31520005280804F1CD0A3F57C43984218D003F5806349
S31520005290984214D003F58063984210D003F57843E2
S315200052A098420CD003F57053984208D0A3F5943356
S315200052B0984204D0064840F67E21FAF7A9FE2389B3
S315200052C023F007031B041B0C238110BD00000140A3
S315200052D01D65002038B5244B984204460D462FD034
S315200052E0B0F1804F2CD0A3F57C43984228D003F50B
S315200052F08063984224D003F58063984220D003F53A
S31520005300784398421CD003F57053984218D003F581
S315200053108063984214D003F58063984210D0A3F599
S31520005320983398420CD003F58063984208D003F551
S315200053308063984204D00D4840F65131FAF768FE52
S3152000534025F030039BB233B1402B04D0074840F6FA
S315200053505231FAF75DFE218921F070010904090C0A
S315200053602943218138BD00BF000001401D65002072
S3152000537038B51B4B984204460D461FD0B0F1804FDE
S315200053801CD0A3F57C43984218D003F5806398423D
S3152000539014D003F58063984210D003F578439842E1
S315200053A00CD003F57053984208D0A3F59433984255
S315200053B004D00C4840F69321FAF72AFE25F0300354
S315200053C023B1084840F69421FAF722FE20462946C2
S315200053D0FFF780FF23899BB243F00703238138BD63
S315200053E0000001401D650020F8B51E462E4B984250
S315200053F004460F4615462FD0B0F1804F2CD0A3F58A
S315200054007C43984228D003F58063984224D003F544
S315200054108063984220D003F5784398421CD003F548
S315200054207053984218D003F58063984214D003F540
S315200054308063984210D0A3F5983398420CD003F598
S315200054408063984208D003F58063984204D01748B9
S3152000545040F6B221FAF7DCFD25F0020333B10A2D1E
S3152000546004D0124840F6B321FAF7D2FD0F2E04D904
S315200054700E4840F6B421FAF7CBFD602F2046294688
S315200054804FF00102334602D1FDF787F901E0FDF71F
S315200054906BF920463946FFF71DFF23899BB243F05F
S315200054A007032381F8BD00BF000001401D650020D1
S315200054B038B51D4B984204460D461FD0B0F1804F9B
S315200054C01CD0A3F57C43984218D003F580639842FC
S315200054D014D003F58063984210D003F58063984278
S315200054E00CD003F58063984208D003F570439842A8
S315200054F004D00E4840F67A31FAF78AFD25F03003BB
